{
  "contractName": "Kittycontract",
  "abi": [
    {
      "anonymous": false,
      "inputs": [
        {
          "indexed": true,
          "internalType": "address",
          "name": "owner",
          "type": "address"
        },
        {
          "indexed": true,
          "internalType": "address",
          "name": "approved",
          "type": "address"
        },
        {
          "indexed": true,
          "internalType": "uint256",
          "name": "tokenId",
          "type": "uint256"
        }
      ],
      "name": "Approval",
      "type": "event"
    },
    {
      "anonymous": false,
      "inputs": [
        {
          "indexed": true,
          "internalType": "address",
          "name": "owner",
          "type": "address"
        },
        {
          "indexed": true,
          "internalType": "address",
          "name": "operator",
          "type": "address"
        },
        {
          "indexed": false,
          "internalType": "bool",
          "name": "approved",
          "type": "bool"
        }
      ],
      "name": "ApprovalForAll",
      "type": "event"
    },
    {
      "anonymous": false,
      "inputs": [
        {
          "indexed": false,
          "internalType": "address",
          "name": "owner",
          "type": "address"
        },
        {
          "indexed": false,
          "internalType": "uint256",
          "name": "mumId",
          "type": "uint256"
        },
        {
          "indexed": false,
          "internalType": "uint256",
          "name": "dadId",
          "type": "uint256"
        },
        {
          "indexed": false,
          "internalType": "string",
          "name": "dna",
          "type": "string"
        }
      ],
      "name": "Birth",
      "type": "event"
    },
    {
      "anonymous": false,
      "inputs": [
        {
          "indexed": true,
          "internalType": "address",
          "name": "previousOwner",
          "type": "address"
        },
        {
          "indexed": true,
          "internalType": "address",
          "name": "newOwner",
          "type": "address"
        }
      ],
      "name": "OwnershipTransferred",
      "type": "event"
    },
    {
      "anonymous": false,
      "inputs": [
        {
          "indexed": true,
          "internalType": "address",
          "name": "from",
          "type": "address"
        },
        {
          "indexed": true,
          "internalType": "address",
          "name": "to",
          "type": "address"
        },
        {
          "indexed": true,
          "internalType": "uint256",
          "name": "tokenId",
          "type": "uint256"
        }
      ],
      "name": "Transfer",
      "type": "event"
    },
    {
      "inputs": [
        {
          "internalType": "uint256",
          "name": "",
          "type": "uint256"
        }
      ],
      "name": "kittyOwner",
      "outputs": [
        {
          "internalType": "address",
          "name": "",
          "type": "address"
        }
      ],
      "stateMutability": "view",
      "type": "function",
      "constant": true
    },
    {
      "inputs": [],
      "name": "name",
      "outputs": [
        {
          "internalType": "string",
          "name": "",
          "type": "string"
        }
      ],
      "stateMutability": "view",
      "type": "function",
      "constant": true
    },
    {
      "inputs": [],
      "name": "owner",
      "outputs": [
        {
          "internalType": "address",
          "name": "",
          "type": "address"
        }
      ],
      "stateMutability": "view",
      "type": "function",
      "constant": true
    },
    {
      "inputs": [],
      "name": "renounceOwnership",
      "outputs": [],
      "stateMutability": "nonpayable",
      "type": "function"
    },
    {
      "inputs": [],
      "name": "symbol",
      "outputs": [
        {
          "internalType": "string",
          "name": "",
          "type": "string"
        }
      ],
      "stateMutability": "view",
      "type": "function",
      "constant": true
    },
    {
      "inputs": [
        {
          "internalType": "address",
          "name": "newOwner",
          "type": "address"
        }
      ],
      "name": "transferOwnership",
      "outputs": [],
      "stateMutability": "nonpayable",
      "type": "function"
    },
    {
      "inputs": [
        {
          "internalType": "bytes4",
          "name": "_interfaceId",
          "type": "bytes4"
        }
      ],
      "name": "supportsInterface",
      "outputs": [
        {
          "internalType": "bool",
          "name": "",
          "type": "bool"
        }
      ],
      "stateMutability": "pure",
      "type": "function",
      "constant": true
    },
    {
      "inputs": [
        {
          "internalType": "address",
          "name": "owner",
          "type": "address"
        }
      ],
      "name": "balanceOf",
      "outputs": [
        {
          "internalType": "uint256",
          "name": "balance",
          "type": "uint256"
        }
      ],
      "stateMutability": "view",
      "type": "function",
      "constant": true
    },
    {
      "inputs": [],
      "name": "totalSupply",
      "outputs": [
        {
          "internalType": "uint256",
          "name": "total",
          "type": "uint256"
        }
      ],
      "stateMutability": "view",
      "type": "function",
      "constant": true
    },
    {
      "inputs": [
        {
          "internalType": "uint256",
          "name": "tokenId",
          "type": "uint256"
        }
      ],
      "name": "ownerOf",
      "outputs": [
        {
          "internalType": "address",
          "name": "owner",
          "type": "address"
        }
      ],
      "stateMutability": "view",
      "type": "function",
      "constant": true
    },
    {
      "inputs": [
        {
          "internalType": "address",
          "name": "to",
          "type": "address"
        },
        {
          "internalType": "uint256",
          "name": "tokenId",
          "type": "uint256"
        }
      ],
      "name": "transfer",
      "outputs": [],
      "stateMutability": "nonpayable",
      "type": "function"
    },
    {
      "inputs": [
        {
          "internalType": "address",
          "name": "_from",
          "type": "address"
        },
        {
          "internalType": "address",
          "name": "_to",
          "type": "address"
        },
        {
          "internalType": "uint256",
          "name": "_tokenId",
          "type": "uint256"
        }
      ],
      "name": "safeTransferFrom",
      "outputs": [],
      "stateMutability": "nonpayable",
      "type": "function"
    },
    {
      "inputs": [
        {
          "internalType": "address",
          "name": "_from",
          "type": "address"
        },
        {
          "internalType": "address",
          "name": "_to",
          "type": "address"
        },
        {
          "internalType": "uint256",
          "name": "_tokenId",
          "type": "uint256"
        },
        {
          "internalType": "bytes",
          "name": "data",
          "type": "bytes"
        }
      ],
      "name": "safeTransferFrom",
      "outputs": [],
      "stateMutability": "nonpayable",
      "type": "function"
    },
    {
      "inputs": [
        {
          "internalType": "address",
          "name": "_from",
          "type": "address"
        },
        {
          "internalType": "address",
          "name": "_to",
          "type": "address"
        },
        {
          "internalType": "uint256",
          "name": "_tokenId",
          "type": "uint256"
        }
      ],
      "name": "transferFrom",
      "outputs": [],
      "stateMutability": "nonpayable",
      "type": "function"
    },
    {
      "inputs": [
        {
          "internalType": "address",
          "name": "_approved",
          "type": "address"
        },
        {
          "internalType": "uint256",
          "name": "_tokenId",
          "type": "uint256"
        }
      ],
      "name": "approve",
      "outputs": [],
      "stateMutability": "nonpayable",
      "type": "function"
    },
    {
      "inputs": [
        {
          "internalType": "address",
          "name": "_operator",
          "type": "address"
        },
        {
          "internalType": "bool",
          "name": "_approved",
          "type": "bool"
        }
      ],
      "name": "setApprovalForAll",
      "outputs": [],
      "stateMutability": "nonpayable",
      "type": "function"
    },
    {
      "inputs": [
        {
          "internalType": "uint256",
          "name": "_tokenId",
          "type": "uint256"
        }
      ],
      "name": "getApproved",
      "outputs": [
        {
          "internalType": "address",
          "name": "",
          "type": "address"
        }
      ],
      "stateMutability": "view",
      "type": "function",
      "constant": true
    },
    {
      "inputs": [
        {
          "internalType": "address",
          "name": "_owner",
          "type": "address"
        },
        {
          "internalType": "address",
          "name": "_operator",
          "type": "address"
        }
      ],
      "name": "isApprovedForAll",
      "outputs": [
        {
          "internalType": "bool",
          "name": "",
          "type": "bool"
        }
      ],
      "stateMutability": "view",
      "type": "function",
      "constant": true
    },
    {
      "inputs": [
        {
          "internalType": "string",
          "name": "dna",
          "type": "string"
        }
      ],
      "name": "createKittyGen0",
      "outputs": [
        {
          "internalType": "uint256",
          "name": "",
          "type": "uint256"
        }
      ],
      "stateMutability": "nonpayable",
      "type": "function"
    },
    {
      "inputs": [
        {
          "internalType": "uint256",
          "name": "tokenId",
          "type": "uint256"
        }
      ],
      "name": "getKitty",
      "outputs": [
        {
          "internalType": "string",
          "name": "dna",
          "type": "string"
        },
        {
          "internalType": "uint256",
          "name": "birthTime",
          "type": "uint256"
        },
        {
          "internalType": "uint256",
          "name": "mumId",
          "type": "uint256"
        },
        {
          "internalType": "uint256",
          "name": "dadId",
          "type": "uint256"
        },
        {
          "internalType": "uint256",
          "name": "generation",
          "type": "uint256"
        },
        {
          "internalType": "address",
          "name": "owner",
          "type": "address"
        }
      ],
      "stateMutability": "view",
      "type": "function",
      "constant": true
    },
    {
      "inputs": [
        {
          "internalType": "uint256",
          "name": "dadId",
          "type": "uint256"
        },
        {
          "internalType": "uint256",
          "name": "mumId",
          "type": "uint256"
        }
      ],
      "name": "breed",
      "outputs": [
        {
          "internalType": "uint256",
          "name": "",
          "type": "uint256"
        }
      ],
      "stateMutability": "nonpayable",
      "type": "function"
    },
    {
      "inputs": [],
      "name": "getMyKittyIds",
      "outputs": [
        {
          "internalType": "uint256[]",
          "name": "",
          "type": "uint256[]"
        }
      ],
      "stateMutability": "view",
      "type": "function",
      "constant": true
    }
  ],
  "bytecode": "0x60806040523480156200001157600080fd5b50600062000024620000c860201b60201c565b9050806000806101000a81548173ffffffffffffffffffffffffffffffffffffffff021916908373ffffffffffffffffffffffffffffffffffffffff1602179055508073ffffffffffffffffffffffffffffffffffffffff16600073ffffffffffffffffffffffffffffffffffffffff167f8be0079c531659141344cd1fd0a4f28419497f9722a3daafe3b4186f6b6457e060405160405180910390a350620000d0565b600033905090565b61341980620000e06000396000f3fe608060405234801561001057600080fd5b50600436106101425760003560e01c80638da5cb5b116100b8578063cb854ae71161007c578063cb854ae714610361578063cc99c8aa14610391578063d9ecad7b146103af578063e985e9c5146103df578063e98b7f4d1461040f578063f2fde38b1461044457610142565b80638da5cb5b146102d157806395d89b41146102ef578063a22cb4651461030d578063a9059cbb14610329578063b88d4fde1461034557610142565b806323b872dd1161010a57806323b872dd146101ff57806342842e0e1461021b5780636352211e1461023757806370a0823114610267578063715018a6146102975780638420f94b146102a157610142565b806301ffc9a71461014757806306fdde0314610177578063081812fc14610195578063095ea7b3146101c557806318160ddd146101e1575b600080fd5b610161600480360381019061015c9190612848565b610460565b60405161016e9190612c2e565b60405180910390f35b61017f610500565b60405161018c9190612c49565b60405180910390f35b6101af60048036038101906101aa91906128db565b610539565b6040516101bc9190612b59565b60405180910390f35b6101df60048036038101906101da919061280c565b6105bd565b005b6101e96106fe565b6040516101f69190612db3565b60405180910390f35b61021960048036038101906102149190612706565b61070b565b005b61023560048036038101906102309190612706565b610864565b005b610251600480360381019061024c91906128db565b6109cd565b60405161025e9190612b59565b60405180910390f35b610281600480360381019061027c91906126a1565b610a51565b60405161028e9190612db3565b60405180910390f35b61029f610a9a565b005b6102bb60048036038101906102b6919061289a565b610bd4565b6040516102c89190612db3565b60405180910390f35b6102d9610c68565b6040516102e69190612b59565b60405180910390f35b6102f7610c91565b6040516103049190612c49565b60405180910390f35b610327600480360381019061032291906127d0565b610cca565b005b610343600480360381019061033e919061280c565b610e00565b005b61035f600480360381019061035a9190612755565b610f12565b005b61037b600480360381019061037691906128db565b61106d565b6040516103889190612b59565b60405180910390f35b6103996110a0565b6040516103a69190612c0c565b60405180910390f35b6103c960048036038101906103c49190612904565b6111ac565b6040516103d69190612db3565b60405180910390f35b6103f960048036038101906103f491906126ca565b61147d565b6040516104069190612c2e565b60405180910390f35b610429600480360381019061042491906128db565b611511565b60405161043b96959493929190612c6b565b60405180910390f35b61045e600480360381019061045991906126a1565b6116ad565b005b60006380ac58cd60e01b7bffffffffffffffffffffffffffffffffffffffffffffffffffffffff1916827bffffffffffffffffffffffffffffffffffffffffffffffffffffffff191614806104f957506301ffc9a760e01b7bffffffffffffffffffffffffffffffffffffffffffffffffffffffff1916827bffffffffffffffffffffffffffffffffffffffffffffffffffffffff1916145b9050919050565b6040518060400160405280600d81526020017f4d696368616c4b6974746965730000000000000000000000000000000000000081525081565b60006005805490508210610582576040517f08c379a000000000000000000000000000000000000000000000000000000000815260040161057990612cd3565b60405180910390fd5b6003600083815260200190815260200160002060009054906101000a900473ffffffffffffffffffffffffffffffffffffffff169050919050565b6005805490508110610604576040517f08c379a00000000000000000000000000000000000000000000000000000000081526004016105fb90612cd3565b60405180910390fd5b61060e3382611856565b61064d576040517f08c379a000000000000000000000000000000000000000000000000000000000815260040161064490612d53565b60405180910390fd5b816003600083815260200190815260200160002060006101000a81548173ffffffffffffffffffffffffffffffffffffffff021916908373ffffffffffffffffffffffffffffffffffffffff160217905550808273ffffffffffffffffffffffffffffffffffffffff163373ffffffffffffffffffffffffffffffffffffffff167f8c5be1e5ebec7d5bd14f71427d1e84f3dd0314c0f7b2291e5b200ac8c7c3b92560405160405180910390a45050565b6000600580549050905090565b6005805490508110610752576040517f08c379a000000000000000000000000000000000000000000000000000000000815260040161074990612cd3565b60405180910390fd5b61075c33826118c2565b61079b576040517f08c379a000000000000000000000000000000000000000000000000000000000815260040161079290612cf3565b60405180910390fd5b6107a58382611856565b6107e4576040517f08c379a00000000000000000000000000000000000000000000000000000000081526004016107db90612d93565b60405180910390fd5b600073ffffffffffffffffffffffffffffffffffffffff168273ffffffffffffffffffffffffffffffffffffffff161415610854576040517f08c379a000000000000000000000000000000000000000000000000000000000815260040161084b90612d33565b60405180910390fd5b61085f838383611a03565b505050565b60058054905081106108ab576040517f08c379a00000000000000000000000000000000000000000000000000000000081526004016108a290612cd3565b60405180910390fd5b6108b533826118c2565b6108f4576040517f08c379a00000000000000000000000000000000000000000000000000000000081526004016108eb90612cf3565b60405180910390fd5b6108fe8382611856565b61093d576040517f08c379a000000000000000000000000000000000000000000000000000000000815260040161093490612d93565b60405180910390fd5b600073ffffffffffffffffffffffffffffffffffffffff168273ffffffffffffffffffffffffffffffffffffffff1614156109ad576040517f08c379a00000000000000000000000000000000000000000000000000000000081526004016109a490612d33565b60405180910390fd5b6109c883838360405180602001604052806000815250611bce565b505050565b60006005805490508210610a16576040517f08c379a0000000000000000000000000000000000000000000000000000000008152600401610a0d90612cd3565b60405180910390fd5b6001600083815260200190815260200160002060009054906101000a900473ffffffffffffffffffffffffffffffffffffffff169050919050565b6000600260008373ffffffffffffffffffffffffffffffffffffffff1673ffffffffffffffffffffffffffffffffffffffff168152602001908152602001600020549050919050565b610aa2611bf4565b73ffffffffffffffffffffffffffffffffffffffff16610ac0610c68565b73ffffffffffffffffffffffffffffffffffffffff1614610b16576040517f08c379a0000000000000000000000000000000000000000000000000000000008152600401610b0d90612d73565b60405180910390fd5b600073ffffffffffffffffffffffffffffffffffffffff1660008054906101000a900473ffffffffffffffffffffffffffffffffffffffff1673ffffffffffffffffffffffffffffffffffffffff167f8be0079c531659141344cd1fd0a4f28419497f9722a3daafe3b4186f6b6457e060405160405180910390a360008060006101000a81548173ffffffffffffffffffffffffffffffffffffffff021916908373ffffffffffffffffffffffffffffffffffffffff160217905550565b6000610bde611bf4565b73ffffffffffffffffffffffffffffffffffffffff16610bfc610c68565b73ffffffffffffffffffffffffffffffffffffffff1614610c52576040517f08c379a0000000000000000000000000000000000000000000000000000000008152600401610c4990612d73565b60405180910390fd5b610c6182600080600033611bfc565b9050919050565b60008060009054906101000a900473ffffffffffffffffffffffffffffffffffffffff16905090565b6040518060400160405280600481526020017f4d4b49540000000000000000000000000000000000000000000000000000000081525081565b8173ffffffffffffffffffffffffffffffffffffffff163373ffffffffffffffffffffffffffffffffffffffff161415610d0357600080fd5b80600460003373ffffffffffffffffffffffffffffffffffffffff1673ffffffffffffffffffffffffffffffffffffffff16815260200190815260200160002060008473ffffffffffffffffffffffffffffffffffffffff1673ffffffffffffffffffffffffffffffffffffffff16815260200190815260200160002060006101000a81548160ff0219169083151502179055508173ffffffffffffffffffffffffffffffffffffffff163373ffffffffffffffffffffffffffffffffffffffff167f17307eab39ab6107e8899845ad3d59bd9653f200f220920489ca2b5937696c3183604051610df49190612c2e565b60405180910390a35050565b600073ffffffffffffffffffffffffffffffffffffffff168273ffffffffffffffffffffffffffffffffffffffff161415610e3a57600080fd5b3073ffffffffffffffffffffffffffffffffffffffff168273ffffffffffffffffffffffffffffffffffffffff161415610e7357600080fd5b6005805490508110610eba576040517f08c379a0000000000000000000000000000000000000000000000000000000008152600401610eb190612cd3565b60405180910390fd5b610ec43382611856565b610f03576040517f08c379a0000000000000000000000000000000000000000000000000000000008152600401610efa90612d53565b60405180910390fd5b610f0e338383611a03565b5050565b6005805490508210610f59576040517f08c379a0000000000000000000000000000000000000000000000000000000008152600401610f5090612cd3565b60405180910390fd5b610f6333836118c2565b610fa2576040517f08c379a0000000000000000000000000000000000000000000000000000000008152600401610f9990612cf3565b60405180910390fd5b610fac8483611856565b610feb576040517f08c379a0000000000000000000000000000000000000000000000000000000008152600401610fe290612d93565b60405180910390fd5b600073ffffffffffffffffffffffffffffffffffffffff168373ffffffffffffffffffffffffffffffffffffffff16141561105b576040517f08c379a000000000000000000000000000000000000000000000000000000000815260040161105290612d33565b60405180910390fd5b61106784848484611bce565b50505050565b60016020528060005260406000206000915054906101000a900473ffffffffffffffffffffffffffffffffffffffff1681565b6060600060058054905067ffffffffffffffff8111156110e9577f4e487b7100000000000000000000000000000000000000000000000000000000600052604160045260246000fd5b6040519080825280602002602001820160405280156111175781602001602082028036833780820191505090505b5090506000805b6005805490508110156111a3576111353382611856565b156111905780838381518110611174577f4e487b7100000000000000000000000000000000000000000000000000000000600052603260045260246000fd5b60200260200101818152505060018261118d9190612efe565b91505b808061119b906130e0565b91505061111e565b50819250505090565b60006111b83384611856565b6111c157600080fd5b6111cb3383611856565b6111d457600080fd5b600060058381548110611210577f4e487b7100000000000000000000000000000000000000000000000000000000600052603260045260246000fd5b9060005260206000209060020201600001905060006005858154811061125f577f4e487b7100000000000000000000000000000000000000000000000000000000600052603260045260246000fd5b9060005260206000209060020201600001905060006113908380546112839061307d565b80601f01602080910402602001604051908101604052809291908181526020018280546112af9061307d565b80156112fc5780601f106112d1576101008083540402835291602001916112fc565b820191906000526020600020905b8154815290600101906020018083116112df57829003601f168201915b505050505083805461130d9061307d565b80601f01602080910402602001604051908101604052809291908181526020018280546113399061307d565b80156113865780601f1061135b57610100808354040283529160200191611386565b820191906000526020600020905b81548152906001019060200180831161136957829003601f168201915b5050505050611d9a565b905060006002600588815481106113d0577f4e487b7100000000000000000000000000000000000000000000000000000000600052603260045260246000fd5b906000526020600020906002020160010160109054906101000a900461ffff166005888154811061142a577f4e487b7100000000000000000000000000000000000000000000000000000000600052603260045260246000fd5b906000526020600020906002020160010160109054906101000a900461ffff166114549190612ec6565b61145e9190612f54565b61ffff1690506114718287898433611bfc565b94505050505092915050565b6000600460008473ffffffffffffffffffffffffffffffffffffffff1673ffffffffffffffffffffffffffffffffffffffff16815260200190815260200160002060008373ffffffffffffffffffffffffffffffffffffffff1673ffffffffffffffffffffffffffffffffffffffff16815260200190815260200160002060009054906101000a900460ff16905092915050565b606060008060008060008060058881548110611556577f4e487b7100000000000000000000000000000000000000000000000000000000600052603260045260246000fd5b906000526020600020906002020190508060000180546115759061307d565b80601f01602080910402602001604051908101604052809291908181526020018280546115a19061307d565b80156115ee5780601f106115c3576101008083540402835291602001916115ee565b820191906000526020600020905b8154815290600101906020018083116115d157829003601f168201915b505050505096508060010160009054906101000a900467ffffffffffffffff1667ffffffffffffffff1695508060010160089054906101000a900463ffffffff1663ffffffff16945080600101600c9054906101000a900463ffffffff1663ffffffff1693508060010160109054906101000a900461ffff1661ffff1692506001600089815260200190815260200160002060009054906101000a900473ffffffffffffffffffffffffffffffffffffffff1691505091939550919395565b6116b5611bf4565b73ffffffffffffffffffffffffffffffffffffffff166116d3610c68565b73ffffffffffffffffffffffffffffffffffffffff1614611729576040517f08c379a000000000000000000000000000000000000000000000000000000000815260040161172090612d73565b60405180910390fd5b600073ffffffffffffffffffffffffffffffffffffffff168173ffffffffffffffffffffffffffffffffffffffff161415611799576040517f08c379a000000000000000000000000000000000000000000000000000000000815260040161179090612d13565b60405180910390fd5b8073ffffffffffffffffffffffffffffffffffffffff1660008054906101000a900473ffffffffffffffffffffffffffffffffffffffff1673ffffffffffffffffffffffffffffffffffffffff167f8be0079c531659141344cd1fd0a4f28419497f9722a3daafe3b4186f6b6457e060405160405180910390a3806000806101000a81548173ffffffffffffffffffffffffffffffffffffffff021916908373ffffffffffffffffffffffffffffffffffffffff16021790555050565b60008273ffffffffffffffffffffffffffffffffffffffff166001600084815260200190815260200160002060009054906101000a900473ffffffffffffffffffffffffffffffffffffffff1673ffffffffffffffffffffffffffffffffffffffff1614905092915050565b60006118ce8383611856565b8061193757508273ffffffffffffffffffffffffffffffffffffffff166003600084815260200190815260200160002060009054906101000a900473ffffffffffffffffffffffffffffffffffffffff1673ffffffffffffffffffffffffffffffffffffffff16145b806119fb5750600460006001600085815260200190815260200160002060009054906101000a900473ffffffffffffffffffffffffffffffffffffffff1673ffffffffffffffffffffffffffffffffffffffff1673ffffffffffffffffffffffffffffffffffffffff16815260200190815260200160002060008473ffffffffffffffffffffffffffffffffffffffff1673ffffffffffffffffffffffffffffffffffffffff16815260200190815260200160002060009054906101000a900460ff165b905092915050565b816001600083815260200190815260200160002060006101000a81548173ffffffffffffffffffffffffffffffffffffffff021916908373ffffffffffffffffffffffffffffffffffffffff1602179055506001600260008473ffffffffffffffffffffffffffffffffffffffff1673ffffffffffffffffffffffffffffffffffffffff1681526020019081526020016000206000828254611aa59190612efe565b92505081905550600073ffffffffffffffffffffffffffffffffffffffff168373ffffffffffffffffffffffffffffffffffffffff1614611b6e576001600260003373ffffffffffffffffffffffffffffffffffffffff1673ffffffffffffffffffffffffffffffffffffffff1681526020019081526020016000206000828254611b309190612f85565b925050819055506003600082815260200190815260200160002060006101000a81549073ffffffffffffffffffffffffffffffffffffffff02191690555b808273ffffffffffffffffffffffffffffffffffffffff163373ffffffffffffffffffffffffffffffffffffffff167fddf252ad1be2c89b69c2b068fc378daa952ba7f163c4a11628f55a4df523b3ef60405160405180910390a4505050565b611bd9848484611a03565b611be584848484612392565b611bee57600080fd5b50505050565b600033905090565b6000806040518060a001604052808881526020014267ffffffffffffffff1681526020018763ffffffff1681526020018663ffffffff1681526020018561ffff16815250905060058190806001815401808255809150506001900390600052602060002090600202016000909190919091506000820151816000019080519060200190611c8a9291906124c5565b5060208201518160010160006101000a81548167ffffffffffffffff021916908367ffffffffffffffff16021790555060408201518160010160086101000a81548163ffffffff021916908363ffffffff160217905550606082015181600101600c6101000a81548163ffffffff021916908363ffffffff16021790555060808201518160010160106101000a81548161ffff021916908361ffff160217905550505060006001600580549050611d419190612f85565b90507f57bdfedb3ab59e29d46157723e7f15e09b7b59531c13d298d3ed65c34db2b6aa8488888b604051611d789493929190612bc0565b60405180910390a1611d8c60008583611a03565b809250505095945050505050565b6060600083905060008390506000602067ffffffffffffffff811115611de9577f4e487b7100000000000000000000000000000000000000000000000000000000600052604160045260246000fd5b6040519080825280601f01601f191660200182016040528015611e1b5781602001600182028036833780820191505090505b50905060005b6006811015611ee957838181518110611e63577f4e487b7100000000000000000000000000000000000000000000000000000000600052603260045260246000fd5b602001015160f81c60f81b828281518110611ea7577f4e487b7100000000000000000000000000000000000000000000000000000000600052603260045260246000fd5b60200101907effffffffffffffffffffffffffffffffffffffffffffffffffffffffffffff1916908160001a9053508080611ee1906130e0565b915050611e21565b506000600690505b600c811015611fb957828181518110611f33577f4e487b7100000000000000000000000000000000000000000000000000000000600052603260045260246000fd5b602001015160f81c60f81b828281518110611f77577f4e487b7100000000000000000000000000000000000000000000000000000000600052603260045260246000fd5b60200101907effffffffffffffffffffffffffffffffffffffffffffffffffffffffffffff1916908160001a9053508080611fb1906130e0565b915050611ef1565b506000600c90505b601281101561208957828181518110612003577f4e487b7100000000000000000000000000000000000000000000000000000000600052603260045260246000fd5b602001015160f81c60f81b828281518110612047577f4e487b7100000000000000000000000000000000000000000000000000000000600052603260045260246000fd5b60200101907effffffffffffffffffffffffffffffffffffffffffffffffffffffffffffff1916908160001a9053508080612081906130e0565b915050611fc1565b506000601290505b6018811015612159578281815181106120d3577f4e487b7100000000000000000000000000000000000000000000000000000000600052603260045260246000fd5b602001015160f81c60f81b828281518110612117577f4e487b7100000000000000000000000000000000000000000000000000000000600052603260045260246000fd5b60200101907effffffffffffffffffffffffffffffffffffffffffffffffffffffffffffff1916908160001a9053508080612151906130e0565b915050612091565b506000601890505b601e811015612229578381815181106121a3577f4e487b7100000000000000000000000000000000000000000000000000000000600052603260045260246000fd5b602001015160f81c60f81b8282815181106121e7577f4e487b7100000000000000000000000000000000000000000000000000000000600052603260045260246000fd5b60200101907effffffffffffffffffffffffffffffffffffffffffffffffffffffffffffff1916908160001a9053508080612221906130e0565b915050612161565b5081601e81518110612264577f4e487b7100000000000000000000000000000000000000000000000000000000600052603260045260246000fd5b602001015160f81c60f81b81601e815181106122a9577f4e487b7100000000000000000000000000000000000000000000000000000000600052603260045260246000fd5b60200101907effffffffffffffffffffffffffffffffffffffffffffffffffffffffffffff1916908160001a90535082601f81518110612312577f4e487b7100000000000000000000000000000000000000000000000000000000600052603260045260246000fd5b602001015160f81c60f81b81601f81518110612357577f4e487b7100000000000000000000000000000000000000000000000000000000600052603260045260246000fd5b60200101907effffffffffffffffffffffffffffffffffffffffffffffffffffffffffffff1916908160001a90535080935050505092915050565b600061239d846124b2565b6123aa57600190506124aa565b600084905060008173ffffffffffffffffffffffffffffffffffffffff1663150b7a02338988886040518563ffffffff1660e01b81526004016123f09493929190612b74565b602060405180830381600087803b15801561240a57600080fd5b505af115801561241e573d6000803e3d6000fd5b505050506040513d601f19601f820116820180604052508101906124429190612871565b9050807bffffffffffffffffffffffffffffffffffffffffffffffffffffffff19167f150b7a023d4804d13e8c85fb27262cb750cf6ba9f9dd3bb30d90f482ceeb4b1f7bffffffffffffffffffffffffffffffffffffffffffffffffffffffff191614925050505b949350505050565b600080823b905060008111915050919050565b8280546124d19061307d565b90600052602060002090601f0160209004810192826124f3576000855561253a565b82601f1061250c57805160ff191683800117855561253a565b8280016001018555821561253a579182015b8281111561253957825182559160200191906001019061251e565b5b509050612547919061254b565b5090565b5b8082111561256457600081600090555060010161254c565b5090565b600061257b61257684612df3565b612dce565b90508281526020810184848401111561259357600080fd5b61259e84828561303b565b509392505050565b60006125b96125b484612e24565b612dce565b9050828152602081018484840111156125d157600080fd5b6125dc84828561303b565b509392505050565b6000813590506125f381613387565b92915050565b6000813590506126088161339e565b92915050565b60008135905061261d816133b5565b92915050565b600081519050612632816133b5565b92915050565b600082601f83011261264957600080fd5b8135612659848260208601612568565b91505092915050565b600082601f83011261267357600080fd5b81356126838482602086016125a6565b91505092915050565b60008135905061269b816133cc565b92915050565b6000602082840312156126b357600080fd5b60006126c1848285016125e4565b91505092915050565b600080604083850312156126dd57600080fd5b60006126eb858286016125e4565b92505060206126fc858286016125e4565b9150509250929050565b60008060006060848603121561271b57600080fd5b6000612729868287016125e4565b935050602061273a868287016125e4565b925050604061274b8682870161268c565b9150509250925092565b6000806000806080858703121561276b57600080fd5b6000612779878288016125e4565b945050602061278a878288016125e4565b935050604061279b8782880161268c565b925050606085013567ffffffffffffffff8111156127b857600080fd5b6127c487828801612638565b91505092959194509250565b600080604083850312156127e357600080fd5b60006127f1858286016125e4565b9250506020612802858286016125f9565b9150509250929050565b6000806040838503121561281f57600080fd5b600061282d858286016125e4565b925050602061283e8582860161268c565b9150509250929050565b60006020828403121561285a57600080fd5b60006128688482850161260e565b91505092915050565b60006020828403121561288357600080fd5b600061289184828501612623565b91505092915050565b6000602082840312156128ac57600080fd5b600082013567ffffffffffffffff8111156128c657600080fd5b6128d284828501612662565b91505092915050565b6000602082840312156128ed57600080fd5b60006128fb8482850161268c565b91505092915050565b6000806040838503121561291757600080fd5b60006129258582860161268c565b92505060206129368582860161268c565b9150509250929050565b600061294c8383612b3b565b60208301905092915050565b61296181612fb9565b82525050565b600061297282612e65565b61297c8185612e93565b935061298783612e55565b8060005b838110156129b857815161299f8882612940565b97506129aa83612e86565b92505060018101905061298b565b5085935050505092915050565b6129ce81612fcb565b82525050565b60006129df82612e70565b6129e98185612ea4565b93506129f981856020860161304a565b612a02816131e5565b840191505092915050565b6000612a1882612e7b565b612a228185612eb5565b9350612a3281856020860161304a565b612a3b816131e5565b840191505092915050565b6000612a53601383612eb5565b9150612a5e826131f6565b602082019050919050565b6000612a76602c83612eb5565b9150612a818261321f565b604082019050919050565b6000612a99602683612eb5565b9150612aa48261326e565b604082019050919050565b6000612abc601883612eb5565b9150612ac7826132bd565b602082019050919050565b6000612adf601883612eb5565b9150612aea826132e6565b602082019050919050565b6000612b02602083612eb5565b9150612b0d8261330f565b602082019050919050565b6000612b25602183612eb5565b9150612b3082613338565b604082019050919050565b612b4481613031565b82525050565b612b5381613031565b82525050565b6000602082019050612b6e6000830184612958565b92915050565b6000608082019050612b896000830187612958565b612b966020830186612958565b612ba36040830185612b4a565b8181036060830152612bb581846129d4565b905095945050505050565b6000608082019050612bd56000830187612958565b612be26020830186612b4a565b612bef6040830185612b4a565b8181036060830152612c018184612a0d565b905095945050505050565b60006020820190508181036000830152612c268184612967565b905092915050565b6000602082019050612c4360008301846129c5565b92915050565b60006020820190508181036000830152612c638184612a0d565b905092915050565b600060c0820190508181036000830152612c858189612a0d565b9050612c946020830188612b4a565b612ca16040830187612b4a565b612cae6060830186612b4a565b612cbb6080830185612b4a565b612cc860a0830184612958565b979650505050505050565b60006020820190508181036000830152612cec81612a46565b9050919050565b60006020820190508181036000830152612d0c81612a69565b9050919050565b60006020820190508181036000830152612d2c81612a8c565b9050919050565b60006020820190508181036000830152612d4c81612aaf565b9050919050565b60006020820190508181036000830152612d6c81612ad2565b9050919050565b60006020820190508181036000830152612d8c81612af5565b9050919050565b60006020820190508181036000830152612dac81612b18565b9050919050565b6000602082019050612dc86000830184612b4a565b92915050565b6000612dd8612de9565b9050612de482826130af565b919050565b6000604051905090565b600067ffffffffffffffff821115612e0e57612e0d6131b6565b5b612e17826131e5565b9050602081019050919050565b600067ffffffffffffffff821115612e3f57612e3e6131b6565b5b612e48826131e5565b9050602081019050919050565b6000819050602082019050919050565b600081519050919050565b600081519050919050565b600081519050919050565b6000602082019050919050565b600082825260208201905092915050565b600082825260208201905092915050565b600082825260208201905092915050565b6000612ed182613003565b9150612edc83613003565b92508261ffff03821115612ef357612ef2613129565b5b828201905092915050565b6000612f0982613031565b9150612f1483613031565b9250827fffffffffffffffffffffffffffffffffffffffffffffffffffffffffffffffff03821115612f4957612f48613129565b5b828201905092915050565b6000612f5f82613003565b9150612f6a83613003565b925082612f7a57612f79613158565b5b828204905092915050565b6000612f9082613031565b9150612f9b83613031565b925082821015612fae57612fad613129565b5b828203905092915050565b6000612fc482613011565b9050919050565b60008115159050919050565b60007fffffffff0000000000000000000000000000000000000000000000000000000082169050919050565b600061ffff82169050919050565b600073ffffffffffffffffffffffffffffffffffffffff82169050919050565b6000819050919050565b82818337600083830152505050565b60005b8381101561306857808201518184015260208101905061304d565b83811115613077576000848401525b50505050565b6000600282049050600182168061309557607f821691505b602082108114156130a9576130a8613187565b5b50919050565b6130b8826131e5565b810181811067ffffffffffffffff821117156130d7576130d66131b6565b5b80604052505050565b60006130eb82613031565b91507fffffffffffffffffffffffffffffffffffffffffffffffffffffffffffffffff82141561311e5761311d613129565b5b600182019050919050565b7f4e487b7100000000000000000000000000000000000000000000000000000000600052601160045260246000fd5b7f4e487b7100000000000000000000000000000000000000000000000000000000600052601260045260246000fd5b7f4e487b7100000000000000000000000000000000000000000000000000000000600052602260045260246000fd5b7f4e487b7100000000000000000000000000000000000000000000000000000000600052604160045260246000fd5b6000601f19601f8301169050919050565b7f546f6b656e20646f65736e277420657869737400000000000000000000000000600082015250565b7f596f7520617265206e6f7420617574686f72697a6520746f207472616e73666560008201527f72207468697320746f6b656e0000000000000000000000000000000000000000602082015250565b7f4f776e61626c653a206e6577206f776e657220697320746865207a65726f206160008201527f6464726573730000000000000000000000000000000000000000000000000000602082015250565b7f5f746f2061646472657373206973203020616464726573730000000000000000600082015250565b7f596f7520646f6e2774206f776e207468697320746f6b656e0000000000000000600082015250565b7f4f776e61626c653a2063616c6c6572206973206e6f7420746865206f776e6572600082015250565b7f5f66726f6d20616464726573732069736e27742063757272656e74206f776e6560008201527f7200000000000000000000000000000000000000000000000000000000000000602082015250565b61339081612fb9565b811461339b57600080fd5b50565b6133a781612fcb565b81146133b257600080fd5b50565b6133be81612fd7565b81146133c957600080fd5b50565b6133d581613031565b81146133e057600080fd5b5056fea26469706673582212200cd34edd7ed720c5c6fbaa9165b9c6a5f2cd9e4e97ac723a986feb025a5c740f64736f6c63430008040033",
  "immutableReferences": {},
  "source": "// SPDX-License-Identifier: MIT\npragma solidity ^0.8.0;\n\nimport \"./IERC721.sol\";\nimport \"./Ownable.sol\";\nimport \"./IERC721Receiver.sol\";\n\ncontract Kittycontract is IERC721, Ownable {\n\n    string public constant override name = \"MichalKitties\";\n    string public constant override symbol = \"MKIT\";\n\n    bytes4 internal constant _ERC721_INTERFACE_ID = 0x80ac58cd;\n    bytes4 internal constant _ERC165_INTERFACE_ID = 0x01ffc9a7;\n\n    event Birth(address owner, uint256 mumId, uint256 dadId, string dna);\n\n    struct Kitty {\n        string dna;\n        uint64 birthTime;\n        uint32 mumId;\n        uint32 dadId;\n        uint16 generation;\n    }\n\n    mapping(uint256 => address) public kittyOwner;\n    mapping(address => uint256) balances;\n    mapping(uint256 => address) approvals;\n    mapping(address => mapping(address => bool)) approvalsForAll;\n\n    Kitty[] kitties;\n\n    function supportsInterface(bytes4 _interfaceId) external pure returns(bool) {\n        return _interfaceId == _ERC721_INTERFACE_ID || _interfaceId == _ERC165_INTERFACE_ID;\n    }\n\n    function balanceOf(address owner) override external view returns (uint256 balance) {\n        balance = balances[owner];\n    }\n\n    function totalSupply() override external view returns (uint256 total) {\n        total = kitties.length;\n    }\n\n    function ownerOf(uint256 tokenId) override external view returns (address owner) {\n        require(tokenId < kitties.length, \"Token doesn't exist\");\n\n        owner = kittyOwner[tokenId];\n    }\n\n    function transfer(address to, uint256 tokenId) override external {\n        require(to != address(0));\n        require(to != address(this));\n        require(tokenId < kitties.length, \"Token doesn't exist\");\n        require(_owns(msg.sender, tokenId), \"You don't own this token\");\n\n        _transfer(msg.sender, to, tokenId);\n    }\n\n    function safeTransferFrom(address _from, address _to, uint256 _tokenId, bytes memory data) override external {\n        require(_tokenId < kitties.length, \"Token doesn't exist\");\n        require(_isApproved(msg.sender, _tokenId), \"You are not authorize to transfer this token\");\n        require(_owns(_from, _tokenId), \"_from address isn't current owner\");\n        require(_to != address(0), \"_to address is 0 address\");\n\n        _safeTransfer(_from, _to, _tokenId, data);\n    }\n\n    function safeTransferFrom(address _from, address _to, uint256 _tokenId) override external {\n        require(_tokenId < kitties.length, \"Token doesn't exist\");\n        require(_isApproved(msg.sender, _tokenId), \"You are not authorize to transfer this token\");\n        require(_owns(_from, _tokenId), \"_from address isn't current owner\");\n        require(_to != address(0), \"_to address is 0 address\");\n\n        _safeTransfer(_from, _to, _tokenId, \"\");\n    }\n\n    function transferFrom(address _from, address _to, uint256 _tokenId) override external {\n        require(_tokenId < kitties.length, \"Token doesn't exist\");\n        require(_isApproved(msg.sender, _tokenId), \"You are not authorize to transfer this token\");\n        require(_owns(_from, _tokenId), \"_from address isn't current owner\");\n        require(_to != address(0), \"_to address is 0 address\");\n\n        _transfer(_from, _to, _tokenId);\n    }\n\n    function approve(address _approved, uint256 _tokenId) override external {\n        require(_tokenId < kitties.length, \"Token doesn't exist\");\n        require(_owns(msg.sender, _tokenId), \"You don't own this token\");\n\n        approvals[_tokenId] = _approved;\n\n        emit Approval(msg.sender, _approved, _tokenId);\n    }\n\n    function setApprovalForAll(address _operator, bool _approved) override external {\n        require(msg.sender != _operator);\n\n        approvalsForAll[msg.sender][_operator] = _approved;\n\n        emit ApprovalForAll(msg.sender, _operator, _approved);\n    }\n\n    function getApproved(uint256 _tokenId) override external view returns (address) {\n        require(_tokenId < kitties.length, \"Token doesn't exist\");\n\n        return approvals[_tokenId];\n    }\n\n    function isApprovedForAll(address _owner, address _operator) override external view returns (bool) {\n        return approvalsForAll[_owner][_operator];\n    }\n\n    function createKittyGen0(string memory dna) onlyOwner public returns(uint256) {\n        return _createKitty(dna, 0, 0, 0, msg.sender);\n    }\n\n    function getKitty(uint256 tokenId) view external returns (\n        string memory dna,\n        uint256 birthTime,\n        uint256 mumId,\n        uint256 dadId,\n        uint256 generation,\n        address owner) {\n\n        Kitty storage k = kitties[tokenId];\n\n        dna = k.dna;\n        birthTime = uint256(k.birthTime);\n        mumId = uint256(k.mumId);\n        dadId = uint256(k.dadId);\n        generation = uint256(k.generation);\n        owner = kittyOwner[tokenId];\n    }\n\n    function breed(uint256 dadId, uint256 mumId) external returns(uint256) {\n        require(_owns(msg.sender, dadId));\n        require(_owns(msg.sender, mumId));\n\n        string storage mumDna = kitties[mumId].dna;\n        string storage dadDna = kitties[dadId].dna;\n\n        string memory newDna = _mixDna(mumDna, dadDna);\n        uint256 generation = (kitties[mumId].generation + kitties[dadId].generation)/2;\n\n        return _createKitty(newDna, mumId, dadId, generation, msg.sender);\n    }\n\n    function getMyKittyIds() external view returns(uint[] memory) {\n        uint[] memory senderKitties = new uint[](kitties.length);\n        uint index = 0;\n\n        for (uint i = 0; i < kitties.length; i++) {\n            if (_owns(msg.sender, i)) {\n                senderKitties[index] = i;\n                index = index + 1;\n            }\n        }\n\n        return senderKitties;\n    }\n\n    function _mixDna(string memory mumDna, string memory dadDna) internal pure returns(string memory) {\n        bytes memory mumDnaBytes = bytes(mumDna);\n        bytes memory dadDnaBytes = bytes(dadDna);\n        bytes memory result = new bytes(32);\n\n        for (uint i = 0; i < 6; i++) {\n            result[i] = mumDnaBytes[i];\n        }\n\n        for (uint i = 6; i < 12; i++) {\n            result[i] = dadDnaBytes[i];\n        }\n\n        for (uint i = 12; i < 18; i++) {\n            result[i] = dadDnaBytes[i];\n        }\n\n        for (uint i = 18; i < 24; i++) {\n            result[i] = dadDnaBytes[i];\n        }\n\n        for (uint i = 24; i < 30; i++) {\n            result[i] = mumDnaBytes[i];\n        }\n\n        result[30] = dadDnaBytes[30];\n        result[31] = mumDnaBytes[31];\n\n        return string(result);\n    }\n\n    function _createKitty(\n        string memory _dna,\n        uint256 _mumId,\n        uint256 _dadId,\n        uint256 _generation,\n        address _owner) internal returns(uint256) {\n\n        Kitty memory kitty = Kitty({\n            dna: _dna,\n            birthTime: uint64(block.timestamp),\n            mumId: uint32(_mumId),\n            dadId: uint32(_dadId),\n            generation: uint16(_generation)\n        });\n\n        kitties.push(kitty);\n        uint256 kittyId = kitties.length - 1;\n\n        emit Birth(_owner, _mumId, _dadId, _dna);\n\n        _transfer(address(0), _owner, kittyId);\n\n        return kittyId;\n    }\n\n    function _safeTransfer(address _from, address _to, uint256 _tokenId, bytes memory data) internal {\n        _transfer(_from, _to, _tokenId);\n        require(_checkAddress(_from, _to, _tokenId, data));\n    }\n\n    function _transfer(address from, address to, uint256 tokenId) internal {\n        kittyOwner[tokenId] = to;\n        balances[to] += 1;\n        if (from != address(0)) {\n            balances[msg.sender] -= 1;\n            delete approvals[tokenId];\n        }\n\n        emit Transfer(msg.sender, to, tokenId);\n    }\n\n    function _checkAddress(address _from, address _to, uint256 _tokenId, bytes memory data) internal returns(bool) {\n        if (!_isSmartContract(_to)) {\n            return true;\n        }\n\n        IERC721Receiver receiver = IERC721Receiver(_to);\n        bytes4 result = receiver.onERC721Received(msg.sender, _from, _tokenId, data);\n\n        return bytes4(keccak256(\"onERC721Received(address,address,uint256,bytes)\")) == result;\n    }\n\n    function _isSmartContract(address _to) internal view returns(bool) {\n        uint code;\n        assembly {\n            code := extcodesize(_to)\n        }\n\n        return code > 0;\n    }\n\n    function _isApproved(address claimant, uint256 tokenId) internal view returns(bool) {\n        return _owns(claimant, tokenId) ||\n                approvals[tokenId] == claimant ||\n                approvalsForAll[kittyOwner[tokenId]][claimant];\n    }\n\n    function _owns(address claimant, uint256 tokenId) internal view returns(bool) {\n        return kittyOwner[tokenId] == claimant;\n    }\n}\n",
  "sourcePath": "/Users/michal/Documents/workspace/myCryptoKitties/smartcontract/contracts/Kittycontract.sol",
  "compiler": {
    "name": "solc",
    "version": "0.8.4+commit.c7e474f2.Emscripten.clang"
  },
  "schemaVersion": "3.3.4",
  "updatedAt": "2021-05-11T06:55:53.230Z",
  "networkType": "ethereum",
  "devdoc": {
    "kind": "dev",
    "methods": {
      "approve(address,uint256)": {
        "details": "The zero address indicates there is no approved address.  Throws unless `msg.sender` is the current NFT owner, or an authorized  operator of the current owner.",
        "params": {
          "_approved": "The new approved NFT controller",
          "_tokenId": "The NFT to approve"
        }
      },
      "balanceOf(address)": {
        "details": "Returns the number of tokens in ``owner``'s account."
      },
      "getApproved(uint256)": {
        "details": "Throws if `_tokenId` is not a valid NFT.",
        "params": {
          "_tokenId": "The NFT to find the approved address for"
        },
        "returns": {
          "_0": "The approved address for this NFT, or the zero address if there is none"
        }
      },
      "isApprovedForAll(address,address)": {
        "params": {
          "_operator": "The address that acts on behalf of the owner",
          "_owner": "The address that owns the NFTs"
        },
        "returns": {
          "_0": "True if `_operator` is an approved operator for `_owner`, false otherwise"
        }
      },
      "owner()": {
        "details": "Returns the address of the current owner."
      },
      "ownerOf(uint256)": {
        "details": "Returns the owner of the `tokenId` token. Requirements: - `tokenId` must exist."
      },
      "renounceOwnership()": {
        "details": "Leaves the contract without owner. It will not be possible to call `onlyOwner` functions anymore. Can only be called by the current owner. NOTE: Renouncing ownership will leave the contract without an owner, thereby removing any functionality that is only available to the owner."
      },
      "safeTransferFrom(address,address,uint256)": {
        "details": "This works identically to the other function with an extra data parameter,  except this function just sets data to \"\".",
        "params": {
          "_from": "The current owner of the NFT",
          "_to": "The new owner",
          "_tokenId": "The NFT to transfer"
        }
      },
      "safeTransferFrom(address,address,uint256,bytes)": {
        "details": "Throws unless `msg.sender` is the current owner, an authorized  operator, or the approved address for this NFT. Throws if `_from` is  not the current owner. Throws if `_to` is the zero address. Throws if  `_tokenId` is not a valid NFT. When transfer is complete, this function  checks if `_to` is a smart contract (code size > 0). If so, it calls  `onERC721Received` on `_to` and throws if the return value is not  `bytes4(keccak256(\"onERC721Received(address,address,uint256,bytes)\"))`.",
        "params": {
          "_from": "The current owner of the NFT",
          "_to": "The new owner",
          "_tokenId": "The NFT to transfer",
          "data": "Additional data with no specified format, sent in call to `_to`"
        }
      },
      "setApprovalForAll(address,bool)": {
        "details": "Emits the ApprovalForAll event. The contract MUST allow  multiple operators per owner.",
        "params": {
          "_approved": "True if the operator is approved, false to revoke approval",
          "_operator": "Address to add to the set of authorized operators"
        }
      },
      "transferFrom(address,address,uint256)": {
        "details": "Throws unless `msg.sender` is the current owner, an authorized  operator, or the approved address for this NFT. Throws if `_from` is  not the current owner. Throws if `_to` is the zero address. Throws if  `_tokenId` is not a valid NFT.",
        "params": {
          "_from": "The current owner of the NFT",
          "_to": "The new owner",
          "_tokenId": "The NFT to transfer"
        }
      },
      "transferOwnership(address)": {
        "details": "Transfers ownership of the contract to a new account (`newOwner`). Can only be called by the current owner."
      }
    },
    "version": 1
  },
  "userdoc": {
    "kind": "user",
    "methods": {
      "approve(address,uint256)": {
        "notice": "Change or reaffirm the approved address for an NFT"
      },
      "getApproved(uint256)": {
        "notice": "Get the approved address for a single NFT"
      },
      "isApprovedForAll(address,address)": {
        "notice": "Query if an address is an authorized operator for another address"
      },
      "safeTransferFrom(address,address,uint256)": {
        "notice": "Transfers the ownership of an NFT from one address to another address"
      },
      "safeTransferFrom(address,address,uint256,bytes)": {
        "notice": "Transfers the ownership of an NFT from one address to another address"
      },
      "setApprovalForAll(address,bool)": {
        "notice": "Enable or disable approval for a third party (\"operator\") to manage  all of `msg.sender`'s assets"
      },
      "transferFrom(address,address,uint256)": {
        "notice": "Transfer ownership of an NFT -- THE CALLER IS RESPONSIBLE  TO CONFIRM THAT `_to` IS CAPABLE OF RECEIVING NFTS OR ELSE  THEY MAY BE PERMANENTLY LOST"
      }
    },
    "version": 1
  }
}