{
  "contractName": "Kittycontract",
  "abi": [
    {
      "anonymous": false,
      "inputs": [
        {
          "indexed": true,
          "internalType": "address",
          "name": "owner",
          "type": "address"
        },
        {
          "indexed": true,
          "internalType": "address",
          "name": "approved",
          "type": "address"
        },
        {
          "indexed": true,
          "internalType": "uint256",
          "name": "tokenId",
          "type": "uint256"
        }
      ],
      "name": "Approval",
      "type": "event"
    },
    {
      "anonymous": false,
      "inputs": [
        {
          "indexed": true,
          "internalType": "address",
          "name": "owner",
          "type": "address"
        },
        {
          "indexed": true,
          "internalType": "address",
          "name": "operator",
          "type": "address"
        },
        {
          "indexed": false,
          "internalType": "bool",
          "name": "approved",
          "type": "bool"
        }
      ],
      "name": "ApprovalForAll",
      "type": "event"
    },
    {
      "anonymous": false,
      "inputs": [
        {
          "indexed": false,
          "internalType": "address",
          "name": "owner",
          "type": "address"
        },
        {
          "indexed": false,
          "internalType": "uint256",
          "name": "mumId",
          "type": "uint256"
        },
        {
          "indexed": false,
          "internalType": "uint256",
          "name": "dadId",
          "type": "uint256"
        },
        {
          "indexed": false,
          "internalType": "string",
          "name": "dna",
          "type": "string"
        }
      ],
      "name": "Birth",
      "type": "event"
    },
    {
      "anonymous": false,
      "inputs": [
        {
          "indexed": true,
          "internalType": "address",
          "name": "previousOwner",
          "type": "address"
        },
        {
          "indexed": true,
          "internalType": "address",
          "name": "newOwner",
          "type": "address"
        }
      ],
      "name": "OwnershipTransferred",
      "type": "event"
    },
    {
      "anonymous": false,
      "inputs": [
        {
          "indexed": true,
          "internalType": "address",
          "name": "from",
          "type": "address"
        },
        {
          "indexed": true,
          "internalType": "address",
          "name": "to",
          "type": "address"
        },
        {
          "indexed": true,
          "internalType": "uint256",
          "name": "tokenId",
          "type": "uint256"
        }
      ],
      "name": "Transfer",
      "type": "event"
    },
    {
      "inputs": [
        {
          "internalType": "uint256",
          "name": "",
          "type": "uint256"
        }
      ],
      "name": "kittyOwner",
      "outputs": [
        {
          "internalType": "address",
          "name": "",
          "type": "address"
        }
      ],
      "stateMutability": "view",
      "type": "function"
    },
    {
      "inputs": [],
      "name": "name",
      "outputs": [
        {
          "internalType": "string",
          "name": "",
          "type": "string"
        }
      ],
      "stateMutability": "view",
      "type": "function"
    },
    {
      "inputs": [],
      "name": "owner",
      "outputs": [
        {
          "internalType": "address",
          "name": "",
          "type": "address"
        }
      ],
      "stateMutability": "view",
      "type": "function"
    },
    {
      "inputs": [],
      "name": "renounceOwnership",
      "outputs": [],
      "stateMutability": "nonpayable",
      "type": "function"
    },
    {
      "inputs": [],
      "name": "symbol",
      "outputs": [
        {
          "internalType": "string",
          "name": "",
          "type": "string"
        }
      ],
      "stateMutability": "view",
      "type": "function"
    },
    {
      "inputs": [
        {
          "internalType": "address",
          "name": "newOwner",
          "type": "address"
        }
      ],
      "name": "transferOwnership",
      "outputs": [],
      "stateMutability": "nonpayable",
      "type": "function"
    },
    {
      "inputs": [
        {
          "internalType": "bytes4",
          "name": "_interfaceId",
          "type": "bytes4"
        }
      ],
      "name": "supportsInterface",
      "outputs": [
        {
          "internalType": "bool",
          "name": "",
          "type": "bool"
        }
      ],
      "stateMutability": "pure",
      "type": "function"
    },
    {
      "inputs": [
        {
          "internalType": "address",
          "name": "owner",
          "type": "address"
        }
      ],
      "name": "balanceOf",
      "outputs": [
        {
          "internalType": "uint256",
          "name": "balance",
          "type": "uint256"
        }
      ],
      "stateMutability": "view",
      "type": "function"
    },
    {
      "inputs": [],
      "name": "totalSupply",
      "outputs": [
        {
          "internalType": "uint256",
          "name": "total",
          "type": "uint256"
        }
      ],
      "stateMutability": "view",
      "type": "function"
    },
    {
      "inputs": [
        {
          "internalType": "uint256",
          "name": "tokenId",
          "type": "uint256"
        }
      ],
      "name": "ownerOf",
      "outputs": [
        {
          "internalType": "address",
          "name": "owner",
          "type": "address"
        }
      ],
      "stateMutability": "view",
      "type": "function"
    },
    {
      "inputs": [
        {
          "internalType": "address",
          "name": "to",
          "type": "address"
        },
        {
          "internalType": "uint256",
          "name": "tokenId",
          "type": "uint256"
        }
      ],
      "name": "transfer",
      "outputs": [],
      "stateMutability": "nonpayable",
      "type": "function"
    },
    {
      "inputs": [
        {
          "internalType": "address",
          "name": "_from",
          "type": "address"
        },
        {
          "internalType": "address",
          "name": "_to",
          "type": "address"
        },
        {
          "internalType": "uint256",
          "name": "_tokenId",
          "type": "uint256"
        }
      ],
      "name": "safeTransferFrom",
      "outputs": [],
      "stateMutability": "nonpayable",
      "type": "function"
    },
    {
      "inputs": [
        {
          "internalType": "address",
          "name": "_from",
          "type": "address"
        },
        {
          "internalType": "address",
          "name": "_to",
          "type": "address"
        },
        {
          "internalType": "uint256",
          "name": "_tokenId",
          "type": "uint256"
        },
        {
          "internalType": "bytes",
          "name": "data",
          "type": "bytes"
        }
      ],
      "name": "safeTransferFrom",
      "outputs": [],
      "stateMutability": "nonpayable",
      "type": "function"
    },
    {
      "inputs": [
        {
          "internalType": "address",
          "name": "_from",
          "type": "address"
        },
        {
          "internalType": "address",
          "name": "_to",
          "type": "address"
        },
        {
          "internalType": "uint256",
          "name": "_tokenId",
          "type": "uint256"
        }
      ],
      "name": "transferFrom",
      "outputs": [],
      "stateMutability": "nonpayable",
      "type": "function"
    },
    {
      "inputs": [
        {
          "internalType": "address",
          "name": "_approved",
          "type": "address"
        },
        {
          "internalType": "uint256",
          "name": "_tokenId",
          "type": "uint256"
        }
      ],
      "name": "approve",
      "outputs": [],
      "stateMutability": "nonpayable",
      "type": "function"
    },
    {
      "inputs": [
        {
          "internalType": "address",
          "name": "_operator",
          "type": "address"
        },
        {
          "internalType": "bool",
          "name": "_approved",
          "type": "bool"
        }
      ],
      "name": "setApprovalForAll",
      "outputs": [],
      "stateMutability": "nonpayable",
      "type": "function"
    },
    {
      "inputs": [
        {
          "internalType": "uint256",
          "name": "_tokenId",
          "type": "uint256"
        }
      ],
      "name": "getApproved",
      "outputs": [
        {
          "internalType": "address",
          "name": "",
          "type": "address"
        }
      ],
      "stateMutability": "view",
      "type": "function"
    },
    {
      "inputs": [
        {
          "internalType": "address",
          "name": "_owner",
          "type": "address"
        },
        {
          "internalType": "address",
          "name": "_operator",
          "type": "address"
        }
      ],
      "name": "isApprovedForAll",
      "outputs": [
        {
          "internalType": "bool",
          "name": "",
          "type": "bool"
        }
      ],
      "stateMutability": "view",
      "type": "function"
    },
    {
      "inputs": [
        {
          "internalType": "string",
          "name": "dna",
          "type": "string"
        }
      ],
      "name": "createKittyGen0",
      "outputs": [
        {
          "internalType": "uint256",
          "name": "",
          "type": "uint256"
        }
      ],
      "stateMutability": "nonpayable",
      "type": "function"
    },
    {
      "inputs": [
        {
          "internalType": "uint256",
          "name": "tokenId",
          "type": "uint256"
        }
      ],
      "name": "getKitty",
      "outputs": [
        {
          "internalType": "string",
          "name": "dna",
          "type": "string"
        },
        {
          "internalType": "uint256",
          "name": "birthTime",
          "type": "uint256"
        },
        {
          "internalType": "uint256",
          "name": "mumId",
          "type": "uint256"
        },
        {
          "internalType": "uint256",
          "name": "dadId",
          "type": "uint256"
        },
        {
          "internalType": "uint256",
          "name": "generation",
          "type": "uint256"
        },
        {
          "internalType": "address",
          "name": "owner",
          "type": "address"
        }
      ],
      "stateMutability": "view",
      "type": "function"
    },
    {
      "inputs": [
        {
          "internalType": "uint256",
          "name": "dadId",
          "type": "uint256"
        },
        {
          "internalType": "uint256",
          "name": "mumId",
          "type": "uint256"
        }
      ],
      "name": "breed",
      "outputs": [
        {
          "internalType": "uint256",
          "name": "",
          "type": "uint256"
        }
      ],
      "stateMutability": "nonpayable",
      "type": "function"
    }
  ],
  "bytecode": "0x608060405234801561001057600080fd5b5060006100216100c460201b60201c565b9050806000806101000a81548173ffffffffffffffffffffffffffffffffffffffff021916908373ffffffffffffffffffffffffffffffffffffffff1602179055508073ffffffffffffffffffffffffffffffffffffffff16600073ffffffffffffffffffffffffffffffffffffffff167f8be0079c531659141344cd1fd0a4f28419497f9722a3daafe3b4186f6b6457e060405160405180910390a3506100cc565b600033905090565b61320480620000dc6000396000f3fe608060405234801561001057600080fd5b50600436106101375760003560e01c80638420f94b116100b8578063b88d4fde1161007c578063b88d4fde1461033a578063cb854ae714610356578063d9ecad7b14610386578063e985e9c5146103b6578063e98b7f4d146103e6578063f2fde38b1461041b57610137565b80638420f94b146102965780638da5cb5b146102c657806395d89b41146102e4578063a22cb46514610302578063a9059cbb1461031e57610137565b806323b872dd116100ff57806323b872dd146101f457806342842e0e146102105780636352211e1461022c57806370a082311461025c578063715018a61461028c57610137565b806301ffc9a71461013c57806306fdde031461016c578063081812fc1461018a578063095ea7b3146101ba57806318160ddd146101d6575b600080fd5b61015660048036038101906101519190612713565b610437565b6040516101639190612a52565b60405180910390f35b6101746104d7565b6040516101819190612a6d565b60405180910390f35b6101a4600480360381019061019f91906127a6565b610510565b6040516101b1919061299f565b60405180910390f35b6101d460048036038101906101cf91906126d7565b610594565b005b6101de6106d5565b6040516101eb9190612bd7565b60405180910390f35b61020e600480360381019061020991906125d1565b6106e2565b005b61022a600480360381019061022591906125d1565b61083b565b005b610246600480360381019061024191906127a6565b6109a4565b604051610253919061299f565b60405180910390f35b6102766004803603810190610271919061256c565b610a28565b6040516102839190612bd7565b60405180910390f35b610294610a71565b005b6102b060048036038101906102ab9190612765565b610bab565b6040516102bd9190612bd7565b60405180910390f35b6102ce610c3f565b6040516102db919061299f565b60405180910390f35b6102ec610c68565b6040516102f99190612a6d565b60405180910390f35b61031c6004803603810190610317919061269b565b610ca1565b005b610338600480360381019061033391906126d7565b610dd7565b005b610354600480360381019061034f9190612620565b610ee9565b005b610370600480360381019061036b91906127a6565b611044565b60405161037d919061299f565b60405180910390f35b6103a0600480360381019061039b91906127cf565b611077565b6040516103ad9190612bd7565b60405180910390f35b6103d060048036038101906103cb9190612595565b611348565b6040516103dd9190612a52565b60405180910390f35b61040060048036038101906103fb91906127a6565b6113dc565b60405161041296959493929190612a8f565b60405180910390f35b6104356004803603810190610430919061256c565b611578565b005b60006380ac58cd60e01b7bffffffffffffffffffffffffffffffffffffffffffffffffffffffff1916827bffffffffffffffffffffffffffffffffffffffffffffffffffffffff191614806104d057506301ffc9a760e01b7bffffffffffffffffffffffffffffffffffffffffffffffffffffffff1916827bffffffffffffffffffffffffffffffffffffffffffffffffffffffff1916145b9050919050565b6040518060400160405280600d81526020017f4d696368616c4b6974746965730000000000000000000000000000000000000081525081565b60006005805490508210610559576040517f08c379a000000000000000000000000000000000000000000000000000000000815260040161055090612af7565b60405180910390fd5b6003600083815260200190815260200160002060009054906101000a900473ffffffffffffffffffffffffffffffffffffffff169050919050565b60058054905081106105db576040517f08c379a00000000000000000000000000000000000000000000000000000000081526004016105d290612af7565b60405180910390fd5b6105e53382611721565b610624576040517f08c379a000000000000000000000000000000000000000000000000000000000815260040161061b90612b77565b60405180910390fd5b816003600083815260200190815260200160002060006101000a81548173ffffffffffffffffffffffffffffffffffffffff021916908373ffffffffffffffffffffffffffffffffffffffff160217905550808273ffffffffffffffffffffffffffffffffffffffff163373ffffffffffffffffffffffffffffffffffffffff167f8c5be1e5ebec7d5bd14f71427d1e84f3dd0314c0f7b2291e5b200ac8c7c3b92560405160405180910390a45050565b6000600580549050905090565b6005805490508110610729576040517f08c379a000000000000000000000000000000000000000000000000000000000815260040161072090612af7565b60405180910390fd5b610733338261178d565b610772576040517f08c379a000000000000000000000000000000000000000000000000000000000815260040161076990612b17565b60405180910390fd5b61077c8382611721565b6107bb576040517f08c379a00000000000000000000000000000000000000000000000000000000081526004016107b290612bb7565b60405180910390fd5b600073ffffffffffffffffffffffffffffffffffffffff168273ffffffffffffffffffffffffffffffffffffffff16141561082b576040517f08c379a000000000000000000000000000000000000000000000000000000000815260040161082290612b57565b60405180910390fd5b6108368383836118ce565b505050565b6005805490508110610882576040517f08c379a000000000000000000000000000000000000000000000000000000000815260040161087990612af7565b60405180910390fd5b61088c338261178d565b6108cb576040517f08c379a00000000000000000000000000000000000000000000000000000000081526004016108c290612b17565b60405180910390fd5b6108d58382611721565b610914576040517f08c379a000000000000000000000000000000000000000000000000000000000815260040161090b90612bb7565b60405180910390fd5b600073ffffffffffffffffffffffffffffffffffffffff168273ffffffffffffffffffffffffffffffffffffffff161415610984576040517f08c379a000000000000000000000000000000000000000000000000000000000815260040161097b90612b57565b60405180910390fd5b61099f83838360405180602001604052806000815250611a99565b505050565b600060058054905082106109ed576040517f08c379a00000000000000000000000000000000000000000000000000000000081526004016109e490612af7565b60405180910390fd5b6001600083815260200190815260200160002060009054906101000a900473ffffffffffffffffffffffffffffffffffffffff169050919050565b6000600260008373ffffffffffffffffffffffffffffffffffffffff1673ffffffffffffffffffffffffffffffffffffffff168152602001908152602001600020549050919050565b610a79611abf565b73ffffffffffffffffffffffffffffffffffffffff16610a97610c3f565b73ffffffffffffffffffffffffffffffffffffffff1614610aed576040517f08c379a0000000000000000000000000000000000000000000000000000000008152600401610ae490612b97565b60405180910390fd5b600073ffffffffffffffffffffffffffffffffffffffff1660008054906101000a900473ffffffffffffffffffffffffffffffffffffffff1673ffffffffffffffffffffffffffffffffffffffff167f8be0079c531659141344cd1fd0a4f28419497f9722a3daafe3b4186f6b6457e060405160405180910390a360008060006101000a81548173ffffffffffffffffffffffffffffffffffffffff021916908373ffffffffffffffffffffffffffffffffffffffff160217905550565b6000610bb5611abf565b73ffffffffffffffffffffffffffffffffffffffff16610bd3610c3f565b73ffffffffffffffffffffffffffffffffffffffff1614610c29576040517f08c379a0000000000000000000000000000000000000000000000000000000008152600401610c2090612b97565b60405180910390fd5b610c3882600080600033611ac7565b9050919050565b60008060009054906101000a900473ffffffffffffffffffffffffffffffffffffffff16905090565b6040518060400160405280600481526020017f4d4b49540000000000000000000000000000000000000000000000000000000081525081565b8173ffffffffffffffffffffffffffffffffffffffff163373ffffffffffffffffffffffffffffffffffffffff161415610cda57600080fd5b80600460003373ffffffffffffffffffffffffffffffffffffffff1673ffffffffffffffffffffffffffffffffffffffff16815260200190815260200160002060008473ffffffffffffffffffffffffffffffffffffffff1673ffffffffffffffffffffffffffffffffffffffff16815260200190815260200160002060006101000a81548160ff0219169083151502179055508173ffffffffffffffffffffffffffffffffffffffff163373ffffffffffffffffffffffffffffffffffffffff167f17307eab39ab6107e8899845ad3d59bd9653f200f220920489ca2b5937696c3183604051610dcb9190612a52565b60405180910390a35050565b600073ffffffffffffffffffffffffffffffffffffffff168273ffffffffffffffffffffffffffffffffffffffff161415610e1157600080fd5b3073ffffffffffffffffffffffffffffffffffffffff168273ffffffffffffffffffffffffffffffffffffffff161415610e4a57600080fd5b6005805490508110610e91576040517f08c379a0000000000000000000000000000000000000000000000000000000008152600401610e8890612af7565b60405180910390fd5b610e9b3382611721565b610eda576040517f08c379a0000000000000000000000000000000000000000000000000000000008152600401610ed190612b77565b60405180910390fd5b610ee53383836118ce565b5050565b6005805490508210610f30576040517f08c379a0000000000000000000000000000000000000000000000000000000008152600401610f2790612af7565b60405180910390fd5b610f3a338361178d565b610f79576040517f08c379a0000000000000000000000000000000000000000000000000000000008152600401610f7090612b17565b60405180910390fd5b610f838483611721565b610fc2576040517f08c379a0000000000000000000000000000000000000000000000000000000008152600401610fb990612bb7565b60405180910390fd5b600073ffffffffffffffffffffffffffffffffffffffff168373ffffffffffffffffffffffffffffffffffffffff161415611032576040517f08c379a000000000000000000000000000000000000000000000000000000000815260040161102990612b57565b60405180910390fd5b61103e84848484611a99565b50505050565b60016020528060005260406000206000915054906101000a900473ffffffffffffffffffffffffffffffffffffffff1681565b60006110833384611721565b61108c57600080fd5b6110963383611721565b61109f57600080fd5b6000600583815481106110db577f4e487b7100000000000000000000000000000000000000000000000000000000600052603260045260246000fd5b9060005260206000209060020201600001905060006005858154811061112a577f4e487b7100000000000000000000000000000000000000000000000000000000600052603260045260246000fd5b90600052602060002090600202016000019050600061125b83805461114e90612e68565b80601f016020809104026020016040519081016040528092919081815260200182805461117a90612e68565b80156111c75780601f1061119c576101008083540402835291602001916111c7565b820191906000526020600020905b8154815290600101906020018083116111aa57829003601f168201915b50505050508380546111d890612e68565b80601f016020809104026020016040519081016040528092919081815260200182805461120490612e68565b80156112515780601f1061122657610100808354040283529160200191611251565b820191906000526020600020905b81548152906001019060200180831161123457829003601f168201915b5050505050611c65565b9050600060026005888154811061129b577f4e487b7100000000000000000000000000000000000000000000000000000000600052603260045260246000fd5b906000526020600020906002020160010160109054906101000a900461ffff16600588815481106112f5577f4e487b7100000000000000000000000000000000000000000000000000000000600052603260045260246000fd5b906000526020600020906002020160010160109054906101000a900461ffff1661131f9190612cb1565b6113299190612d3f565b61ffff16905061133c8287898433611ac7565b94505050505092915050565b6000600460008473ffffffffffffffffffffffffffffffffffffffff1673ffffffffffffffffffffffffffffffffffffffff16815260200190815260200160002060008373ffffffffffffffffffffffffffffffffffffffff1673ffffffffffffffffffffffffffffffffffffffff16815260200190815260200160002060009054906101000a900460ff16905092915050565b606060008060008060008060058881548110611421577f4e487b7100000000000000000000000000000000000000000000000000000000600052603260045260246000fd5b9060005260206000209060020201905080600001805461144090612e68565b80601f016020809104026020016040519081016040528092919081815260200182805461146c90612e68565b80156114b95780601f1061148e576101008083540402835291602001916114b9565b820191906000526020600020905b81548152906001019060200180831161149c57829003601f168201915b505050505096508060010160009054906101000a900467ffffffffffffffff1667ffffffffffffffff1695508060010160089054906101000a900463ffffffff1663ffffffff16945080600101600c9054906101000a900463ffffffff1663ffffffff1693508060010160109054906101000a900461ffff1661ffff1692506001600089815260200190815260200160002060009054906101000a900473ffffffffffffffffffffffffffffffffffffffff1691505091939550919395565b611580611abf565b73ffffffffffffffffffffffffffffffffffffffff1661159e610c3f565b73ffffffffffffffffffffffffffffffffffffffff16146115f4576040517f08c379a00000000000000000000000000000000000000000000000000000000081526004016115eb90612b97565b60405180910390fd5b600073ffffffffffffffffffffffffffffffffffffffff168173ffffffffffffffffffffffffffffffffffffffff161415611664576040517f08c379a000000000000000000000000000000000000000000000000000000000815260040161165b90612b37565b60405180910390fd5b8073ffffffffffffffffffffffffffffffffffffffff1660008054906101000a900473ffffffffffffffffffffffffffffffffffffffff1673ffffffffffffffffffffffffffffffffffffffff167f8be0079c531659141344cd1fd0a4f28419497f9722a3daafe3b4186f6b6457e060405160405180910390a3806000806101000a81548173ffffffffffffffffffffffffffffffffffffffff021916908373ffffffffffffffffffffffffffffffffffffffff16021790555050565b60008273ffffffffffffffffffffffffffffffffffffffff166001600084815260200190815260200160002060009054906101000a900473ffffffffffffffffffffffffffffffffffffffff1673ffffffffffffffffffffffffffffffffffffffff1614905092915050565b60006117998383611721565b8061180257508273ffffffffffffffffffffffffffffffffffffffff166003600084815260200190815260200160002060009054906101000a900473ffffffffffffffffffffffffffffffffffffffff1673ffffffffffffffffffffffffffffffffffffffff16145b806118c65750600460006001600085815260200190815260200160002060009054906101000a900473ffffffffffffffffffffffffffffffffffffffff1673ffffffffffffffffffffffffffffffffffffffff1673ffffffffffffffffffffffffffffffffffffffff16815260200190815260200160002060008473ffffffffffffffffffffffffffffffffffffffff1673ffffffffffffffffffffffffffffffffffffffff16815260200190815260200160002060009054906101000a900460ff165b905092915050565b816001600083815260200190815260200160002060006101000a81548173ffffffffffffffffffffffffffffffffffffffff021916908373ffffffffffffffffffffffffffffffffffffffff1602179055506001600260008473ffffffffffffffffffffffffffffffffffffffff1673ffffffffffffffffffffffffffffffffffffffff16815260200190815260200160002060008282546119709190612ce9565b92505081905550600073ffffffffffffffffffffffffffffffffffffffff168373ffffffffffffffffffffffffffffffffffffffff1614611a39576001600260003373ffffffffffffffffffffffffffffffffffffffff1673ffffffffffffffffffffffffffffffffffffffff16815260200190815260200160002060008282546119fb9190612d70565b925050819055506003600082815260200190815260200160002060006101000a81549073ffffffffffffffffffffffffffffffffffffffff02191690555b808273ffffffffffffffffffffffffffffffffffffffff163373ffffffffffffffffffffffffffffffffffffffff167fddf252ad1be2c89b69c2b068fc378daa952ba7f163c4a11628f55a4df523b3ef60405160405180910390a4505050565b611aa48484846118ce565b611ab08484848461225d565b611ab957600080fd5b50505050565b600033905090565b6000806040518060a001604052808881526020014267ffffffffffffffff1681526020018763ffffffff1681526020018663ffffffff1681526020018561ffff16815250905060058190806001815401808255809150506001900390600052602060002090600202016000909190919091506000820151816000019080519060200190611b55929190612390565b5060208201518160010160006101000a81548167ffffffffffffffff021916908367ffffffffffffffff16021790555060408201518160010160086101000a81548163ffffffff021916908363ffffffff160217905550606082015181600101600c6101000a81548163ffffffff021916908363ffffffff16021790555060808201518160010160106101000a81548161ffff021916908361ffff160217905550505060006001600580549050611c0c9190612d70565b90507f57bdfedb3ab59e29d46157723e7f15e09b7b59531c13d298d3ed65c34db2b6aa8488888b604051611c439493929190612a06565b60405180910390a1611c57600085836118ce565b809250505095945050505050565b6060600083905060008390506000602067ffffffffffffffff811115611cb4577f4e487b7100000000000000000000000000000000000000000000000000000000600052604160045260246000fd5b6040519080825280601f01601f191660200182016040528015611ce65781602001600182028036833780820191505090505b50905060005b6006811015611db457838181518110611d2e577f4e487b7100000000000000000000000000000000000000000000000000000000600052603260045260246000fd5b602001015160f81c60f81b828281518110611d72577f4e487b7100000000000000000000000000000000000000000000000000000000600052603260045260246000fd5b60200101907effffffffffffffffffffffffffffffffffffffffffffffffffffffffffffff1916908160001a9053508080611dac90612ecb565b915050611cec565b506000600690505b600c811015611e8457828181518110611dfe577f4e487b7100000000000000000000000000000000000000000000000000000000600052603260045260246000fd5b602001015160f81c60f81b828281518110611e42577f4e487b7100000000000000000000000000000000000000000000000000000000600052603260045260246000fd5b60200101907effffffffffffffffffffffffffffffffffffffffffffffffffffffffffffff1916908160001a9053508080611e7c90612ecb565b915050611dbc565b506000600c90505b6012811015611f5457828181518110611ece577f4e487b7100000000000000000000000000000000000000000000000000000000600052603260045260246000fd5b602001015160f81c60f81b828281518110611f12577f4e487b7100000000000000000000000000000000000000000000000000000000600052603260045260246000fd5b60200101907effffffffffffffffffffffffffffffffffffffffffffffffffffffffffffff1916908160001a9053508080611f4c90612ecb565b915050611e8c565b506000601290505b601881101561202457828181518110611f9e577f4e487b7100000000000000000000000000000000000000000000000000000000600052603260045260246000fd5b602001015160f81c60f81b828281518110611fe2577f4e487b7100000000000000000000000000000000000000000000000000000000600052603260045260246000fd5b60200101907effffffffffffffffffffffffffffffffffffffffffffffffffffffffffffff1916908160001a905350808061201c90612ecb565b915050611f5c565b506000601890505b601e8110156120f45783818151811061206e577f4e487b7100000000000000000000000000000000000000000000000000000000600052603260045260246000fd5b602001015160f81c60f81b8282815181106120b2577f4e487b7100000000000000000000000000000000000000000000000000000000600052603260045260246000fd5b60200101907effffffffffffffffffffffffffffffffffffffffffffffffffffffffffffff1916908160001a90535080806120ec90612ecb565b91505061202c565b5081601e8151811061212f577f4e487b7100000000000000000000000000000000000000000000000000000000600052603260045260246000fd5b602001015160f81c60f81b81601e81518110612174577f4e487b7100000000000000000000000000000000000000000000000000000000600052603260045260246000fd5b60200101907effffffffffffffffffffffffffffffffffffffffffffffffffffffffffffff1916908160001a90535082601f815181106121dd577f4e487b7100000000000000000000000000000000000000000000000000000000600052603260045260246000fd5b602001015160f81c60f81b81601f81518110612222577f4e487b7100000000000000000000000000000000000000000000000000000000600052603260045260246000fd5b60200101907effffffffffffffffffffffffffffffffffffffffffffffffffffffffffffff1916908160001a90535080935050505092915050565b60006122688461237d565b6122755760019050612375565b600084905060008173ffffffffffffffffffffffffffffffffffffffff1663150b7a02338988886040518563ffffffff1660e01b81526004016122bb94939291906129ba565b602060405180830381600087803b1580156122d557600080fd5b505af11580156122e9573d6000803e3d6000fd5b505050506040513d601f19601f8201168201806040525081019061230d919061273c565b9050807bffffffffffffffffffffffffffffffffffffffffffffffffffffffff19167f150b7a023d4804d13e8c85fb27262cb750cf6ba9f9dd3bb30d90f482ceeb4b1f7bffffffffffffffffffffffffffffffffffffffffffffffffffffffff191614925050505b949350505050565b600080823b905060008111915050919050565b82805461239c90612e68565b90600052602060002090601f0160209004810192826123be5760008555612405565b82601f106123d757805160ff1916838001178555612405565b82800160010185558215612405579182015b828111156124045782518255916020019190600101906123e9565b5b5090506124129190612416565b5090565b5b8082111561242f576000816000905550600101612417565b5090565b600061244661244184612c17565b612bf2565b90508281526020810184848401111561245e57600080fd5b612469848285612e26565b509392505050565b600061248461247f84612c48565b612bf2565b90508281526020810184848401111561249c57600080fd5b6124a7848285612e26565b509392505050565b6000813590506124be81613172565b92915050565b6000813590506124d381613189565b92915050565b6000813590506124e8816131a0565b92915050565b6000815190506124fd816131a0565b92915050565b600082601f83011261251457600080fd5b8135612524848260208601612433565b91505092915050565b600082601f83011261253e57600080fd5b813561254e848260208601612471565b91505092915050565b600081359050612566816131b7565b92915050565b60006020828403121561257e57600080fd5b600061258c848285016124af565b91505092915050565b600080604083850312156125a857600080fd5b60006125b6858286016124af565b92505060206125c7858286016124af565b9150509250929050565b6000806000606084860312156125e657600080fd5b60006125f4868287016124af565b9350506020612605868287016124af565b925050604061261686828701612557565b9150509250925092565b6000806000806080858703121561263657600080fd5b6000612644878288016124af565b9450506020612655878288016124af565b935050604061266687828801612557565b925050606085013567ffffffffffffffff81111561268357600080fd5b61268f87828801612503565b91505092959194509250565b600080604083850312156126ae57600080fd5b60006126bc858286016124af565b92505060206126cd858286016124c4565b9150509250929050565b600080604083850312156126ea57600080fd5b60006126f8858286016124af565b925050602061270985828601612557565b9150509250929050565b60006020828403121561272557600080fd5b6000612733848285016124d9565b91505092915050565b60006020828403121561274e57600080fd5b600061275c848285016124ee565b91505092915050565b60006020828403121561277757600080fd5b600082013567ffffffffffffffff81111561279157600080fd5b61279d8482850161252d565b91505092915050565b6000602082840312156127b857600080fd5b60006127c684828501612557565b91505092915050565b600080604083850312156127e257600080fd5b60006127f085828601612557565b925050602061280185828601612557565b9150509250929050565b61281481612da4565b82525050565b61282381612db6565b82525050565b600061283482612c79565b61283e8185612c8f565b935061284e818560208601612e35565b61285781612fd0565b840191505092915050565b600061286d82612c84565b6128778185612ca0565b9350612887818560208601612e35565b61289081612fd0565b840191505092915050565b60006128a8601383612ca0565b91506128b382612fe1565b602082019050919050565b60006128cb602c83612ca0565b91506128d68261300a565b604082019050919050565b60006128ee602683612ca0565b91506128f982613059565b604082019050919050565b6000612911601883612ca0565b915061291c826130a8565b602082019050919050565b6000612934601883612ca0565b915061293f826130d1565b602082019050919050565b6000612957602083612ca0565b9150612962826130fa565b602082019050919050565b600061297a602183612ca0565b915061298582613123565b604082019050919050565b61299981612e1c565b82525050565b60006020820190506129b4600083018461280b565b92915050565b60006080820190506129cf600083018761280b565b6129dc602083018661280b565b6129e96040830185612990565b81810360608301526129fb8184612829565b905095945050505050565b6000608082019050612a1b600083018761280b565b612a286020830186612990565b612a356040830185612990565b8181036060830152612a478184612862565b905095945050505050565b6000602082019050612a67600083018461281a565b92915050565b60006020820190508181036000830152612a878184612862565b905092915050565b600060c0820190508181036000830152612aa98189612862565b9050612ab86020830188612990565b612ac56040830187612990565b612ad26060830186612990565b612adf6080830185612990565b612aec60a083018461280b565b979650505050505050565b60006020820190508181036000830152612b108161289b565b9050919050565b60006020820190508181036000830152612b30816128be565b9050919050565b60006020820190508181036000830152612b50816128e1565b9050919050565b60006020820190508181036000830152612b7081612904565b9050919050565b60006020820190508181036000830152612b9081612927565b9050919050565b60006020820190508181036000830152612bb08161294a565b9050919050565b60006020820190508181036000830152612bd08161296d565b9050919050565b6000602082019050612bec6000830184612990565b92915050565b6000612bfc612c0d565b9050612c088282612e9a565b919050565b6000604051905090565b600067ffffffffffffffff821115612c3257612c31612fa1565b5b612c3b82612fd0565b9050602081019050919050565b600067ffffffffffffffff821115612c6357612c62612fa1565b5b612c6c82612fd0565b9050602081019050919050565b600081519050919050565b600081519050919050565b600082825260208201905092915050565b600082825260208201905092915050565b6000612cbc82612dee565b9150612cc783612dee565b92508261ffff03821115612cde57612cdd612f14565b5b828201905092915050565b6000612cf482612e1c565b9150612cff83612e1c565b9250827fffffffffffffffffffffffffffffffffffffffffffffffffffffffffffffffff03821115612d3457612d33612f14565b5b828201905092915050565b6000612d4a82612dee565b9150612d5583612dee565b925082612d6557612d64612f43565b5b828204905092915050565b6000612d7b82612e1c565b9150612d8683612e1c565b925082821015612d9957612d98612f14565b5b828203905092915050565b6000612daf82612dfc565b9050919050565b60008115159050919050565b60007fffffffff0000000000000000000000000000000000000000000000000000000082169050919050565b600061ffff82169050919050565b600073ffffffffffffffffffffffffffffffffffffffff82169050919050565b6000819050919050565b82818337600083830152505050565b60005b83811015612e53578082015181840152602081019050612e38565b83811115612e62576000848401525b50505050565b60006002820490506001821680612e8057607f821691505b60208210811415612e9457612e93612f72565b5b50919050565b612ea382612fd0565b810181811067ffffffffffffffff82111715612ec257612ec1612fa1565b5b80604052505050565b6000612ed682612e1c565b91507fffffffffffffffffffffffffffffffffffffffffffffffffffffffffffffffff821415612f0957612f08612f14565b5b600182019050919050565b7f4e487b7100000000000000000000000000000000000000000000000000000000600052601160045260246000fd5b7f4e487b7100000000000000000000000000000000000000000000000000000000600052601260045260246000fd5b7f4e487b7100000000000000000000000000000000000000000000000000000000600052602260045260246000fd5b7f4e487b7100000000000000000000000000000000000000000000000000000000600052604160045260246000fd5b6000601f19601f8301169050919050565b7f546f6b656e20646f65736e277420657869737400000000000000000000000000600082015250565b7f596f7520617265206e6f7420617574686f72697a6520746f207472616e73666560008201527f72207468697320746f6b656e0000000000000000000000000000000000000000602082015250565b7f4f776e61626c653a206e6577206f776e657220697320746865207a65726f206160008201527f6464726573730000000000000000000000000000000000000000000000000000602082015250565b7f5f746f2061646472657373206973203020616464726573730000000000000000600082015250565b7f596f7520646f6e2774206f776e207468697320746f6b656e0000000000000000600082015250565b7f4f776e61626c653a2063616c6c6572206973206e6f7420746865206f776e6572600082015250565b7f5f66726f6d20616464726573732069736e27742063757272656e74206f776e6560008201527f7200000000000000000000000000000000000000000000000000000000000000602082015250565b61317b81612da4565b811461318657600080fd5b50565b61319281612db6565b811461319d57600080fd5b50565b6131a981612dc2565b81146131b457600080fd5b50565b6131c081612e1c565b81146131cb57600080fd5b5056fea2646970667358221220ee8fb6a4f0b367155e059be68661b4ea23d35cafcad66ad7be18da69625294a164736f6c63430008040033",
  "immutableReferences": {},
  "source": "// SPDX-License-Identifier: MIT\npragma solidity ^0.8.0;\n\nimport \"./IERC721.sol\";\nimport \"./Ownable.sol\";\nimport \"./IERC721Receiver.sol\";\n\ncontract Kittycontract is IERC721, Ownable {\n\n    string public constant override name = \"MichalKitties\";\n    string public constant override symbol = \"MKIT\";\n\n    bytes4 internal constant _ERC721_INTERFACE_ID = 0x80ac58cd;\n    bytes4 internal constant _ERC165_INTERFACE_ID = 0x01ffc9a7;\n\n    event Birth(address owner, uint256 mumId, uint256 dadId, string dna);\n\n    struct Kitty {\n        string dna;\n        uint64 birthTime;\n        uint32 mumId;\n        uint32 dadId;\n        uint16 generation;\n    }\n\n    mapping(uint256 => address) public kittyOwner;\n    mapping(address => uint256) balances;\n    mapping(uint256 => address) approvals;\n    mapping(address => mapping(address => bool)) approvalsForAll;\n\n    Kitty[] kitties;\n\n    function supportsInterface(bytes4 _interfaceId) external pure returns(bool) {\n        return _interfaceId == _ERC721_INTERFACE_ID || _interfaceId == _ERC165_INTERFACE_ID;\n    }\n\n    function balanceOf(address owner) override external view returns (uint256 balance) {\n        balance = balances[owner];\n    }\n\n    function totalSupply() override external view returns (uint256 total) {\n        total = kitties.length;\n    }\n\n    function ownerOf(uint256 tokenId) override external view returns (address owner) {\n        require(tokenId < kitties.length, \"Token doesn't exist\");\n\n        owner = kittyOwner[tokenId];\n    }\n\n    function transfer(address to, uint256 tokenId) override external {\n        require(to != address(0));\n        require(to != address(this));\n        require(tokenId < kitties.length, \"Token doesn't exist\");\n        require(_owns(msg.sender, tokenId), \"You don't own this token\");\n\n        _transfer(msg.sender, to, tokenId);\n    }\n\n    function safeTransferFrom(address _from, address _to, uint256 _tokenId, bytes memory data) override external {\n        require(_tokenId < kitties.length, \"Token doesn't exist\");\n        require(_isApproved(msg.sender, _tokenId), \"You are not authorize to transfer this token\");\n        require(_owns(_from, _tokenId), \"_from address isn't current owner\");\n        require(_to != address(0), \"_to address is 0 address\");\n\n        _safeTransfer(_from, _to, _tokenId, data);\n    }\n\n    function safeTransferFrom(address _from, address _to, uint256 _tokenId) override external {\n        require(_tokenId < kitties.length, \"Token doesn't exist\");\n        require(_isApproved(msg.sender, _tokenId), \"You are not authorize to transfer this token\");\n        require(_owns(_from, _tokenId), \"_from address isn't current owner\");\n        require(_to != address(0), \"_to address is 0 address\");\n\n        _safeTransfer(_from, _to, _tokenId, \"\");\n    }\n\n    function transferFrom(address _from, address _to, uint256 _tokenId) override external {\n        require(_tokenId < kitties.length, \"Token doesn't exist\");\n        require(_isApproved(msg.sender, _tokenId), \"You are not authorize to transfer this token\");\n        require(_owns(_from, _tokenId), \"_from address isn't current owner\");\n        require(_to != address(0), \"_to address is 0 address\");\n\n        _transfer(_from, _to, _tokenId);\n    }\n\n    function approve(address _approved, uint256 _tokenId) override external {\n        require(_tokenId < kitties.length, \"Token doesn't exist\");\n        require(_owns(msg.sender, _tokenId), \"You don't own this token\");\n\n        approvals[_tokenId] = _approved;\n\n        emit Approval(msg.sender, _approved, _tokenId);\n    }\n\n    function setApprovalForAll(address _operator, bool _approved) override external {\n        require(msg.sender != _operator);\n\n        approvalsForAll[msg.sender][_operator] = _approved;\n\n        emit ApprovalForAll(msg.sender, _operator, _approved);\n    }\n\n    function getApproved(uint256 _tokenId) override external view returns (address) {\n        require(_tokenId < kitties.length, \"Token doesn't exist\");\n\n        return approvals[_tokenId];\n    }\n\n    function isApprovedForAll(address _owner, address _operator) override external view returns (bool) {\n        return approvalsForAll[_owner][_operator];\n    }\n\n    function createKittyGen0(string memory dna) onlyOwner public returns(uint256) {\n        return _createKitty(dna, 0, 0, 0, msg.sender);\n    }\n\n    function getKitty(uint256 tokenId) view external returns (\n        string memory dna,\n        uint256 birthTime,\n        uint256 mumId,\n        uint256 dadId,\n        uint256 generation,\n        address owner) {\n\n        Kitty storage k = kitties[tokenId];\n\n        dna = k.dna;\n        birthTime = uint256(k.birthTime);\n        mumId = uint256(k.mumId);\n        dadId = uint256(k.dadId);\n        generation = uint256(k.generation);\n        owner = kittyOwner[tokenId];\n    }\n\n    function breed(uint256 dadId, uint256 mumId) external returns(uint256) {\n        require(_owns(msg.sender, dadId));\n        require(_owns(msg.sender, mumId));\n\n        string storage mumDna = kitties[mumId].dna;\n        string storage dadDna = kitties[dadId].dna;\n\n        string memory newDna = _mixDna(mumDna, dadDna);\n        uint256 generation = (kitties[mumId].generation + kitties[dadId].generation)/2;\n\n        return _createKitty(newDna, mumId, dadId, generation, msg.sender);\n    }\n\n    function _mixDna(string memory mumDna, string memory dadDna) internal pure returns(string memory) {\n        bytes memory mumDnaBytes = bytes(mumDna);\n        bytes memory dadDnaBytes = bytes(dadDna);\n        bytes memory result = new bytes(32);\n\n        for (uint i = 0; i < 6; i++) {\n            result[i] = mumDnaBytes[i];\n        }\n\n        for (uint i = 6; i < 12; i++) {\n            result[i] = dadDnaBytes[i];\n        }\n\n        for (uint i = 12; i < 18; i++) {\n            result[i] = dadDnaBytes[i];\n        }\n\n        for (uint i = 18; i < 24; i++) {\n            result[i] = dadDnaBytes[i];\n        }\n\n        for (uint i = 24; i < 30; i++) {\n            result[i] = mumDnaBytes[i];\n        }\n\n        result[30] = dadDnaBytes[30];\n        result[31] = mumDnaBytes[31];\n\n        return string(result);\n    }\n\n    function _createKitty(\n        string memory _dna,\n        uint256 _mumId,\n        uint256 _dadId,\n        uint256 _generation,\n        address _owner) internal returns(uint256) {\n\n        Kitty memory kitty = Kitty({\n            dna: _dna,\n            birthTime: uint64(block.timestamp),\n            mumId: uint32(_mumId),\n            dadId: uint32(_dadId),\n            generation: uint16(_generation)\n        });\n\n        kitties.push(kitty);\n        uint256 kittyId = kitties.length - 1;\n\n        emit Birth(_owner, _mumId, _dadId, _dna);\n\n        _transfer(address(0), _owner, kittyId);\n\n        return kittyId;\n    }\n\n    function _safeTransfer(address _from, address _to, uint256 _tokenId, bytes memory data) internal {\n        _transfer(_from, _to, _tokenId);\n        require(_checkAddress(_from, _to, _tokenId, data));\n    }\n\n    function _transfer(address from, address to, uint256 tokenId) internal {\n        kittyOwner[tokenId] = to;\n        balances[to] += 1;\n        if (from != address(0)) {\n            balances[msg.sender] -= 1;\n            delete approvals[tokenId];\n        }\n\n        emit Transfer(msg.sender, to, tokenId);\n    }\n\n    function _checkAddress(address _from, address _to, uint256 _tokenId, bytes memory data) internal returns(bool) {\n        if (!_isSmartContract(_to)) {\n            return true;\n        }\n\n        IERC721Receiver receiver = IERC721Receiver(_to);\n        bytes4 result = receiver.onERC721Received(msg.sender, _from, _tokenId, data);\n\n        return bytes4(keccak256(\"onERC721Received(address,address,uint256,bytes)\")) == result;\n    }\n\n    function _isSmartContract(address _to) internal view returns(bool) {\n        uint code;\n        assembly {\n            code := extcodesize(_to)\n        }\n\n        return code > 0;\n    }\n\n    function _isApproved(address claimant, uint256 tokenId) internal view returns(bool) {\n        return _owns(claimant, tokenId) ||\n                approvals[tokenId] == claimant ||\n                approvalsForAll[kittyOwner[tokenId]][claimant];\n    }\n\n    function _owns(address claimant, uint256 tokenId) internal view returns(bool) {\n        return kittyOwner[tokenId] == claimant;\n    }\n}\n",
  "sourcePath": "/Users/michal/Documents/workspace/myCryptoKitties/smartcontract/contracts/Kittycontract.sol",
  "compiler": {
    "name": "solc",
    "version": "0.8.4+commit.c7e474f2.Emscripten.clang"
  },
  "schemaVersion": "3.3.4",
  "updatedAt": "2021-05-04T19:33:50.563Z",
  "devdoc": {
    "kind": "dev",
    "methods": {
      "approve(address,uint256)": {
        "details": "The zero address indicates there is no approved address.  Throws unless `msg.sender` is the current NFT owner, or an authorized  operator of the current owner.",
        "params": {
          "_approved": "The new approved NFT controller",
          "_tokenId": "The NFT to approve"
        }
      },
      "balanceOf(address)": {
        "details": "Returns the number of tokens in ``owner``'s account."
      },
      "getApproved(uint256)": {
        "details": "Throws if `_tokenId` is not a valid NFT.",
        "params": {
          "_tokenId": "The NFT to find the approved address for"
        },
        "returns": {
          "_0": "The approved address for this NFT, or the zero address if there is none"
        }
      },
      "isApprovedForAll(address,address)": {
        "params": {
          "_operator": "The address that acts on behalf of the owner",
          "_owner": "The address that owns the NFTs"
        },
        "returns": {
          "_0": "True if `_operator` is an approved operator for `_owner`, false otherwise"
        }
      },
      "owner()": {
        "details": "Returns the address of the current owner."
      },
      "ownerOf(uint256)": {
        "details": "Returns the owner of the `tokenId` token. Requirements: - `tokenId` must exist."
      },
      "renounceOwnership()": {
        "details": "Leaves the contract without owner. It will not be possible to call `onlyOwner` functions anymore. Can only be called by the current owner. NOTE: Renouncing ownership will leave the contract without an owner, thereby removing any functionality that is only available to the owner."
      },
      "safeTransferFrom(address,address,uint256)": {
        "details": "This works identically to the other function with an extra data parameter,  except this function just sets data to \"\".",
        "params": {
          "_from": "The current owner of the NFT",
          "_to": "The new owner",
          "_tokenId": "The NFT to transfer"
        }
      },
      "safeTransferFrom(address,address,uint256,bytes)": {
        "details": "Throws unless `msg.sender` is the current owner, an authorized  operator, or the approved address for this NFT. Throws if `_from` is  not the current owner. Throws if `_to` is the zero address. Throws if  `_tokenId` is not a valid NFT. When transfer is complete, this function  checks if `_to` is a smart contract (code size > 0). If so, it calls  `onERC721Received` on `_to` and throws if the return value is not  `bytes4(keccak256(\"onERC721Received(address,address,uint256,bytes)\"))`.",
        "params": {
          "_from": "The current owner of the NFT",
          "_to": "The new owner",
          "_tokenId": "The NFT to transfer",
          "data": "Additional data with no specified format, sent in call to `_to`"
        }
      },
      "setApprovalForAll(address,bool)": {
        "details": "Emits the ApprovalForAll event. The contract MUST allow  multiple operators per owner.",
        "params": {
          "_approved": "True if the operator is approved, false to revoke approval",
          "_operator": "Address to add to the set of authorized operators"
        }
      },
      "transferFrom(address,address,uint256)": {
        "details": "Throws unless `msg.sender` is the current owner, an authorized  operator, or the approved address for this NFT. Throws if `_from` is  not the current owner. Throws if `_to` is the zero address. Throws if  `_tokenId` is not a valid NFT.",
        "params": {
          "_from": "The current owner of the NFT",
          "_to": "The new owner",
          "_tokenId": "The NFT to transfer"
        }
      },
      "transferOwnership(address)": {
        "details": "Transfers ownership of the contract to a new account (`newOwner`). Can only be called by the current owner."
      }
    },
    "version": 1
  },
  "userdoc": {
    "kind": "user",
    "methods": {
      "approve(address,uint256)": {
        "notice": "Change or reaffirm the approved address for an NFT"
      },
      "getApproved(uint256)": {
        "notice": "Get the approved address for a single NFT"
      },
      "isApprovedForAll(address,address)": {
        "notice": "Query if an address is an authorized operator for another address"
      },
      "safeTransferFrom(address,address,uint256)": {
        "notice": "Transfers the ownership of an NFT from one address to another address"
      },
      "safeTransferFrom(address,address,uint256,bytes)": {
        "notice": "Transfers the ownership of an NFT from one address to another address"
      },
      "setApprovalForAll(address,bool)": {
        "notice": "Enable or disable approval for a third party (\"operator\") to manage  all of `msg.sender`'s assets"
      },
      "transferFrom(address,address,uint256)": {
        "notice": "Transfer ownership of an NFT -- THE CALLER IS RESPONSIBLE  TO CONFIRM THAT `_to` IS CAPABLE OF RECEIVING NFTS OR ELSE  THEY MAY BE PERMANENTLY LOST"
      }
    },
    "version": 1
  }
}