{
  "contractName": "Kittycontract",
  "abi": [
    {
      "anonymous": false,
      "inputs": [
        {
          "indexed": true,
          "internalType": "address",
          "name": "owner",
          "type": "address"
        },
        {
          "indexed": true,
          "internalType": "address",
          "name": "approved",
          "type": "address"
        },
        {
          "indexed": true,
          "internalType": "uint256",
          "name": "tokenId",
          "type": "uint256"
        }
      ],
      "name": "Approval",
      "type": "event"
    },
    {
      "anonymous": false,
      "inputs": [
        {
          "indexed": true,
          "internalType": "address",
          "name": "owner",
          "type": "address"
        },
        {
          "indexed": true,
          "internalType": "address",
          "name": "operator",
          "type": "address"
        },
        {
          "indexed": false,
          "internalType": "bool",
          "name": "approved",
          "type": "bool"
        }
      ],
      "name": "ApprovalForAll",
      "type": "event"
    },
    {
      "anonymous": false,
      "inputs": [
        {
          "indexed": false,
          "internalType": "address",
          "name": "owner",
          "type": "address"
        },
        {
          "indexed": false,
          "internalType": "uint256",
          "name": "mumId",
          "type": "uint256"
        },
        {
          "indexed": false,
          "internalType": "uint256",
          "name": "dadId",
          "type": "uint256"
        },
        {
          "indexed": false,
          "internalType": "string",
          "name": "dna",
          "type": "string"
        }
      ],
      "name": "Birth",
      "type": "event"
    },
    {
      "anonymous": false,
      "inputs": [
        {
          "indexed": true,
          "internalType": "address",
          "name": "previousOwner",
          "type": "address"
        },
        {
          "indexed": true,
          "internalType": "address",
          "name": "newOwner",
          "type": "address"
        }
      ],
      "name": "OwnershipTransferred",
      "type": "event"
    },
    {
      "anonymous": false,
      "inputs": [
        {
          "indexed": true,
          "internalType": "address",
          "name": "from",
          "type": "address"
        },
        {
          "indexed": true,
          "internalType": "address",
          "name": "to",
          "type": "address"
        },
        {
          "indexed": true,
          "internalType": "uint256",
          "name": "tokenId",
          "type": "uint256"
        }
      ],
      "name": "Transfer",
      "type": "event"
    },
    {
      "inputs": [
        {
          "internalType": "uint256",
          "name": "",
          "type": "uint256"
        }
      ],
      "name": "kittyOwner",
      "outputs": [
        {
          "internalType": "address",
          "name": "",
          "type": "address"
        }
      ],
      "stateMutability": "view",
      "type": "function"
    },
    {
      "inputs": [],
      "name": "name",
      "outputs": [
        {
          "internalType": "string",
          "name": "",
          "type": "string"
        }
      ],
      "stateMutability": "view",
      "type": "function"
    },
    {
      "inputs": [],
      "name": "owner",
      "outputs": [
        {
          "internalType": "address",
          "name": "",
          "type": "address"
        }
      ],
      "stateMutability": "view",
      "type": "function"
    },
    {
      "inputs": [],
      "name": "renounceOwnership",
      "outputs": [],
      "stateMutability": "nonpayable",
      "type": "function"
    },
    {
      "inputs": [],
      "name": "symbol",
      "outputs": [
        {
          "internalType": "string",
          "name": "",
          "type": "string"
        }
      ],
      "stateMutability": "view",
      "type": "function"
    },
    {
      "inputs": [
        {
          "internalType": "address",
          "name": "newOwner",
          "type": "address"
        }
      ],
      "name": "transferOwnership",
      "outputs": [],
      "stateMutability": "nonpayable",
      "type": "function"
    },
    {
      "inputs": [
        {
          "internalType": "address",
          "name": "owner",
          "type": "address"
        }
      ],
      "name": "balanceOf",
      "outputs": [
        {
          "internalType": "uint256",
          "name": "balance",
          "type": "uint256"
        }
      ],
      "stateMutability": "view",
      "type": "function"
    },
    {
      "inputs": [],
      "name": "totalSupply",
      "outputs": [
        {
          "internalType": "uint256",
          "name": "total",
          "type": "uint256"
        }
      ],
      "stateMutability": "view",
      "type": "function"
    },
    {
      "inputs": [
        {
          "internalType": "uint256",
          "name": "tokenId",
          "type": "uint256"
        }
      ],
      "name": "ownerOf",
      "outputs": [
        {
          "internalType": "address",
          "name": "owner",
          "type": "address"
        }
      ],
      "stateMutability": "view",
      "type": "function"
    },
    {
      "inputs": [
        {
          "internalType": "address",
          "name": "to",
          "type": "address"
        },
        {
          "internalType": "uint256",
          "name": "tokenId",
          "type": "uint256"
        }
      ],
      "name": "transfer",
      "outputs": [],
      "stateMutability": "nonpayable",
      "type": "function"
    },
    {
      "inputs": [
        {
          "internalType": "address",
          "name": "_from",
          "type": "address"
        },
        {
          "internalType": "address",
          "name": "_to",
          "type": "address"
        },
        {
          "internalType": "uint256",
          "name": "_tokenId",
          "type": "uint256"
        }
      ],
      "name": "safeTransferFrom",
      "outputs": [],
      "stateMutability": "nonpayable",
      "type": "function"
    },
    {
      "inputs": [
        {
          "internalType": "address",
          "name": "_from",
          "type": "address"
        },
        {
          "internalType": "address",
          "name": "_to",
          "type": "address"
        },
        {
          "internalType": "uint256",
          "name": "_tokenId",
          "type": "uint256"
        },
        {
          "internalType": "bytes",
          "name": "data",
          "type": "bytes"
        }
      ],
      "name": "safeTransferFrom",
      "outputs": [],
      "stateMutability": "nonpayable",
      "type": "function"
    },
    {
      "inputs": [
        {
          "internalType": "address",
          "name": "_from",
          "type": "address"
        },
        {
          "internalType": "address",
          "name": "_to",
          "type": "address"
        },
        {
          "internalType": "uint256",
          "name": "_tokenId",
          "type": "uint256"
        }
      ],
      "name": "transferFrom",
      "outputs": [],
      "stateMutability": "nonpayable",
      "type": "function"
    },
    {
      "inputs": [
        {
          "internalType": "address",
          "name": "_approved",
          "type": "address"
        },
        {
          "internalType": "uint256",
          "name": "_tokenId",
          "type": "uint256"
        }
      ],
      "name": "approve",
      "outputs": [],
      "stateMutability": "nonpayable",
      "type": "function"
    },
    {
      "inputs": [
        {
          "internalType": "address",
          "name": "_operator",
          "type": "address"
        },
        {
          "internalType": "bool",
          "name": "_approved",
          "type": "bool"
        }
      ],
      "name": "setApprovalForAll",
      "outputs": [],
      "stateMutability": "nonpayable",
      "type": "function"
    },
    {
      "inputs": [
        {
          "internalType": "uint256",
          "name": "_tokenId",
          "type": "uint256"
        }
      ],
      "name": "getApproved",
      "outputs": [
        {
          "internalType": "address",
          "name": "",
          "type": "address"
        }
      ],
      "stateMutability": "view",
      "type": "function"
    },
    {
      "inputs": [
        {
          "internalType": "address",
          "name": "_owner",
          "type": "address"
        },
        {
          "internalType": "address",
          "name": "_operator",
          "type": "address"
        }
      ],
      "name": "isApprovedForAll",
      "outputs": [
        {
          "internalType": "bool",
          "name": "",
          "type": "bool"
        }
      ],
      "stateMutability": "view",
      "type": "function"
    },
    {
      "inputs": [
        {
          "internalType": "string",
          "name": "dna",
          "type": "string"
        }
      ],
      "name": "createKittyGen0",
      "outputs": [
        {
          "internalType": "uint256",
          "name": "",
          "type": "uint256"
        }
      ],
      "stateMutability": "nonpayable",
      "type": "function"
    },
    {
      "inputs": [
        {
          "internalType": "uint256",
          "name": "tokenId",
          "type": "uint256"
        }
      ],
      "name": "getKitty",
      "outputs": [
        {
          "internalType": "string",
          "name": "dna",
          "type": "string"
        },
        {
          "internalType": "uint256",
          "name": "birthTime",
          "type": "uint256"
        },
        {
          "internalType": "uint256",
          "name": "mumId",
          "type": "uint256"
        },
        {
          "internalType": "uint256",
          "name": "dadId",
          "type": "uint256"
        },
        {
          "internalType": "uint256",
          "name": "generation",
          "type": "uint256"
        },
        {
          "internalType": "address",
          "name": "owner",
          "type": "address"
        }
      ],
      "stateMutability": "view",
      "type": "function"
    }
  ],
  "bytecode": "0x608060405234801561001057600080fd5b5060006100216100c460201b60201c565b9050806000806101000a81548173ffffffffffffffffffffffffffffffffffffffff021916908373ffffffffffffffffffffffffffffffffffffffff1602179055508073ffffffffffffffffffffffffffffffffffffffff16600073ffffffffffffffffffffffffffffffffffffffff167f8be0079c531659141344cd1fd0a4f28419497f9722a3daafe3b4186f6b6457e060405160405180910390a3506100cc565b600033905090565b6126bc806100db6000396000f3fe608060405234801561001057600080fd5b50600436106101215760003560e01c80638420f94b116100ad578063b88d4fde11610071578063b88d4fde146102f4578063cb854ae714610310578063e985e9c514610340578063e98b7f4d14610370578063f2fde38b146103a557610121565b80638420f94b146102505780638da5cb5b1461028057806395d89b411461029e578063a22cb465146102bc578063a9059cbb146102d857610121565b806323b872dd116100f457806323b872dd146101ae57806342842e0e146101ca5780636352211e146101e657806370a0823114610216578063715018a61461024657610121565b806306fdde0314610126578063081812fc14610144578063095ea7b31461017457806318160ddd14610190575b600080fd5b61012e6103c1565b60405161013b9190612014565b60405180910390f35b61015e60048036038101906101599190611d89565b6103fa565b60405161016b9190611f46565b60405180910390f35b61018e60048036038101906101899190611ce3565b61047e565b005b6101986105bf565b6040516101a5919061217e565b60405180910390f35b6101c860048036038101906101c39190611bdd565b6105cc565b005b6101e460048036038101906101df9190611bdd565b610725565b005b61020060048036038101906101fb9190611d89565b61088e565b60405161020d9190611f46565b60405180910390f35b610230600480360381019061022b9190611b78565b610912565b60405161023d919061217e565b60405180910390f35b61024e61095b565b005b61026a60048036038101906102659190611d48565b610a95565b604051610277919061217e565b60405180910390f35b610288610b29565b6040516102959190611f46565b60405180910390f35b6102a6610b52565b6040516102b39190612014565b60405180910390f35b6102d660048036038101906102d19190611ca7565b610b8b565b005b6102f260048036038101906102ed9190611ce3565b610cc1565b005b61030e60048036038101906103099190611c2c565b610dd3565b005b61032a60048036038101906103259190611d89565b610f2e565b6040516103379190611f46565b60405180910390f35b61035a60048036038101906103559190611ba1565b610f61565b6040516103679190611ff9565b60405180910390f35b61038a60048036038101906103859190611d89565b610ff5565b60405161039c96959493929190612036565b60405180910390f35b6103bf60048036038101906103ba9190611b78565b611191565b005b6040518060400160405280600d81526020017f4d696368616c4b6974746965730000000000000000000000000000000000000081525081565b60006005805490508210610443576040517f08c379a000000000000000000000000000000000000000000000000000000000815260040161043a9061209e565b60405180910390fd5b6003600083815260200190815260200160002060009054906101000a900473ffffffffffffffffffffffffffffffffffffffff169050919050565b60058054905081106104c5576040517f08c379a00000000000000000000000000000000000000000000000000000000081526004016104bc9061209e565b60405180910390fd5b6104cf338261133a565b61050e576040517f08c379a00000000000000000000000000000000000000000000000000000000081526004016105059061211e565b60405180910390fd5b816003600083815260200190815260200160002060006101000a81548173ffffffffffffffffffffffffffffffffffffffff021916908373ffffffffffffffffffffffffffffffffffffffff160217905550808273ffffffffffffffffffffffffffffffffffffffff163373ffffffffffffffffffffffffffffffffffffffff167f8c5be1e5ebec7d5bd14f71427d1e84f3dd0314c0f7b2291e5b200ac8c7c3b92560405160405180910390a45050565b6000600580549050905090565b6005805490508110610613576040517f08c379a000000000000000000000000000000000000000000000000000000000815260040161060a9061209e565b60405180910390fd5b61061d33826113a6565b61065c576040517f08c379a0000000000000000000000000000000000000000000000000000000008152600401610653906120be565b60405180910390fd5b610666838261133a565b6106a5576040517f08c379a000000000000000000000000000000000000000000000000000000000815260040161069c9061215e565b60405180910390fd5b600073ffffffffffffffffffffffffffffffffffffffff168273ffffffffffffffffffffffffffffffffffffffff161415610715576040517f08c379a000000000000000000000000000000000000000000000000000000000815260040161070c906120fe565b60405180910390fd5b6107208383836114e7565b505050565b600580549050811061076c576040517f08c379a00000000000000000000000000000000000000000000000000000000081526004016107639061209e565b60405180910390fd5b61077633826113a6565b6107b5576040517f08c379a00000000000000000000000000000000000000000000000000000000081526004016107ac906120be565b60405180910390fd5b6107bf838261133a565b6107fe576040517f08c379a00000000000000000000000000000000000000000000000000000000081526004016107f59061215e565b60405180910390fd5b600073ffffffffffffffffffffffffffffffffffffffff168273ffffffffffffffffffffffffffffffffffffffff16141561086e576040517f08c379a0000000000000000000000000000000000000000000000000000000008152600401610865906120fe565b60405180910390fd5b610889838383604051806020016040528060008152506116b2565b505050565b600060058054905082106108d7576040517f08c379a00000000000000000000000000000000000000000000000000000000081526004016108ce9061209e565b60405180910390fd5b6001600083815260200190815260200160002060009054906101000a900473ffffffffffffffffffffffffffffffffffffffff169050919050565b6000600260008373ffffffffffffffffffffffffffffffffffffffff1673ffffffffffffffffffffffffffffffffffffffff168152602001908152602001600020549050919050565b6109636116d8565b73ffffffffffffffffffffffffffffffffffffffff16610981610b29565b73ffffffffffffffffffffffffffffffffffffffff16146109d7576040517f08c379a00000000000000000000000000000000000000000000000000000000081526004016109ce9061213e565b60405180910390fd5b600073ffffffffffffffffffffffffffffffffffffffff1660008054906101000a900473ffffffffffffffffffffffffffffffffffffffff1673ffffffffffffffffffffffffffffffffffffffff167f8be0079c531659141344cd1fd0a4f28419497f9722a3daafe3b4186f6b6457e060405160405180910390a360008060006101000a81548173ffffffffffffffffffffffffffffffffffffffff021916908373ffffffffffffffffffffffffffffffffffffffff160217905550565b6000610a9f6116d8565b73ffffffffffffffffffffffffffffffffffffffff16610abd610b29565b73ffffffffffffffffffffffffffffffffffffffff1614610b13576040517f08c379a0000000000000000000000000000000000000000000000000000000008152600401610b0a9061213e565b60405180910390fd5b610b22826000806000336116e0565b9050919050565b60008060009054906101000a900473ffffffffffffffffffffffffffffffffffffffff16905090565b6040518060400160405280600481526020017f4d4b49540000000000000000000000000000000000000000000000000000000081525081565b8173ffffffffffffffffffffffffffffffffffffffff163373ffffffffffffffffffffffffffffffffffffffff161415610bc457600080fd5b80600460003373ffffffffffffffffffffffffffffffffffffffff1673ffffffffffffffffffffffffffffffffffffffff16815260200190815260200160002060008473ffffffffffffffffffffffffffffffffffffffff1673ffffffffffffffffffffffffffffffffffffffff16815260200190815260200160002060006101000a81548160ff0219169083151502179055508173ffffffffffffffffffffffffffffffffffffffff163373ffffffffffffffffffffffffffffffffffffffff167f17307eab39ab6107e8899845ad3d59bd9653f200f220920489ca2b5937696c3183604051610cb59190611ff9565b60405180910390a35050565b600073ffffffffffffffffffffffffffffffffffffffff168273ffffffffffffffffffffffffffffffffffffffff161415610cfb57600080fd5b3073ffffffffffffffffffffffffffffffffffffffff168273ffffffffffffffffffffffffffffffffffffffff161415610d3457600080fd5b6005805490508110610d7b576040517f08c379a0000000000000000000000000000000000000000000000000000000008152600401610d729061209e565b60405180910390fd5b610d85338261133a565b610dc4576040517f08c379a0000000000000000000000000000000000000000000000000000000008152600401610dbb9061211e565b60405180910390fd5b610dcf3383836114e7565b5050565b6005805490508210610e1a576040517f08c379a0000000000000000000000000000000000000000000000000000000008152600401610e119061209e565b60405180910390fd5b610e2433836113a6565b610e63576040517f08c379a0000000000000000000000000000000000000000000000000000000008152600401610e5a906120be565b60405180910390fd5b610e6d848361133a565b610eac576040517f08c379a0000000000000000000000000000000000000000000000000000000008152600401610ea39061215e565b60405180910390fd5b600073ffffffffffffffffffffffffffffffffffffffff168373ffffffffffffffffffffffffffffffffffffffff161415610f1c576040517f08c379a0000000000000000000000000000000000000000000000000000000008152600401610f13906120fe565b60405180910390fd5b610f28848484846116b2565b50505050565b60016020528060005260406000206000915054906101000a900473ffffffffffffffffffffffffffffffffffffffff1681565b6000600460008473ffffffffffffffffffffffffffffffffffffffff1673ffffffffffffffffffffffffffffffffffffffff16815260200190815260200160002060008373ffffffffffffffffffffffffffffffffffffffff1673ffffffffffffffffffffffffffffffffffffffff16815260200190815260200160002060009054906101000a900460ff16905092915050565b60606000806000806000806005888154811061103a577f4e487b7100000000000000000000000000000000000000000000000000000000600052603260045260246000fd5b9060005260206000209060020201905080600001805461105990612398565b80601f016020809104026020016040519081016040528092919081815260200182805461108590612398565b80156110d25780601f106110a7576101008083540402835291602001916110d2565b820191906000526020600020905b8154815290600101906020018083116110b557829003601f168201915b505050505096508060010160009054906101000a900467ffffffffffffffff1667ffffffffffffffff1695508060010160089054906101000a900463ffffffff1663ffffffff16945080600101600c9054906101000a900463ffffffff1663ffffffff1693508060010160109054906101000a900461ffff1661ffff1692506001600089815260200190815260200160002060009054906101000a900473ffffffffffffffffffffffffffffffffffffffff1691505091939550919395565b6111996116d8565b73ffffffffffffffffffffffffffffffffffffffff166111b7610b29565b73ffffffffffffffffffffffffffffffffffffffff161461120d576040517f08c379a00000000000000000000000000000000000000000000000000000000081526004016112049061213e565b60405180910390fd5b600073ffffffffffffffffffffffffffffffffffffffff168173ffffffffffffffffffffffffffffffffffffffff16141561127d576040517f08c379a0000000000000000000000000000000000000000000000000000000008152600401611274906120de565b60405180910390fd5b8073ffffffffffffffffffffffffffffffffffffffff1660008054906101000a900473ffffffffffffffffffffffffffffffffffffffff1673ffffffffffffffffffffffffffffffffffffffff167f8be0079c531659141344cd1fd0a4f28419497f9722a3daafe3b4186f6b6457e060405160405180910390a3806000806101000a81548173ffffffffffffffffffffffffffffffffffffffff021916908373ffffffffffffffffffffffffffffffffffffffff16021790555050565b60008273ffffffffffffffffffffffffffffffffffffffff166001600084815260200190815260200160002060009054906101000a900473ffffffffffffffffffffffffffffffffffffffff1673ffffffffffffffffffffffffffffffffffffffff1614905092915050565b60006113b2838361133a565b8061141b57508273ffffffffffffffffffffffffffffffffffffffff166003600084815260200190815260200160002060009054906101000a900473ffffffffffffffffffffffffffffffffffffffff1673ffffffffffffffffffffffffffffffffffffffff16145b806114df5750600460006001600085815260200190815260200160002060009054906101000a900473ffffffffffffffffffffffffffffffffffffffff1673ffffffffffffffffffffffffffffffffffffffff1673ffffffffffffffffffffffffffffffffffffffff16815260200190815260200160002060008473ffffffffffffffffffffffffffffffffffffffff1673ffffffffffffffffffffffffffffffffffffffff16815260200190815260200160002060009054906101000a900460ff165b905092915050565b816001600083815260200190815260200160002060006101000a81548173ffffffffffffffffffffffffffffffffffffffff021916908373ffffffffffffffffffffffffffffffffffffffff1602179055506001600260008473ffffffffffffffffffffffffffffffffffffffff1673ffffffffffffffffffffffffffffffffffffffff16815260200190815260200160002060008282546115899190612258565b92505081905550600073ffffffffffffffffffffffffffffffffffffffff168373ffffffffffffffffffffffffffffffffffffffff1614611652576001600260003373ffffffffffffffffffffffffffffffffffffffff1673ffffffffffffffffffffffffffffffffffffffff168152602001908152602001600020600082825461161491906122ae565b925050819055506003600082815260200190815260200160002060006101000a81549073ffffffffffffffffffffffffffffffffffffffff02191690555b808273ffffffffffffffffffffffffffffffffffffffff163373ffffffffffffffffffffffffffffffffffffffff167fddf252ad1be2c89b69c2b068fc378daa952ba7f163c4a11628f55a4df523b3ef60405160405180910390a4505050565b6116bd8484846114e7565b6116c98484848461187e565b6116d257600080fd5b50505050565b600033905090565b6000806040518060a001604052808881526020014267ffffffffffffffff1681526020018763ffffffff1681526020018663ffffffff1681526020018561ffff1681525090506005819080600181540180825580915050600190039060005260206000209060020201600090919091909150600082015181600001908051906020019061176e9291906119b1565b5060208201518160010160006101000a81548167ffffffffffffffff021916908367ffffffffffffffff16021790555060408201518160010160086101000a81548163ffffffff021916908363ffffffff160217905550606082015181600101600c6101000a81548163ffffffff021916908363ffffffff16021790555060808201518160010160106101000a81548161ffff021916908361ffff16021790555050506000600160058054905061182591906122ae565b90507f57bdfedb3ab59e29d46157723e7f15e09b7b59531c13d298d3ed65c34db2b6aa8488888b60405161185c9493929190611fad565b60405180910390a1611870600085836114e7565b809250505095945050505050565b60006118898461199e565b6118965760019050611996565b600084905060008173ffffffffffffffffffffffffffffffffffffffff1663150b7a02338988886040518563ffffffff1660e01b81526004016118dc9493929190611f61565b602060405180830381600087803b1580156118f657600080fd5b505af115801561190a573d6000803e3d6000fd5b505050506040513d601f19601f8201168201806040525081019061192e9190611d1f565b9050807bffffffffffffffffffffffffffffffffffffffffffffffffffffffff19167f150b7a023d4804d13e8c85fb27262cb750cf6ba9f9dd3bb30d90f482ceeb4b1f7bffffffffffffffffffffffffffffffffffffffffffffffffffffffff191614925050505b949350505050565b600080823b905060008111915050919050565b8280546119bd90612398565b90600052602060002090601f0160209004810192826119df5760008555611a26565b82601f106119f857805160ff1916838001178555611a26565b82800160010185558215611a26579182015b82811115611a25578251825591602001919060010190611a0a565b5b509050611a339190611a37565b5090565b5b80821115611a50576000816000905550600101611a38565b5090565b6000611a67611a62846121be565b612199565b905082815260208101848484011115611a7f57600080fd5b611a8a848285612356565b509392505050565b6000611aa5611aa0846121ef565b612199565b905082815260208101848484011115611abd57600080fd5b611ac8848285612356565b509392505050565b600081359050611adf8161262a565b92915050565b600081359050611af481612641565b92915050565b600081519050611b0981612658565b92915050565b600082601f830112611b2057600080fd5b8135611b30848260208601611a54565b91505092915050565b600082601f830112611b4a57600080fd5b8135611b5a848260208601611a92565b91505092915050565b600081359050611b728161266f565b92915050565b600060208284031215611b8a57600080fd5b6000611b9884828501611ad0565b91505092915050565b60008060408385031215611bb457600080fd5b6000611bc285828601611ad0565b9250506020611bd385828601611ad0565b9150509250929050565b600080600060608486031215611bf257600080fd5b6000611c0086828701611ad0565b9350506020611c1186828701611ad0565b9250506040611c2286828701611b63565b9150509250925092565b60008060008060808587031215611c4257600080fd5b6000611c5087828801611ad0565b9450506020611c6187828801611ad0565b9350506040611c7287828801611b63565b925050606085013567ffffffffffffffff811115611c8f57600080fd5b611c9b87828801611b0f565b91505092959194509250565b60008060408385031215611cba57600080fd5b6000611cc885828601611ad0565b9250506020611cd985828601611ae5565b9150509250929050565b60008060408385031215611cf657600080fd5b6000611d0485828601611ad0565b9250506020611d1585828601611b63565b9150509250929050565b600060208284031215611d3157600080fd5b6000611d3f84828501611afa565b91505092915050565b600060208284031215611d5a57600080fd5b600082013567ffffffffffffffff811115611d7457600080fd5b611d8084828501611b39565b91505092915050565b600060208284031215611d9b57600080fd5b6000611da984828501611b63565b91505092915050565b611dbb816122e2565b82525050565b611dca816122f4565b82525050565b6000611ddb82612220565b611de58185612236565b9350611df5818560208601612365565b611dfe81612488565b840191505092915050565b6000611e148261222b565b611e1e8185612247565b9350611e2e818560208601612365565b611e3781612488565b840191505092915050565b6000611e4f601383612247565b9150611e5a82612499565b602082019050919050565b6000611e72602c83612247565b9150611e7d826124c2565b604082019050919050565b6000611e95602683612247565b9150611ea082612511565b604082019050919050565b6000611eb8601883612247565b9150611ec382612560565b602082019050919050565b6000611edb601883612247565b9150611ee682612589565b602082019050919050565b6000611efe602083612247565b9150611f09826125b2565b602082019050919050565b6000611f21602183612247565b9150611f2c826125db565b604082019050919050565b611f408161234c565b82525050565b6000602082019050611f5b6000830184611db2565b92915050565b6000608082019050611f766000830187611db2565b611f836020830186611db2565b611f906040830185611f37565b8181036060830152611fa28184611dd0565b905095945050505050565b6000608082019050611fc26000830187611db2565b611fcf6020830186611f37565b611fdc6040830185611f37565b8181036060830152611fee8184611e09565b905095945050505050565b600060208201905061200e6000830184611dc1565b92915050565b6000602082019050818103600083015261202e8184611e09565b905092915050565b600060c08201905081810360008301526120508189611e09565b905061205f6020830188611f37565b61206c6040830187611f37565b6120796060830186611f37565b6120866080830185611f37565b61209360a0830184611db2565b979650505050505050565b600060208201905081810360008301526120b781611e42565b9050919050565b600060208201905081810360008301526120d781611e65565b9050919050565b600060208201905081810360008301526120f781611e88565b9050919050565b6000602082019050818103600083015261211781611eab565b9050919050565b6000602082019050818103600083015261213781611ece565b9050919050565b6000602082019050818103600083015261215781611ef1565b9050919050565b6000602082019050818103600083015261217781611f14565b9050919050565b60006020820190506121936000830184611f37565b92915050565b60006121a36121b4565b90506121af82826123ca565b919050565b6000604051905090565b600067ffffffffffffffff8211156121d9576121d8612459565b5b6121e282612488565b9050602081019050919050565b600067ffffffffffffffff82111561220a57612209612459565b5b61221382612488565b9050602081019050919050565b600081519050919050565b600081519050919050565b600082825260208201905092915050565b600082825260208201905092915050565b60006122638261234c565b915061226e8361234c565b9250827fffffffffffffffffffffffffffffffffffffffffffffffffffffffffffffffff038211156122a3576122a26123fb565b5b828201905092915050565b60006122b98261234c565b91506122c48361234c565b9250828210156122d7576122d66123fb565b5b828203905092915050565b60006122ed8261232c565b9050919050565b60008115159050919050565b60007fffffffff0000000000000000000000000000000000000000000000000000000082169050919050565b600073ffffffffffffffffffffffffffffffffffffffff82169050919050565b6000819050919050565b82818337600083830152505050565b60005b83811015612383578082015181840152602081019050612368565b83811115612392576000848401525b50505050565b600060028204905060018216806123b057607f821691505b602082108114156123c4576123c361242a565b5b50919050565b6123d382612488565b810181811067ffffffffffffffff821117156123f2576123f1612459565b5b80604052505050565b7f4e487b7100000000000000000000000000000000000000000000000000000000600052601160045260246000fd5b7f4e487b7100000000000000000000000000000000000000000000000000000000600052602260045260246000fd5b7f4e487b7100000000000000000000000000000000000000000000000000000000600052604160045260246000fd5b6000601f19601f8301169050919050565b7f546f6b656e20646f65736e277420657869737400000000000000000000000000600082015250565b7f596f7520617265206e6f7420617574686f72697a6520746f207472616e73666560008201527f72207468697320746f6b656e0000000000000000000000000000000000000000602082015250565b7f4f776e61626c653a206e6577206f776e657220697320746865207a65726f206160008201527f6464726573730000000000000000000000000000000000000000000000000000602082015250565b7f5f746f2061646472657373206973203020616464726573730000000000000000600082015250565b7f596f7520646f6e2774206f776e207468697320746f6b656e0000000000000000600082015250565b7f4f776e61626c653a2063616c6c6572206973206e6f7420746865206f776e6572600082015250565b7f5f66726f6d20616464726573732069736e27742063757272656e74206f776e6560008201527f7200000000000000000000000000000000000000000000000000000000000000602082015250565b612633816122e2565b811461263e57600080fd5b50565b61264a816122f4565b811461265557600080fd5b50565b61266181612300565b811461266c57600080fd5b50565b6126788161234c565b811461268357600080fd5b5056fea26469706673582212204375231ef73d0dad3d3fcfbc2a8427954c5562815fd2cc582305b896a6abc7d364736f6c63430008040033",
  "immutableReferences": {},
  "source": "// SPDX-License-Identifier: MIT\npragma solidity ^0.8.0;\n\nimport \"./IERC721.sol\";\nimport \"./Ownable.sol\";\nimport \"./IERC721Receiver.sol\";\n\ncontract Kittycontract is IERC721, Ownable {\n\n    string public constant override name = \"MichalKitties\";\n    string public constant override symbol = \"MKIT\";\n\n    event Birth(address owner, uint256 mumId, uint256 dadId, string dna);\n\n    struct Kitty {\n        string dna;\n        uint64 birthTime;\n        uint32 mumId;\n        uint32 dadId;\n        uint16 generation;\n    }\n\n    mapping(uint256 => address) public kittyOwner;\n    mapping(address => uint256) balances;\n    mapping(uint256 => address) approvals;\n    mapping(address => mapping(address => bool)) approvalsForAll;\n\n    Kitty[] kitties;\n\n    function balanceOf(address owner) override external view returns (uint256 balance) {\n        balance = balances[owner];\n    }\n\n    function totalSupply() override external view returns (uint256 total) {\n        total = kitties.length;\n    }\n\n    function ownerOf(uint256 tokenId) override external view returns (address owner) {\n        require(tokenId < kitties.length, \"Token doesn't exist\");\n\n        owner = kittyOwner[tokenId];\n    }\n\n    function transfer(address to, uint256 tokenId) override external {\n        require(to != address(0));\n        require(to != address(this));\n        require(tokenId < kitties.length, \"Token doesn't exist\");\n        require(_owns(msg.sender, tokenId), \"You don't own this token\");\n\n        _transfer(msg.sender, to, tokenId);\n    }\n\n    function safeTransferFrom(address _from, address _to, uint256 _tokenId, bytes memory data) override external {\n        require(_tokenId < kitties.length, \"Token doesn't exist\");\n        require(_isApproved(msg.sender, _tokenId), \"You are not authorize to transfer this token\");\n        require(_owns(_from, _tokenId), \"_from address isn't current owner\");\n        require(_to != address(0), \"_to address is 0 address\");\n\n        _safeTransfer(_from, _to, _tokenId, data);\n    }\n\n    function safeTransferFrom(address _from, address _to, uint256 _tokenId) override external {\n        require(_tokenId < kitties.length, \"Token doesn't exist\");\n        require(_isApproved(msg.sender, _tokenId), \"You are not authorize to transfer this token\");\n        require(_owns(_from, _tokenId), \"_from address isn't current owner\");\n        require(_to != address(0), \"_to address is 0 address\");\n\n        _safeTransfer(_from, _to, _tokenId, \"\");\n    }\n\n    function transferFrom(address _from, address _to, uint256 _tokenId) override external {\n        require(_tokenId < kitties.length, \"Token doesn't exist\");\n        require(_isApproved(msg.sender, _tokenId), \"You are not authorize to transfer this token\");\n        require(_owns(_from, _tokenId), \"_from address isn't current owner\");\n        require(_to != address(0), \"_to address is 0 address\");\n\n        _transfer(_from, _to, _tokenId);\n    }\n\n    function approve(address _approved, uint256 _tokenId) override external {\n        require(_tokenId < kitties.length, \"Token doesn't exist\");\n        require(_owns(msg.sender, _tokenId), \"You don't own this token\");\n\n        approvals[_tokenId] = _approved;\n\n        emit Approval(msg.sender, _approved, _tokenId);\n    }\n\n    function setApprovalForAll(address _operator, bool _approved) override external {\n        require(msg.sender != _operator);\n\n        approvalsForAll[msg.sender][_operator] = _approved;\n\n        emit ApprovalForAll(msg.sender, _operator, _approved);\n    }\n\n    function getApproved(uint256 _tokenId) override external view returns (address) {\n        require(_tokenId < kitties.length, \"Token doesn't exist\");\n\n        return approvals[_tokenId];\n    }\n\n    function isApprovedForAll(address _owner, address _operator) override external view returns (bool) {\n        return approvalsForAll[_owner][_operator];\n    }\n\n    function createKittyGen0(string memory dna) onlyOwner public returns(uint256) {\n        return _createKitty(dna, 0, 0, 0, msg.sender);\n    }\n\n    function getKitty(uint256 tokenId) view external returns (\n        string memory dna,\n        uint256 birthTime,\n        uint256 mumId,\n        uint256 dadId,\n        uint256 generation,\n        address owner) {\n\n        Kitty storage k = kitties[tokenId];\n\n        dna = k.dna;\n        birthTime = uint256(k.birthTime);\n        mumId = uint256(k.mumId);\n        dadId = uint256(k.dadId);\n        generation = uint256(k.generation);\n        owner = kittyOwner[tokenId];\n    }\n\n    function _createKitty(\n        string memory _dna,\n        uint256 _mumId,\n        uint256 _dadId,\n        uint256 _generation,\n        address _owner) internal returns(uint256) {\n\n        Kitty memory kitty = Kitty({\n            dna: _dna,\n            birthTime: uint64(block.timestamp),\n            mumId: uint32(_mumId),\n            dadId: uint32(_dadId),\n            generation: uint16(_generation)\n        });\n\n        kitties.push(kitty);\n        uint256 kittyId = kitties.length - 1;\n\n        emit Birth(_owner, _mumId, _dadId, _dna);\n\n        _transfer(address(0), _owner, kittyId);\n\n        return kittyId;\n    }\n\n    function _safeTransfer(address _from, address _to, uint256 _tokenId, bytes memory data) internal {\n        _transfer(_from, _to, _tokenId);\n        require(_checkAddress(_from, _to, _tokenId, data));\n    }\n\n    function _transfer(address from, address to, uint256 tokenId) internal {\n        kittyOwner[tokenId] = to;\n        balances[to] += 1;\n        if (from != address(0)) {\n            balances[msg.sender] -= 1;\n            delete approvals[tokenId];\n        }\n\n        emit Transfer(msg.sender, to, tokenId);\n    }\n\n    function _checkAddress(address _from, address _to, uint256 _tokenId, bytes memory data) internal returns(bool) {\n        if (!_isSmartContract(_to)) {\n            return true;\n        }\n\n        IERC721Receiver receiver = IERC721Receiver(_to);\n        bytes4 result = receiver.onERC721Received(msg.sender, _from, _tokenId, data);\n\n        return bytes4(keccak256(\"onERC721Received(address,address,uint256,bytes)\")) == result;\n    }\n\n    function _isSmartContract(address _to) internal view returns(bool) {\n        uint code;\n        assembly {\n            code := extcodesize(_to)\n        }\n\n        return code > 0;\n    }\n\n    function _isApproved(address claimant, uint256 tokenId) internal view returns(bool) {\n        return _owns(claimant, tokenId) ||\n                approvals[tokenId] == claimant ||\n                approvalsForAll[kittyOwner[tokenId]][claimant];\n    }\n\n    function _owns(address claimant, uint256 tokenId) internal view returns(bool) {\n        return kittyOwner[tokenId] == claimant;\n    }\n}\n",
  "sourcePath": "/Users/michal/Documents/workspace/myCryptoKitties/smartcontract/contracts/Kittycontract.sol",
  "compiler": {
    "name": "solc",
    "version": "0.8.4+commit.c7e474f2.Emscripten.clang"
  },
  "schemaVersion": "3.3.4",
  "updatedAt": "2021-05-03T15:40:06.711Z",
  "devdoc": {
    "kind": "dev",
    "methods": {
      "approve(address,uint256)": {
        "details": "The zero address indicates there is no approved address.  Throws unless `msg.sender` is the current NFT owner, or an authorized  operator of the current owner.",
        "params": {
          "_approved": "The new approved NFT controller",
          "_tokenId": "The NFT to approve"
        }
      },
      "balanceOf(address)": {
        "details": "Returns the number of tokens in ``owner``'s account."
      },
      "getApproved(uint256)": {
        "details": "Throws if `_tokenId` is not a valid NFT.",
        "params": {
          "_tokenId": "The NFT to find the approved address for"
        },
        "returns": {
          "_0": "The approved address for this NFT, or the zero address if there is none"
        }
      },
      "isApprovedForAll(address,address)": {
        "params": {
          "_operator": "The address that acts on behalf of the owner",
          "_owner": "The address that owns the NFTs"
        },
        "returns": {
          "_0": "True if `_operator` is an approved operator for `_owner`, false otherwise"
        }
      },
      "owner()": {
        "details": "Returns the address of the current owner."
      },
      "ownerOf(uint256)": {
        "details": "Returns the owner of the `tokenId` token. Requirements: - `tokenId` must exist."
      },
      "renounceOwnership()": {
        "details": "Leaves the contract without owner. It will not be possible to call `onlyOwner` functions anymore. Can only be called by the current owner. NOTE: Renouncing ownership will leave the contract without an owner, thereby removing any functionality that is only available to the owner."
      },
      "safeTransferFrom(address,address,uint256)": {
        "details": "This works identically to the other function with an extra data parameter,  except this function just sets data to \"\".",
        "params": {
          "_from": "The current owner of the NFT",
          "_to": "The new owner",
          "_tokenId": "The NFT to transfer"
        }
      },
      "safeTransferFrom(address,address,uint256,bytes)": {
        "details": "Throws unless `msg.sender` is the current owner, an authorized  operator, or the approved address for this NFT. Throws if `_from` is  not the current owner. Throws if `_to` is the zero address. Throws if  `_tokenId` is not a valid NFT. When transfer is complete, this function  checks if `_to` is a smart contract (code size > 0). If so, it calls  `onERC721Received` on `_to` and throws if the return value is not  `bytes4(keccak256(\"onERC721Received(address,address,uint256,bytes)\"))`.",
        "params": {
          "_from": "The current owner of the NFT",
          "_to": "The new owner",
          "_tokenId": "The NFT to transfer",
          "data": "Additional data with no specified format, sent in call to `_to`"
        }
      },
      "setApprovalForAll(address,bool)": {
        "details": "Emits the ApprovalForAll event. The contract MUST allow  multiple operators per owner.",
        "params": {
          "_approved": "True if the operator is approved, false to revoke approval",
          "_operator": "Address to add to the set of authorized operators"
        }
      },
      "transferFrom(address,address,uint256)": {
        "details": "Throws unless `msg.sender` is the current owner, an authorized  operator, or the approved address for this NFT. Throws if `_from` is  not the current owner. Throws if `_to` is the zero address. Throws if  `_tokenId` is not a valid NFT.",
        "params": {
          "_from": "The current owner of the NFT",
          "_to": "The new owner",
          "_tokenId": "The NFT to transfer"
        }
      },
      "transferOwnership(address)": {
        "details": "Transfers ownership of the contract to a new account (`newOwner`). Can only be called by the current owner."
      }
    },
    "version": 1
  },
  "userdoc": {
    "kind": "user",
    "methods": {
      "approve(address,uint256)": {
        "notice": "Change or reaffirm the approved address for an NFT"
      },
      "getApproved(uint256)": {
        "notice": "Get the approved address for a single NFT"
      },
      "isApprovedForAll(address,address)": {
        "notice": "Query if an address is an authorized operator for another address"
      },
      "safeTransferFrom(address,address,uint256)": {
        "notice": "Transfers the ownership of an NFT from one address to another address"
      },
      "safeTransferFrom(address,address,uint256,bytes)": {
        "notice": "Transfers the ownership of an NFT from one address to another address"
      },
      "setApprovalForAll(address,bool)": {
        "notice": "Enable or disable approval for a third party (\"operator\") to manage  all of `msg.sender`'s assets"
      },
      "transferFrom(address,address,uint256)": {
        "notice": "Transfer ownership of an NFT -- THE CALLER IS RESPONSIBLE  TO CONFIRM THAT `_to` IS CAPABLE OF RECEIVING NFTS OR ELSE  THEY MAY BE PERMANENTLY LOST"
      }
    },
    "version": 1
  }
}