{
  "contractName": "Kittycontract",
  "abi": [
    {
      "anonymous": false,
      "inputs": [
        {
          "indexed": true,
          "internalType": "address",
          "name": "owner",
          "type": "address"
        },
        {
          "indexed": true,
          "internalType": "address",
          "name": "approved",
          "type": "address"
        },
        {
          "indexed": true,
          "internalType": "uint256",
          "name": "tokenId",
          "type": "uint256"
        }
      ],
      "name": "Approval",
      "type": "event"
    },
    {
      "anonymous": false,
      "inputs": [
        {
          "indexed": false,
          "internalType": "address",
          "name": "owner",
          "type": "address"
        },
        {
          "indexed": false,
          "internalType": "uint256",
          "name": "mumId",
          "type": "uint256"
        },
        {
          "indexed": false,
          "internalType": "uint256",
          "name": "dadId",
          "type": "uint256"
        },
        {
          "indexed": false,
          "internalType": "string",
          "name": "dna",
          "type": "string"
        }
      ],
      "name": "Birth",
      "type": "event"
    },
    {
      "anonymous": false,
      "inputs": [
        {
          "indexed": true,
          "internalType": "address",
          "name": "previousOwner",
          "type": "address"
        },
        {
          "indexed": true,
          "internalType": "address",
          "name": "newOwner",
          "type": "address"
        }
      ],
      "name": "OwnershipTransferred",
      "type": "event"
    },
    {
      "anonymous": false,
      "inputs": [
        {
          "indexed": true,
          "internalType": "address",
          "name": "from",
          "type": "address"
        },
        {
          "indexed": true,
          "internalType": "address",
          "name": "to",
          "type": "address"
        },
        {
          "indexed": true,
          "internalType": "uint256",
          "name": "tokenId",
          "type": "uint256"
        }
      ],
      "name": "Transfer",
      "type": "event"
    },
    {
      "inputs": [
        {
          "internalType": "uint256",
          "name": "",
          "type": "uint256"
        }
      ],
      "name": "kittyOwner",
      "outputs": [
        {
          "internalType": "address",
          "name": "",
          "type": "address"
        }
      ],
      "stateMutability": "view",
      "type": "function",
      "constant": true
    },
    {
      "inputs": [],
      "name": "name",
      "outputs": [
        {
          "internalType": "string",
          "name": "",
          "type": "string"
        }
      ],
      "stateMutability": "view",
      "type": "function",
      "constant": true
    },
    {
      "inputs": [],
      "name": "owner",
      "outputs": [
        {
          "internalType": "address",
          "name": "",
          "type": "address"
        }
      ],
      "stateMutability": "view",
      "type": "function",
      "constant": true
    },
    {
      "inputs": [],
      "name": "renounceOwnership",
      "outputs": [],
      "stateMutability": "nonpayable",
      "type": "function"
    },
    {
      "inputs": [],
      "name": "symbol",
      "outputs": [
        {
          "internalType": "string",
          "name": "",
          "type": "string"
        }
      ],
      "stateMutability": "view",
      "type": "function",
      "constant": true
    },
    {
      "inputs": [
        {
          "internalType": "address",
          "name": "newOwner",
          "type": "address"
        }
      ],
      "name": "transferOwnership",
      "outputs": [],
      "stateMutability": "nonpayable",
      "type": "function"
    },
    {
      "inputs": [
        {
          "internalType": "address",
          "name": "owner",
          "type": "address"
        }
      ],
      "name": "balanceOf",
      "outputs": [
        {
          "internalType": "uint256",
          "name": "balance",
          "type": "uint256"
        }
      ],
      "stateMutability": "view",
      "type": "function",
      "constant": true
    },
    {
      "inputs": [],
      "name": "totalSupply",
      "outputs": [
        {
          "internalType": "uint256",
          "name": "total",
          "type": "uint256"
        }
      ],
      "stateMutability": "view",
      "type": "function",
      "constant": true
    },
    {
      "inputs": [
        {
          "internalType": "uint256",
          "name": "tokenId",
          "type": "uint256"
        }
      ],
      "name": "ownerOf",
      "outputs": [
        {
          "internalType": "address",
          "name": "owner",
          "type": "address"
        }
      ],
      "stateMutability": "view",
      "type": "function",
      "constant": true
    },
    {
      "inputs": [
        {
          "internalType": "address",
          "name": "to",
          "type": "address"
        },
        {
          "internalType": "uint256",
          "name": "tokenId",
          "type": "uint256"
        }
      ],
      "name": "transfer",
      "outputs": [],
      "stateMutability": "nonpayable",
      "type": "function"
    },
    {
      "inputs": [
        {
          "internalType": "string",
          "name": "dna",
          "type": "string"
        }
      ],
      "name": "createKittyGen0",
      "outputs": [
        {
          "internalType": "uint256",
          "name": "",
          "type": "uint256"
        }
      ],
      "stateMutability": "nonpayable",
      "type": "function"
    },
    {
      "inputs": [
        {
          "internalType": "uint256",
          "name": "tokenId",
          "type": "uint256"
        }
      ],
      "name": "getKitty",
      "outputs": [
        {
          "internalType": "string",
          "name": "dna",
          "type": "string"
        },
        {
          "internalType": "uint256",
          "name": "birthTime",
          "type": "uint256"
        },
        {
          "internalType": "uint256",
          "name": "mumId",
          "type": "uint256"
        },
        {
          "internalType": "uint256",
          "name": "dadId",
          "type": "uint256"
        },
        {
          "internalType": "uint256",
          "name": "generation",
          "type": "uint256"
        },
        {
          "internalType": "address",
          "name": "owner",
          "type": "address"
        }
      ],
      "stateMutability": "view",
      "type": "function",
      "constant": true
    }
  ],
  "bytecode": "0x608060405234801561001057600080fd5b5060006100216100c460201b60201c565b9050806000806101000a81548173ffffffffffffffffffffffffffffffffffffffff021916908373ffffffffffffffffffffffffffffffffffffffff1602179055508073ffffffffffffffffffffffffffffffffffffffff16600073ffffffffffffffffffffffffffffffffffffffff167f8be0079c531659141344cd1fd0a4f28419497f9722a3daafe3b4186f6b6457e060405160405180910390a3506100cc565b600033905090565b6115f8806100db6000396000f3fe608060405234801561001057600080fd5b50600436106100b45760003560e01c80638da5cb5b116100715780638da5cb5b1461018f57806395d89b41146101ad578063a9059cbb146101cb578063cb854ae7146101e7578063e98b7f4d14610217578063f2fde38b1461024c576100b4565b806306fdde03146100b957806318160ddd146100d75780636352211e146100f557806370a0823114610125578063715018a6146101555780638420f94b1461015f575b600080fd5b6100c1610268565b6040516100ce919061112a565b60405180910390f35b6100df6102a1565b6040516100ec9190611234565b60405180910390f35b61010f600480360381019061010a9190610fb7565b6102ae565b60405161011c91906110c3565b60405180910390f35b61013f600480360381019061013a9190610f11565b610332565b60405161014c9190611234565b60405180910390f35b61015d61037b565b005b61017960048036038101906101749190610f76565b6104b5565b6040516101869190611234565b60405180910390f35b610197610549565b6040516101a491906110c3565b60405180910390f35b6101b5610572565b6040516101c2919061112a565b60405180910390f35b6101e560048036038101906101e09190610f3a565b6105ab565b005b61020160048036038101906101fc9190610fb7565b6106bd565b60405161020e91906110c3565b60405180910390f35b610231600480360381019061022c9190610fb7565b6106f0565b6040516102439695949392919061114c565b60405180910390f35b61026660048036038101906102619190610f11565b61088c565b005b6040518060400160405280600d81526020017f4d696368616c4b6974746965730000000000000000000000000000000000000081525081565b6000600380549050905090565b600060038054905082106102f7576040517f08c379a00000000000000000000000000000000000000000000000000000000081526004016102ee906111b4565b60405180910390fd5b6001600083815260200190815260200160002060009054906101000a900473ffffffffffffffffffffffffffffffffffffffff169050919050565b6000600260008373ffffffffffffffffffffffffffffffffffffffff1673ffffffffffffffffffffffffffffffffffffffff168152602001908152602001600020549050919050565b610383610a35565b73ffffffffffffffffffffffffffffffffffffffff166103a1610549565b73ffffffffffffffffffffffffffffffffffffffff16146103f7576040517f08c379a00000000000000000000000000000000000000000000000000000000081526004016103ee90611214565b60405180910390fd5b600073ffffffffffffffffffffffffffffffffffffffff1660008054906101000a900473ffffffffffffffffffffffffffffffffffffffff1673ffffffffffffffffffffffffffffffffffffffff167f8be0079c531659141344cd1fd0a4f28419497f9722a3daafe3b4186f6b6457e060405160405180910390a360008060006101000a81548173ffffffffffffffffffffffffffffffffffffffff021916908373ffffffffffffffffffffffffffffffffffffffff160217905550565b60006104bf610a35565b73ffffffffffffffffffffffffffffffffffffffff166104dd610549565b73ffffffffffffffffffffffffffffffffffffffff1614610533576040517f08c379a000000000000000000000000000000000000000000000000000000000815260040161052a90611214565b60405180910390fd5b61054282600080600033610a3d565b9050919050565b60008060009054906101000a900473ffffffffffffffffffffffffffffffffffffffff16905090565b6040518060400160405280600481526020017f4d4b49540000000000000000000000000000000000000000000000000000000081525081565b600073ffffffffffffffffffffffffffffffffffffffff168273ffffffffffffffffffffffffffffffffffffffff1614156105e557600080fd5b3073ffffffffffffffffffffffffffffffffffffffff168273ffffffffffffffffffffffffffffffffffffffff16141561061e57600080fd5b6003805490508110610665576040517f08c379a000000000000000000000000000000000000000000000000000000000815260040161065c906111b4565b60405180910390fd5b61066f3382610bdb565b6106ae576040517f08c379a00000000000000000000000000000000000000000000000000000000081526004016106a5906111f4565b60405180910390fd5b6106b9338383610c47565b5050565b60016020528060005260406000206000915054906101000a900473ffffffffffffffffffffffffffffffffffffffff1681565b606060008060008060008060038881548110610735577f4e487b7100000000000000000000000000000000000000000000000000000000600052603260045260246000fd5b90600052602060002090600202019050806000018054610754906113c9565b80601f0160208091040260200160405190810160405280929190818152602001828054610780906113c9565b80156107cd5780601f106107a2576101008083540402835291602001916107cd565b820191906000526020600020905b8154815290600101906020018083116107b057829003601f168201915b505050505096508060010160009054906101000a900467ffffffffffffffff1667ffffffffffffffff1695508060010160089054906101000a900463ffffffff1663ffffffff16945080600101600c9054906101000a900463ffffffff1663ffffffff1693508060010160109054906101000a900461ffff1661ffff1692506001600089815260200190815260200160002060009054906101000a900473ffffffffffffffffffffffffffffffffffffffff1691505091939550919395565b610894610a35565b73ffffffffffffffffffffffffffffffffffffffff166108b2610549565b73ffffffffffffffffffffffffffffffffffffffff1614610908576040517f08c379a00000000000000000000000000000000000000000000000000000000081526004016108ff90611214565b60405180910390fd5b600073ffffffffffffffffffffffffffffffffffffffff168173ffffffffffffffffffffffffffffffffffffffff161415610978576040517f08c379a000000000000000000000000000000000000000000000000000000000815260040161096f906111d4565b60405180910390fd5b8073ffffffffffffffffffffffffffffffffffffffff1660008054906101000a900473ffffffffffffffffffffffffffffffffffffffff1673ffffffffffffffffffffffffffffffffffffffff167f8be0079c531659141344cd1fd0a4f28419497f9722a3daafe3b4186f6b6457e060405160405180910390a3806000806101000a81548173ffffffffffffffffffffffffffffffffffffffff021916908373ffffffffffffffffffffffffffffffffffffffff16021790555050565b600033905090565b6000806040518060a001604052808881526020014267ffffffffffffffff1681526020018763ffffffff1681526020018663ffffffff1681526020018561ffff16815250905060038190806001815401808255809150506001900390600052602060002090600202016000909190919091506000820151816000019080519060200190610acb929190610ddc565b5060208201518160010160006101000a81548167ffffffffffffffff021916908367ffffffffffffffff16021790555060408201518160010160086101000a81548163ffffffff021916908363ffffffff160217905550606082015181600101600c6101000a81548163ffffffff021916908363ffffffff16021790555060808201518160010160106101000a81548161ffff021916908361ffff160217905550505060006001600380549050610b829190611317565b90507f57bdfedb3ab59e29d46157723e7f15e09b7b59531c13d298d3ed65c34db2b6aa8488888b604051610bb994939291906110de565b60405180910390a1610bcd60008583610c47565b809250505095945050505050565b60008273ffffffffffffffffffffffffffffffffffffffff166001600084815260200190815260200160002060009054906101000a900473ffffffffffffffffffffffffffffffffffffffff1673ffffffffffffffffffffffffffffffffffffffff1614905092915050565b816001600083815260200190815260200160002060006101000a81548173ffffffffffffffffffffffffffffffffffffffff021916908373ffffffffffffffffffffffffffffffffffffffff1602179055506001600260008473ffffffffffffffffffffffffffffffffffffffff1673ffffffffffffffffffffffffffffffffffffffff1681526020019081526020016000206000828254610ce991906112c1565b92505081905550600073ffffffffffffffffffffffffffffffffffffffff168373ffffffffffffffffffffffffffffffffffffffff1614610d7c576001600260003373ffffffffffffffffffffffffffffffffffffffff1673ffffffffffffffffffffffffffffffffffffffff1681526020019081526020016000206000828254610d749190611317565b925050819055505b808273ffffffffffffffffffffffffffffffffffffffff163373ffffffffffffffffffffffffffffffffffffffff167fddf252ad1be2c89b69c2b068fc378daa952ba7f163c4a11628f55a4df523b3ef60405160405180910390a4505050565b828054610de8906113c9565b90600052602060002090601f016020900481019282610e0a5760008555610e51565b82601f10610e2357805160ff1916838001178555610e51565b82800160010185558215610e51579182015b82811115610e50578251825591602001919060010190610e35565b5b509050610e5e9190610e62565b5090565b5b80821115610e7b576000816000905550600101610e63565b5090565b6000610e92610e8d84611274565b61124f565b905082815260208101848484011115610eaa57600080fd5b610eb5848285611387565b509392505050565b600081359050610ecc81611594565b92915050565b600082601f830112610ee357600080fd5b8135610ef3848260208601610e7f565b91505092915050565b600081359050610f0b816115ab565b92915050565b600060208284031215610f2357600080fd5b6000610f3184828501610ebd565b91505092915050565b60008060408385031215610f4d57600080fd5b6000610f5b85828601610ebd565b9250506020610f6c85828601610efc565b9150509250929050565b600060208284031215610f8857600080fd5b600082013567ffffffffffffffff811115610fa257600080fd5b610fae84828501610ed2565b91505092915050565b600060208284031215610fc957600080fd5b6000610fd784828501610efc565b91505092915050565b610fe98161134b565b82525050565b6000610ffa826112a5565b61100481856112b0565b9350611014818560208601611396565b61101d816114b9565b840191505092915050565b60006110356013836112b0565b9150611040826114ca565b602082019050919050565b60006110586026836112b0565b9150611063826114f3565b604082019050919050565b600061107b6018836112b0565b915061108682611542565b602082019050919050565b600061109e6020836112b0565b91506110a98261156b565b602082019050919050565b6110bd8161137d565b82525050565b60006020820190506110d86000830184610fe0565b92915050565b60006080820190506110f36000830187610fe0565b61110060208301866110b4565b61110d60408301856110b4565b818103606083015261111f8184610fef565b905095945050505050565b600060208201905081810360008301526111448184610fef565b905092915050565b600060c08201905081810360008301526111668189610fef565b905061117560208301886110b4565b61118260408301876110b4565b61118f60608301866110b4565b61119c60808301856110b4565b6111a960a0830184610fe0565b979650505050505050565b600060208201905081810360008301526111cd81611028565b9050919050565b600060208201905081810360008301526111ed8161104b565b9050919050565b6000602082019050818103600083015261120d8161106e565b9050919050565b6000602082019050818103600083015261122d81611091565b9050919050565b600060208201905061124960008301846110b4565b92915050565b600061125961126a565b905061126582826113fb565b919050565b6000604051905090565b600067ffffffffffffffff82111561128f5761128e61148a565b5b611298826114b9565b9050602081019050919050565b600081519050919050565b600082825260208201905092915050565b60006112cc8261137d565b91506112d78361137d565b9250827fffffffffffffffffffffffffffffffffffffffffffffffffffffffffffffffff0382111561130c5761130b61142c565b5b828201905092915050565b60006113228261137d565b915061132d8361137d565b9250828210156113405761133f61142c565b5b828203905092915050565b60006113568261135d565b9050919050565b600073ffffffffffffffffffffffffffffffffffffffff82169050919050565b6000819050919050565b82818337600083830152505050565b60005b838110156113b4578082015181840152602081019050611399565b838111156113c3576000848401525b50505050565b600060028204905060018216806113e157607f821691505b602082108114156113f5576113f461145b565b5b50919050565b611404826114b9565b810181811067ffffffffffffffff821117156114235761142261148a565b5b80604052505050565b7f4e487b7100000000000000000000000000000000000000000000000000000000600052601160045260246000fd5b7f4e487b7100000000000000000000000000000000000000000000000000000000600052602260045260246000fd5b7f4e487b7100000000000000000000000000000000000000000000000000000000600052604160045260246000fd5b6000601f19601f8301169050919050565b7f546f6b656e20646f65736e277420657869737400000000000000000000000000600082015250565b7f4f776e61626c653a206e6577206f776e657220697320746865207a65726f206160008201527f6464726573730000000000000000000000000000000000000000000000000000602082015250565b7f596f7520646f6e2774206f776e207468697320746f6b656e0000000000000000600082015250565b7f4f776e61626c653a2063616c6c6572206973206e6f7420746865206f776e6572600082015250565b61159d8161134b565b81146115a857600080fd5b50565b6115b48161137d565b81146115bf57600080fd5b5056fea2646970667358221220923acff497686cc8f8ce04a23c9bd2cd69ab02bde620b6b6a061d3c88f986e3564736f6c63430008040033",
  "immutableReferences": {},
  "source": "// SPDX-License-Identifier: MIT\npragma solidity ^0.8.0;\n\nimport \"./IERC721.sol\";\nimport \"./Ownable.sol\";\n\ncontract Kittycontract is IERC721, Ownable {\n\n    string public constant override name = \"MichalKitties\";\n    string public constant override symbol = \"MKIT\";\n\n    event Birth(address owner, uint256 mumId, uint256 dadId, string dna);\n\n    struct Kitty {\n        string dna;\n        uint64 birthTime;\n        uint32 mumId;\n        uint32 dadId;\n        uint16 generation;\n    }\n\n    mapping(uint256 => address) public kittyOwner;\n    mapping(address => uint256) balances;\n\n    Kitty[] kitties;\n\n    function balanceOf(address owner) override external view returns (uint256 balance) {\n        balance = balances[owner];\n    }\n\n    function totalSupply() override external view returns (uint256 total) {\n        total = kitties.length;\n    }\n\n    function ownerOf(uint256 tokenId) override external view returns (address owner) {\n        require(tokenId < kitties.length, \"Token doesn't exist\");\n\n        owner = kittyOwner[tokenId];\n    }\n\n    function transfer(address to, uint256 tokenId) override external {\n        require(to != address(0));\n        require(to != address(this));\n        require(tokenId < kitties.length, \"Token doesn't exist\");\n        require(_owns(msg.sender, tokenId), \"You don't own this token\");\n\n        _transfer(msg.sender, to, tokenId);\n    }\n\n    function createKittyGen0(string memory dna) onlyOwner public returns(uint256) {\n        return _createKitty(dna, 0, 0, 0, msg.sender);\n    }\n\n    function getKitty(uint256 tokenId) view external returns (\n        string memory dna,\n        uint256 birthTime,\n        uint256 mumId,\n        uint256 dadId,\n        uint256 generation,\n        address owner) {\n\n        Kitty storage k = kitties[tokenId];\n\n        dna = k.dna;\n        birthTime = uint256(k.birthTime);\n        mumId = uint256(k.mumId);\n        dadId = uint256(k.dadId);\n        generation = uint256(k.generation);\n        owner = kittyOwner[tokenId];\n    }\n\n    function _createKitty(\n        string memory _dna,\n        uint256 _mumId,\n        uint256 _dadId,\n        uint256 _generation,\n        address _owner) internal returns(uint256) {\n\n        Kitty memory kitty = Kitty({\n            dna: _dna,\n            birthTime: uint64(block.timestamp),\n            mumId: uint32(_mumId),\n            dadId: uint32(_dadId),\n            generation: uint16(_generation)\n        });\n\n        kitties.push(kitty);\n        uint256 kittyId = kitties.length - 1;\n\n        emit Birth(_owner, _mumId, _dadId, _dna);\n\n        _transfer(address(0), _owner, kittyId);\n\n        return kittyId;\n    }\n\n    function _transfer(address from, address to, uint256 tokenId) internal {\n        kittyOwner[tokenId] = to;\n        balances[to] += 1;\n        if (from != address(0)) {\n            balances[msg.sender] -= 1;\n        }\n\n        emit Transfer(msg.sender, to, tokenId);\n    }\n\n    function _owns(address claimant, uint256 tokenId) internal view returns(bool) {\n        return kittyOwner[tokenId] == claimant;\n    }\n}\n",
  "sourcePath": "/Users/michal/Documents/workspace/myCryptoKitties/smartcontract/contracts/Kittycontract.sol",
  "compiler": {
    "name": "solc",
    "version": "0.8.4+commit.c7e474f2.Emscripten.clang"
  },
  "schemaVersion": "3.3.4",
  "updatedAt": "2021-04-29T05:20:52.415Z",
  "networkType": "ethereum",
  "devdoc": {
    "kind": "dev",
    "methods": {
      "balanceOf(address)": {
        "details": "Returns the number of tokens in ``owner``'s account."
      },
      "owner()": {
        "details": "Returns the address of the current owner."
      },
      "ownerOf(uint256)": {
        "details": "Returns the owner of the `tokenId` token. Requirements: - `tokenId` must exist."
      },
      "renounceOwnership()": {
        "details": "Leaves the contract without owner. It will not be possible to call `onlyOwner` functions anymore. Can only be called by the current owner. NOTE: Renouncing ownership will leave the contract without an owner, thereby removing any functionality that is only available to the owner."
      },
      "transferOwnership(address)": {
        "details": "Transfers ownership of the contract to a new account (`newOwner`). Can only be called by the current owner."
      }
    },
    "version": 1
  },
  "userdoc": {
    "kind": "user",
    "methods": {},
    "version": 1
  }
}