{
  "contractName": "Kittycontract",
  "abi": [
    {
      "anonymous": false,
      "inputs": [
        {
          "indexed": true,
          "internalType": "address",
          "name": "owner",
          "type": "address"
        },
        {
          "indexed": true,
          "internalType": "address",
          "name": "approved",
          "type": "address"
        },
        {
          "indexed": true,
          "internalType": "uint256",
          "name": "tokenId",
          "type": "uint256"
        }
      ],
      "name": "Approval",
      "type": "event"
    },
    {
      "anonymous": false,
      "inputs": [
        {
          "indexed": false,
          "internalType": "address",
          "name": "owner",
          "type": "address"
        },
        {
          "indexed": false,
          "internalType": "uint256",
          "name": "mumId",
          "type": "uint256"
        },
        {
          "indexed": false,
          "internalType": "uint256",
          "name": "dadId",
          "type": "uint256"
        },
        {
          "indexed": false,
          "internalType": "string",
          "name": "dna",
          "type": "string"
        }
      ],
      "name": "Birth",
      "type": "event"
    },
    {
      "anonymous": false,
      "inputs": [
        {
          "indexed": true,
          "internalType": "address",
          "name": "previousOwner",
          "type": "address"
        },
        {
          "indexed": true,
          "internalType": "address",
          "name": "newOwner",
          "type": "address"
        }
      ],
      "name": "OwnershipTransferred",
      "type": "event"
    },
    {
      "anonymous": false,
      "inputs": [
        {
          "indexed": true,
          "internalType": "address",
          "name": "from",
          "type": "address"
        },
        {
          "indexed": true,
          "internalType": "address",
          "name": "to",
          "type": "address"
        },
        {
          "indexed": true,
          "internalType": "uint256",
          "name": "tokenId",
          "type": "uint256"
        }
      ],
      "name": "Transfer",
      "type": "event"
    },
    {
      "inputs": [
        {
          "internalType": "uint256",
          "name": "",
          "type": "uint256"
        }
      ],
      "name": "kittyOwner",
      "outputs": [
        {
          "internalType": "address",
          "name": "",
          "type": "address"
        }
      ],
      "stateMutability": "view",
      "type": "function"
    },
    {
      "inputs": [],
      "name": "name",
      "outputs": [
        {
          "internalType": "string",
          "name": "",
          "type": "string"
        }
      ],
      "stateMutability": "view",
      "type": "function"
    },
    {
      "inputs": [],
      "name": "owner",
      "outputs": [
        {
          "internalType": "address",
          "name": "",
          "type": "address"
        }
      ],
      "stateMutability": "view",
      "type": "function"
    },
    {
      "inputs": [],
      "name": "renounceOwnership",
      "outputs": [],
      "stateMutability": "nonpayable",
      "type": "function"
    },
    {
      "inputs": [],
      "name": "symbol",
      "outputs": [
        {
          "internalType": "string",
          "name": "",
          "type": "string"
        }
      ],
      "stateMutability": "view",
      "type": "function"
    },
    {
      "inputs": [
        {
          "internalType": "address",
          "name": "newOwner",
          "type": "address"
        }
      ],
      "name": "transferOwnership",
      "outputs": [],
      "stateMutability": "nonpayable",
      "type": "function"
    },
    {
      "inputs": [
        {
          "internalType": "address",
          "name": "owner",
          "type": "address"
        }
      ],
      "name": "balanceOf",
      "outputs": [
        {
          "internalType": "uint256",
          "name": "balance",
          "type": "uint256"
        }
      ],
      "stateMutability": "view",
      "type": "function"
    },
    {
      "inputs": [],
      "name": "totalSupply",
      "outputs": [
        {
          "internalType": "uint256",
          "name": "total",
          "type": "uint256"
        }
      ],
      "stateMutability": "view",
      "type": "function"
    },
    {
      "inputs": [
        {
          "internalType": "uint256",
          "name": "tokenId",
          "type": "uint256"
        }
      ],
      "name": "ownerOf",
      "outputs": [
        {
          "internalType": "address",
          "name": "owner",
          "type": "address"
        }
      ],
      "stateMutability": "view",
      "type": "function"
    },
    {
      "inputs": [
        {
          "internalType": "address",
          "name": "to",
          "type": "address"
        },
        {
          "internalType": "uint256",
          "name": "tokenId",
          "type": "uint256"
        }
      ],
      "name": "transfer",
      "outputs": [],
      "stateMutability": "nonpayable",
      "type": "function"
    },
    {
      "inputs": [
        {
          "internalType": "string",
          "name": "_dna",
          "type": "string"
        }
      ],
      "name": "createKittyGen0",
      "outputs": [],
      "stateMutability": "nonpayable",
      "type": "function"
    }
  ],
  "bytecode": "0x608060405234801561001057600080fd5b5060006100216100c460201b60201c565b9050806000806101000a81548173ffffffffffffffffffffffffffffffffffffffff021916908373ffffffffffffffffffffffffffffffffffffffff1602179055508073ffffffffffffffffffffffffffffffffffffffff16600073ffffffffffffffffffffffffffffffffffffffff167f8be0079c531659141344cd1fd0a4f28419497f9722a3daafe3b4186f6b6457e060405160405180910390a3506100cc565b600033905090565b61139b806100db6000396000f3fe608060405234801561001057600080fd5b50600436106100a95760003560e01c80638420f94b116100715780638420f94b146101545780638da5cb5b1461017057806395d89b411461018e578063a9059cbb146101ac578063cb854ae7146101c8578063f2fde38b146101f8576100a9565b806306fdde03146100ae57806318160ddd146100cc5780636352211e146100ea57806370a082311461011a578063715018a61461014a575b600080fd5b6100b6610214565b6040516100c39190610f35565b60405180910390f35b6100d461024d565b6040516100e19190610fd7565b60405180910390f35b61010460048036038101906100ff9190610dc2565b61025a565b6040516101119190610ece565b60405180910390f35b610134600480360381019061012f9190610d1c565b6102de565b6040516101419190610fd7565b60405180910390f35b610152610327565b005b61016e60048036038101906101699190610d81565b610461565b005b6101786104f0565b6040516101859190610ece565b60405180910390f35b610196610519565b6040516101a39190610f35565b60405180910390f35b6101c660048036038101906101c19190610d45565b610552565b005b6101e260048036038101906101dd9190610dc2565b610664565b6040516101ef9190610ece565b60405180910390f35b610212600480360381019061020d9190610d1c565b610697565b005b6040518060400160405280600d81526020017f4d696368616c4b6974746965730000000000000000000000000000000000000081525081565b6000600380549050905090565b600060038054905082106102a3576040517f08c379a000000000000000000000000000000000000000000000000000000000815260040161029a90610f57565b60405180910390fd5b6001600083815260200190815260200160002060009054906101000a900473ffffffffffffffffffffffffffffffffffffffff169050919050565b6000600260008373ffffffffffffffffffffffffffffffffffffffff1673ffffffffffffffffffffffffffffffffffffffff168152602001908152602001600020549050919050565b61032f610840565b73ffffffffffffffffffffffffffffffffffffffff1661034d6104f0565b73ffffffffffffffffffffffffffffffffffffffff16146103a3576040517f08c379a000000000000000000000000000000000000000000000000000000000815260040161039a90610fb7565b60405180910390fd5b600073ffffffffffffffffffffffffffffffffffffffff1660008054906101000a900473ffffffffffffffffffffffffffffffffffffffff1673ffffffffffffffffffffffffffffffffffffffff167f8be0079c531659141344cd1fd0a4f28419497f9722a3daafe3b4186f6b6457e060405160405180910390a360008060006101000a81548173ffffffffffffffffffffffffffffffffffffffff021916908373ffffffffffffffffffffffffffffffffffffffff160217905550565b610469610840565b73ffffffffffffffffffffffffffffffffffffffff166104876104f0565b73ffffffffffffffffffffffffffffffffffffffff16146104dd576040517f08c379a00000000000000000000000000000000000000000000000000000000081526004016104d490610fb7565b60405180910390fd5b6104ec81600080600033610848565b5050565b60008060009054906101000a900473ffffffffffffffffffffffffffffffffffffffff16905090565b6040518060400160405280600481526020017f4d4b49540000000000000000000000000000000000000000000000000000000081525081565b600073ffffffffffffffffffffffffffffffffffffffff168273ffffffffffffffffffffffffffffffffffffffff16141561058c57600080fd5b3073ffffffffffffffffffffffffffffffffffffffff168273ffffffffffffffffffffffffffffffffffffffff1614156105c557600080fd5b600380549050811061060c576040517f08c379a000000000000000000000000000000000000000000000000000000000815260040161060390610f57565b60405180910390fd5b61061633826109e6565b610655576040517f08c379a000000000000000000000000000000000000000000000000000000000815260040161064c90610f97565b60405180910390fd5b610660338383610a52565b5050565b60016020528060005260406000206000915054906101000a900473ffffffffffffffffffffffffffffffffffffffff1681565b61069f610840565b73ffffffffffffffffffffffffffffffffffffffff166106bd6104f0565b73ffffffffffffffffffffffffffffffffffffffff1614610713576040517f08c379a000000000000000000000000000000000000000000000000000000000815260040161070a90610fb7565b60405180910390fd5b600073ffffffffffffffffffffffffffffffffffffffff168173ffffffffffffffffffffffffffffffffffffffff161415610783576040517f08c379a000000000000000000000000000000000000000000000000000000000815260040161077a90610f77565b60405180910390fd5b8073ffffffffffffffffffffffffffffffffffffffff1660008054906101000a900473ffffffffffffffffffffffffffffffffffffffff1673ffffffffffffffffffffffffffffffffffffffff167f8be0079c531659141344cd1fd0a4f28419497f9722a3daafe3b4186f6b6457e060405160405180910390a3806000806101000a81548173ffffffffffffffffffffffffffffffffffffffff021916908373ffffffffffffffffffffffffffffffffffffffff16021790555050565b600033905090565b6000806040518060a001604052808881526020014267ffffffffffffffff1681526020018763ffffffff1681526020018663ffffffff1681526020018561ffff168152509050600381908060018154018082558091505060019003906000526020600020906002020160009091909190915060008201518160000190805190602001906108d6929190610be7565b5060208201518160010160006101000a81548167ffffffffffffffff021916908367ffffffffffffffff16021790555060408201518160010160086101000a81548163ffffffff021916908363ffffffff160217905550606082015181600101600c6101000a81548163ffffffff021916908363ffffffff16021790555060808201518160010160106101000a81548161ffff021916908361ffff16021790555050506000600160038054905061098d91906110ba565b90507f57bdfedb3ab59e29d46157723e7f15e09b7b59531c13d298d3ed65c34db2b6aa8488888b6040516109c49493929190610ee9565b60405180910390a16109d860008583610a52565b809250505095945050505050565b60008273ffffffffffffffffffffffffffffffffffffffff166001600084815260200190815260200160002060009054906101000a900473ffffffffffffffffffffffffffffffffffffffff1673ffffffffffffffffffffffffffffffffffffffff1614905092915050565b816001600083815260200190815260200160002060006101000a81548173ffffffffffffffffffffffffffffffffffffffff021916908373ffffffffffffffffffffffffffffffffffffffff1602179055506001600260008473ffffffffffffffffffffffffffffffffffffffff1673ffffffffffffffffffffffffffffffffffffffff1681526020019081526020016000206000828254610af49190611064565b92505081905550600073ffffffffffffffffffffffffffffffffffffffff168373ffffffffffffffffffffffffffffffffffffffff1614610b87576001600260003373ffffffffffffffffffffffffffffffffffffffff1673ffffffffffffffffffffffffffffffffffffffff1681526020019081526020016000206000828254610b7f91906110ba565b925050819055505b808273ffffffffffffffffffffffffffffffffffffffff163373ffffffffffffffffffffffffffffffffffffffff167fddf252ad1be2c89b69c2b068fc378daa952ba7f163c4a11628f55a4df523b3ef60405160405180910390a4505050565b828054610bf39061116c565b90600052602060002090601f016020900481019282610c155760008555610c5c565b82601f10610c2e57805160ff1916838001178555610c5c565b82800160010185558215610c5c579182015b82811115610c5b578251825591602001919060010190610c40565b5b509050610c699190610c6d565b5090565b5b80821115610c86576000816000905550600101610c6e565b5090565b6000610c9d610c9884611017565b610ff2565b905082815260208101848484011115610cb557600080fd5b610cc084828561112a565b509392505050565b600081359050610cd781611337565b92915050565b600082601f830112610cee57600080fd5b8135610cfe848260208601610c8a565b91505092915050565b600081359050610d168161134e565b92915050565b600060208284031215610d2e57600080fd5b6000610d3c84828501610cc8565b91505092915050565b60008060408385031215610d5857600080fd5b6000610d6685828601610cc8565b9250506020610d7785828601610d07565b9150509250929050565b600060208284031215610d9357600080fd5b600082013567ffffffffffffffff811115610dad57600080fd5b610db984828501610cdd565b91505092915050565b600060208284031215610dd457600080fd5b6000610de284828501610d07565b91505092915050565b610df4816110ee565b82525050565b6000610e0582611048565b610e0f8185611053565b9350610e1f818560208601611139565b610e288161125c565b840191505092915050565b6000610e40601383611053565b9150610e4b8261126d565b602082019050919050565b6000610e63602683611053565b9150610e6e82611296565b604082019050919050565b6000610e86601883611053565b9150610e91826112e5565b602082019050919050565b6000610ea9602083611053565b9150610eb48261130e565b602082019050919050565b610ec881611120565b82525050565b6000602082019050610ee36000830184610deb565b92915050565b6000608082019050610efe6000830187610deb565b610f0b6020830186610ebf565b610f186040830185610ebf565b8181036060830152610f2a8184610dfa565b905095945050505050565b60006020820190508181036000830152610f4f8184610dfa565b905092915050565b60006020820190508181036000830152610f7081610e33565b9050919050565b60006020820190508181036000830152610f9081610e56565b9050919050565b60006020820190508181036000830152610fb081610e79565b9050919050565b60006020820190508181036000830152610fd081610e9c565b9050919050565b6000602082019050610fec6000830184610ebf565b92915050565b6000610ffc61100d565b9050611008828261119e565b919050565b6000604051905090565b600067ffffffffffffffff8211156110325761103161122d565b5b61103b8261125c565b9050602081019050919050565b600081519050919050565b600082825260208201905092915050565b600061106f82611120565b915061107a83611120565b9250827fffffffffffffffffffffffffffffffffffffffffffffffffffffffffffffffff038211156110af576110ae6111cf565b5b828201905092915050565b60006110c582611120565b91506110d083611120565b9250828210156110e3576110e26111cf565b5b828203905092915050565b60006110f982611100565b9050919050565b600073ffffffffffffffffffffffffffffffffffffffff82169050919050565b6000819050919050565b82818337600083830152505050565b60005b8381101561115757808201518184015260208101905061113c565b83811115611166576000848401525b50505050565b6000600282049050600182168061118457607f821691505b60208210811415611198576111976111fe565b5b50919050565b6111a78261125c565b810181811067ffffffffffffffff821117156111c6576111c561122d565b5b80604052505050565b7f4e487b7100000000000000000000000000000000000000000000000000000000600052601160045260246000fd5b7f4e487b7100000000000000000000000000000000000000000000000000000000600052602260045260246000fd5b7f4e487b7100000000000000000000000000000000000000000000000000000000600052604160045260246000fd5b6000601f19601f8301169050919050565b7f546f6b656e20646f65736e277420657869737400000000000000000000000000600082015250565b7f4f776e61626c653a206e6577206f776e657220697320746865207a65726f206160008201527f6464726573730000000000000000000000000000000000000000000000000000602082015250565b7f596f7520646f6e2774206f776e207468697320746f6b656e0000000000000000600082015250565b7f4f776e61626c653a2063616c6c6572206973206e6f7420746865206f776e6572600082015250565b611340816110ee565b811461134b57600080fd5b50565b61135781611120565b811461136257600080fd5b5056fea2646970667358221220da41ea9a3bdf9bdd1fe559832d7f22f344a11fc6e366b7c8060fb6efdfced1d364736f6c63430008040033",
  "immutableReferences": {},
  "source": "// SPDX-License-Identifier: MIT\npragma solidity ^0.8.0;\n\nimport \"./IERC721.sol\";\nimport \"./Ownable.sol\";\n\ncontract Kittycontract is IERC721, Ownable {\n\n    string public constant override name = \"MichalKitties\";\n    string public constant override symbol = \"MKIT\";\n\n    event Birth(address owner, uint256 mumId, uint256 dadId, string dna);\n\n    struct Kitty {\n        string dna;\n        uint64 birthTime;\n        uint32 mumId;\n        uint32 dadId;\n        uint16 generation;\n    }\n\n    mapping(uint256 => address) public kittyOwner;\n    mapping(address => uint256) balances;\n\n    Kitty[] kitties;\n\n    function balanceOf(address owner) override external view returns (uint256 balance) {\n        balance = balances[owner];\n    }\n\n    function totalSupply() override external view returns (uint256 total) {\n        total = kitties.length;\n    }\n\n    function ownerOf(uint256 tokenId) override external view returns (address owner) {\n        require(tokenId < kitties.length, \"Token doesn't exist\");\n\n        owner = kittyOwner[tokenId];\n    }\n\n    function transfer(address to, uint256 tokenId) override external {\n        require(to != address(0));\n        require(to != address(this));\n        require(tokenId < kitties.length, \"Token doesn't exist\");\n        require(_owns(msg.sender, tokenId), \"You don't own this token\");\n\n        _transfer(msg.sender, to, tokenId);\n    }\n\n    function createKittyGen0(string memory _dna) onlyOwner public {\n        _createKitty(_dna, 0, 0, 0, msg.sender);\n    }\n\n    function _createKitty(\n        string memory _dna,\n        uint256 _mumId,\n        uint256 _dadId,\n        uint256 _generation,\n        address _owner) internal returns(uint256) {\n\n        Kitty memory kitty = Kitty({\n            dna: _dna,\n            birthTime: uint64(block.timestamp),\n            mumId: uint32(_mumId),\n            dadId: uint32(_dadId),\n            generation: uint16(_generation)\n        });\n\n        kitties.push(kitty);\n        uint256 kittyId = kitties.length - 1;\n\n        emit Birth(_owner, _mumId, _dadId, _dna);\n\n        _transfer(address(0), _owner, kittyId);\n\n        return kittyId;\n    }\n\n    function _transfer(address from, address to, uint256 tokenId) internal {\n        kittyOwner[tokenId] = to;\n        balances[to] += 1;\n        if (from != address(0)) {\n            balances[msg.sender] -= 1;\n        }\n\n        emit Transfer(msg.sender, to, tokenId);\n    }\n\n    function _owns(address claimant, uint256 tokenId) internal view returns(bool) {\n        return kittyOwner[tokenId] == claimant;\n    }\n}\n",
  "sourcePath": "/Users/michal/Documents/workspace/myCryptoKitties/smartcontract/contracts/Kittycontract.sol",
  "compiler": {
    "name": "solc",
    "version": "0.8.4+commit.c7e474f2.Emscripten.clang"
  },
  "schemaVersion": "3.3.4",
  "updatedAt": "2021-04-26T07:19:12.287Z",
  "devdoc": {
    "kind": "dev",
    "methods": {
      "balanceOf(address)": {
        "details": "Returns the number of tokens in ``owner``'s account."
      },
      "owner()": {
        "details": "Returns the address of the current owner."
      },
      "ownerOf(uint256)": {
        "details": "Returns the owner of the `tokenId` token. Requirements: - `tokenId` must exist."
      },
      "renounceOwnership()": {
        "details": "Leaves the contract without owner. It will not be possible to call `onlyOwner` functions anymore. Can only be called by the current owner. NOTE: Renouncing ownership will leave the contract without an owner, thereby removing any functionality that is only available to the owner."
      },
      "transferOwnership(address)": {
        "details": "Transfers ownership of the contract to a new account (`newOwner`). Can only be called by the current owner."
      }
    },
    "version": 1
  },
  "userdoc": {
    "kind": "user",
    "methods": {},
    "version": 1
  }
}