{
  "contractName": "Kittycontract",
  "abi": [
    {
      "anonymous": false,
      "inputs": [
        {
          "indexed": true,
          "internalType": "address",
          "name": "owner",
          "type": "address"
        },
        {
          "indexed": true,
          "internalType": "address",
          "name": "approved",
          "type": "address"
        },
        {
          "indexed": true,
          "internalType": "uint256",
          "name": "tokenId",
          "type": "uint256"
        }
      ],
      "name": "Approval",
      "type": "event"
    },
    {
      "anonymous": false,
      "inputs": [
        {
          "indexed": true,
          "internalType": "address",
          "name": "owner",
          "type": "address"
        },
        {
          "indexed": true,
          "internalType": "address",
          "name": "operator",
          "type": "address"
        },
        {
          "indexed": false,
          "internalType": "bool",
          "name": "approved",
          "type": "bool"
        }
      ],
      "name": "ApprovalForAll",
      "type": "event"
    },
    {
      "anonymous": false,
      "inputs": [
        {
          "indexed": false,
          "internalType": "address",
          "name": "owner",
          "type": "address"
        },
        {
          "indexed": false,
          "internalType": "uint256",
          "name": "mumId",
          "type": "uint256"
        },
        {
          "indexed": false,
          "internalType": "uint256",
          "name": "dadId",
          "type": "uint256"
        },
        {
          "indexed": false,
          "internalType": "string",
          "name": "dna",
          "type": "string"
        }
      ],
      "name": "Birth",
      "type": "event"
    },
    {
      "anonymous": false,
      "inputs": [
        {
          "indexed": true,
          "internalType": "address",
          "name": "previousOwner",
          "type": "address"
        },
        {
          "indexed": true,
          "internalType": "address",
          "name": "newOwner",
          "type": "address"
        }
      ],
      "name": "OwnershipTransferred",
      "type": "event"
    },
    {
      "anonymous": false,
      "inputs": [
        {
          "indexed": true,
          "internalType": "address",
          "name": "from",
          "type": "address"
        },
        {
          "indexed": true,
          "internalType": "address",
          "name": "to",
          "type": "address"
        },
        {
          "indexed": true,
          "internalType": "uint256",
          "name": "tokenId",
          "type": "uint256"
        }
      ],
      "name": "Transfer",
      "type": "event"
    },
    {
      "inputs": [
        {
          "internalType": "uint256",
          "name": "",
          "type": "uint256"
        }
      ],
      "name": "kittyOwner",
      "outputs": [
        {
          "internalType": "address",
          "name": "",
          "type": "address"
        }
      ],
      "stateMutability": "view",
      "type": "function",
      "constant": true
    },
    {
      "inputs": [],
      "name": "name",
      "outputs": [
        {
          "internalType": "string",
          "name": "",
          "type": "string"
        }
      ],
      "stateMutability": "view",
      "type": "function",
      "constant": true
    },
    {
      "inputs": [],
      "name": "owner",
      "outputs": [
        {
          "internalType": "address",
          "name": "",
          "type": "address"
        }
      ],
      "stateMutability": "view",
      "type": "function",
      "constant": true
    },
    {
      "inputs": [],
      "name": "renounceOwnership",
      "outputs": [],
      "stateMutability": "nonpayable",
      "type": "function"
    },
    {
      "inputs": [],
      "name": "symbol",
      "outputs": [
        {
          "internalType": "string",
          "name": "",
          "type": "string"
        }
      ],
      "stateMutability": "view",
      "type": "function",
      "constant": true
    },
    {
      "inputs": [
        {
          "internalType": "address",
          "name": "newOwner",
          "type": "address"
        }
      ],
      "name": "transferOwnership",
      "outputs": [],
      "stateMutability": "nonpayable",
      "type": "function"
    },
    {
      "inputs": [
        {
          "internalType": "bytes4",
          "name": "_interfaceId",
          "type": "bytes4"
        }
      ],
      "name": "supportsInterface",
      "outputs": [
        {
          "internalType": "bool",
          "name": "",
          "type": "bool"
        }
      ],
      "stateMutability": "pure",
      "type": "function",
      "constant": true
    },
    {
      "inputs": [
        {
          "internalType": "address",
          "name": "owner",
          "type": "address"
        }
      ],
      "name": "balanceOf",
      "outputs": [
        {
          "internalType": "uint256",
          "name": "balance",
          "type": "uint256"
        }
      ],
      "stateMutability": "view",
      "type": "function",
      "constant": true
    },
    {
      "inputs": [],
      "name": "totalSupply",
      "outputs": [
        {
          "internalType": "uint256",
          "name": "total",
          "type": "uint256"
        }
      ],
      "stateMutability": "view",
      "type": "function",
      "constant": true
    },
    {
      "inputs": [
        {
          "internalType": "uint256",
          "name": "tokenId",
          "type": "uint256"
        }
      ],
      "name": "ownerOf",
      "outputs": [
        {
          "internalType": "address",
          "name": "owner",
          "type": "address"
        }
      ],
      "stateMutability": "view",
      "type": "function",
      "constant": true
    },
    {
      "inputs": [
        {
          "internalType": "address",
          "name": "to",
          "type": "address"
        },
        {
          "internalType": "uint256",
          "name": "tokenId",
          "type": "uint256"
        }
      ],
      "name": "transfer",
      "outputs": [],
      "stateMutability": "nonpayable",
      "type": "function"
    },
    {
      "inputs": [
        {
          "internalType": "address",
          "name": "_from",
          "type": "address"
        },
        {
          "internalType": "address",
          "name": "_to",
          "type": "address"
        },
        {
          "internalType": "uint256",
          "name": "_tokenId",
          "type": "uint256"
        }
      ],
      "name": "safeTransferFrom",
      "outputs": [],
      "stateMutability": "nonpayable",
      "type": "function"
    },
    {
      "inputs": [
        {
          "internalType": "address",
          "name": "_from",
          "type": "address"
        },
        {
          "internalType": "address",
          "name": "_to",
          "type": "address"
        },
        {
          "internalType": "uint256",
          "name": "_tokenId",
          "type": "uint256"
        },
        {
          "internalType": "bytes",
          "name": "data",
          "type": "bytes"
        }
      ],
      "name": "safeTransferFrom",
      "outputs": [],
      "stateMutability": "nonpayable",
      "type": "function"
    },
    {
      "inputs": [
        {
          "internalType": "address",
          "name": "_from",
          "type": "address"
        },
        {
          "internalType": "address",
          "name": "_to",
          "type": "address"
        },
        {
          "internalType": "uint256",
          "name": "_tokenId",
          "type": "uint256"
        }
      ],
      "name": "transferFrom",
      "outputs": [],
      "stateMutability": "nonpayable",
      "type": "function"
    },
    {
      "inputs": [
        {
          "internalType": "address",
          "name": "_approved",
          "type": "address"
        },
        {
          "internalType": "uint256",
          "name": "_tokenId",
          "type": "uint256"
        }
      ],
      "name": "approve",
      "outputs": [],
      "stateMutability": "nonpayable",
      "type": "function"
    },
    {
      "inputs": [
        {
          "internalType": "address",
          "name": "_operator",
          "type": "address"
        },
        {
          "internalType": "bool",
          "name": "_approved",
          "type": "bool"
        }
      ],
      "name": "setApprovalForAll",
      "outputs": [],
      "stateMutability": "nonpayable",
      "type": "function"
    },
    {
      "inputs": [
        {
          "internalType": "uint256",
          "name": "_tokenId",
          "type": "uint256"
        }
      ],
      "name": "getApproved",
      "outputs": [
        {
          "internalType": "address",
          "name": "",
          "type": "address"
        }
      ],
      "stateMutability": "view",
      "type": "function",
      "constant": true
    },
    {
      "inputs": [
        {
          "internalType": "address",
          "name": "_owner",
          "type": "address"
        },
        {
          "internalType": "address",
          "name": "_operator",
          "type": "address"
        }
      ],
      "name": "isApprovedForAll",
      "outputs": [
        {
          "internalType": "bool",
          "name": "",
          "type": "bool"
        }
      ],
      "stateMutability": "view",
      "type": "function",
      "constant": true
    },
    {
      "inputs": [
        {
          "internalType": "string",
          "name": "dna",
          "type": "string"
        }
      ],
      "name": "createKittyGen0",
      "outputs": [
        {
          "internalType": "uint256",
          "name": "",
          "type": "uint256"
        }
      ],
      "stateMutability": "nonpayable",
      "type": "function"
    },
    {
      "inputs": [
        {
          "internalType": "uint256",
          "name": "tokenId",
          "type": "uint256"
        }
      ],
      "name": "getKitty",
      "outputs": [
        {
          "internalType": "string",
          "name": "dna",
          "type": "string"
        },
        {
          "internalType": "uint256",
          "name": "birthTime",
          "type": "uint256"
        },
        {
          "internalType": "uint256",
          "name": "mumId",
          "type": "uint256"
        },
        {
          "internalType": "uint256",
          "name": "dadId",
          "type": "uint256"
        },
        {
          "internalType": "uint256",
          "name": "generation",
          "type": "uint256"
        },
        {
          "internalType": "address",
          "name": "owner",
          "type": "address"
        }
      ],
      "stateMutability": "view",
      "type": "function",
      "constant": true
    },
    {
      "inputs": [
        {
          "internalType": "uint256",
          "name": "dadId",
          "type": "uint256"
        },
        {
          "internalType": "uint256",
          "name": "mumId",
          "type": "uint256"
        }
      ],
      "name": "breed",
      "outputs": [
        {
          "internalType": "uint256",
          "name": "",
          "type": "uint256"
        }
      ],
      "stateMutability": "nonpayable",
      "type": "function"
    },
    {
      "inputs": [],
      "name": "getMyKittyIds",
      "outputs": [
        {
          "internalType": "uint256[]",
          "name": "",
          "type": "uint256[]"
        }
      ],
      "stateMutability": "view",
      "type": "function",
      "constant": true
    }
  ],
  "bytecode": "0x608060405234801561001057600080fd5b50600080546001600160a01b031916339081178255604051909182917f8be0079c531659141344cd1fd0a4f28419497f9722a3daafe3b4186f6b6457e0908290a350611f09806100616000396000f3fe608060405234801561001057600080fd5b50600436106101425760003560e01c80638da5cb5b116100b8578063cb854ae71161007c578063cb854ae7146102e4578063cc99c8aa1461030d578063d9ecad7b14610322578063e985e9c514610335578063e98b7f4d14610371578063f2fde38b1461039657600080fd5b80638da5cb5b1461027757806395d89b4114610288578063a22cb465146102ab578063a9059cbb146102be578063b88d4fde146102d157600080fd5b806323b872dd1161010a57806323b872dd146101fa57806342842e0e1461020d5780636352211e1461022057806370a0823114610233578063715018a61461025c5780638420f94b1461026457600080fd5b806301ffc9a71461014757806306fdde031461016f578063081812fc146101a8578063095ea7b3146101d357806318160ddd146101e8575b600080fd5b61015a610155366004611a4b565b6103a9565b60405190151581526020015b60405180910390f35b61019b6040518060400160405280600d81526020016c4d696368616c4b69747469657360981b81525081565b6040516101669190611bfb565b6101bb6101b6366004611ac9565b6103e0565b6040516001600160a01b039091168152602001610166565b6101e66101e1366004611a22565b610429565b005b6005545b604051908152602001610166565b6101e6610208366004611934565b61050c565b6101e661021b366004611934565b6105af565b6101bb61022e366004611ac9565b61065d565b6101ec6102413660046118e8565b6001600160a01b031660009081526002602052604090205490565b6101e661069d565b6101ec610272366004611a83565b610711565b6000546001600160a01b03166101bb565b61019b604051806040016040528060048152602001631352d25560e21b81525081565b6101e66102b93660046119e8565b610750565b6101e66102cc366004611a22565b6107d2565b6101e66102df36600461196f565b610881565b6101bb6102f2366004611ac9565b6001602052600090815260409020546001600160a01b031681565b610315610926565b6040516101669190611bb7565b6101ec610330366004611ae1565b6109f2565b61015a610343366004611902565b6001600160a01b03918216600090815260046020908152604080832093909416825291909152205460ff1690565b61038461037f366004611ac9565b610c69565b60405161016696959493929190611c0e565b6101e66103a43660046118e8565b610d92565b60006001600160e01b031982166380ac58cd60e01b14806103da57506001600160e01b031982166301ffc9a760e01b145b92915050565b600554600090821061040d5760405162461bcd60e51b815260040161040490611c53565b60405180910390fd5b506000908152600360205260409020546001600160a01b031690565b600554811061044a5760405162461bcd60e51b815260040161040490611c53565b6104543382610e7c565b6104b35760405162461bcd60e51b815260206004820152602a60248201527f596f7520617265206e6f7420617574686f72697a6520746f206d616e616765206044820152693a3434b9903a37b5b2b760b11b6064820152608401610404565b60008181526003602052604080822080546001600160a01b0319166001600160a01b0386169081179091559051839233917f8c5be1e5ebec7d5bd14f71427d1e84f3dd0314c0f7b2291e5b200ac8c7c3b9259190a45050565b600554811061052d5760405162461bcd60e51b815260040161040490611c53565b6105373382610e7c565b6105535760405162461bcd60e51b815260040161040490611c80565b61055d8382610eee565b6105795760405162461bcd60e51b815260040161040490611d38565b6001600160a01b03821661059f5760405162461bcd60e51b815260040161040490611ccc565b6105aa838383610f0e565b505050565b60055481106105d05760405162461bcd60e51b815260040161040490611c53565b6105da3382610e7c565b6105f65760405162461bcd60e51b815260040161040490611c80565b6106008382610eee565b61061c5760405162461bcd60e51b815260040161040490611d38565b6001600160a01b0382166106425760405162461bcd60e51b815260040161040490611ccc565b6105aa83838360405180602001604052806000815250610ffa565b60055460009082106106815760405162461bcd60e51b815260040161040490611c53565b506000908152600160205260409020546001600160a01b031690565b6000546001600160a01b031633146106c75760405162461bcd60e51b815260040161040490611d03565b600080546040516001600160a01b03909116907f8be0079c531659141344cd1fd0a4f28419497f9722a3daafe3b4186f6b6457e0908390a3600080546001600160a01b0319169055565b600080546001600160a01b0316331461073c5760405162461bcd60e51b815260040161040490611d03565b6103da8260008060003361101a565b919050565b336001600160a01b038316141561076657600080fd5b3360008181526004602090815260408083206001600160a01b03871680855290835292819020805460ff191686151590811790915590519081529192917f17307eab39ab6107e8899845ad3d59bd9653f200f220920489ca2b5937696c31910160405180910390a35050565b6001600160a01b0382166107e557600080fd5b6001600160a01b0382163014156107fb57600080fd5b600554811061081c5760405162461bcd60e51b815260040161040490611c53565b6108263382610eee565b6108725760405162461bcd60e51b815260206004820152601860248201527f596f7520646f6e2774206f776e207468697320746f6b656e00000000000000006044820152606401610404565b61087d338383610f0e565b5050565b60055482106108a25760405162461bcd60e51b815260040161040490611c53565b6108ac3383610e7c565b6108c85760405162461bcd60e51b815260040161040490611c80565b6108d28483610eee565b6108ee5760405162461bcd60e51b815260040161040490611d38565b6001600160a01b0383166109145760405162461bcd60e51b815260040161040490611ccc565b61092084848484610ffa565b50505050565b60055460609060009067ffffffffffffffff81111561095557634e487b7160e01b600052604160045260246000fd5b60405190808252806020026020018201604052801561097e578160200160208202803683370190505b5090506000805b6005548110156109ea576109993382610eee565b156109d857808383815181106109bf57634e487b7160e01b600052603260045260246000fd5b60209081029190910101526109d5826001611d9f565b91505b806109e281611e49565b915050610985565b509092915050565b60006109fe3384610eee565b610a0757600080fd5b610a113383610eee565b610a1a57600080fd5b600060058381548110610a3d57634e487b7160e01b600052603260045260246000fd5b90600052602060002090600202016000019050600060058581548110610a7357634e487b7160e01b600052603260045260246000fd5b906000526020600020906002020160000190506000610ba4838054610a9790611e0e565b80601f0160208091040260200160405190810160405280929190818152602001828054610ac390611e0e565b8015610b105780601f10610ae557610100808354040283529160200191610b10565b820191906000526020600020905b815481529060010190602001808311610af357829003601f168201915b5050505050838054610b2190611e0e565b80601f0160208091040260200160405190810160405280929190818152602001828054610b4d90611e0e565b8015610b9a5780601f10610b6f57610100808354040283529160200191610b9a565b820191906000526020600020905b815481529060010190602001808311610b7d57829003601f168201915b5050505050611184565b90506000600260058881548110610bcb57634e487b7160e01b600052603260045260246000fd5b906000526020600020906002020160010160109054906101000a900461ffff1660058881548110610c0c57634e487b7160e01b600052603260045260246000fd5b906000526020600020906002020160010160109054906101000a900461ffff16610c369190611d79565b610c409190611db7565b610c4b906001611d79565b61ffff169050610c5e828789843361101a565b979650505050505050565b606060008060008060008060058881548110610c9557634e487b7160e01b600052603260045260246000fd5b90600052602060002090600202019050806000018054610cb490611e0e565b80601f0160208091040260200160405190810160405280929190818152602001828054610ce090611e0e565b8015610d2d5780601f10610d0257610100808354040283529160200191610d2d565b820191906000526020600020905b815481529060010190602001808311610d1057829003601f168201915b5050505060019283015460009a8b5260209390935250604090982054979867ffffffffffffffff821698600160401b830463ffffffff9081169950600160601b8404169750600160801b90920461ffff1695506001600160a01b039091169350915050565b6000546001600160a01b03163314610dbc5760405162461bcd60e51b815260040161040490611d03565b6001600160a01b038116610e215760405162461bcd60e51b815260206004820152602660248201527f4f776e61626c653a206e6577206f776e657220697320746865207a65726f206160448201526564647265737360d01b6064820152608401610404565b600080546040516001600160a01b03808516939216917f8be0079c531659141344cd1fd0a4f28419497f9722a3daafe3b4186f6b6457e091a3600080546001600160a01b0319166001600160a01b0392909216919091179055565b6000610e888383610eee565b80610eac57506000828152600360205260409020546001600160a01b038481169116145b80610ee757506000828152600160209081526040808320546001600160a01b03908116845260048352818420908716845290915290205460ff165b9392505050565b6000908152600160205260409020546001600160a01b0391821691161490565b600081815260016020818152604080842080546001600160a01b0319166001600160a01b038816908117909155845260029091528220805491929091610f55908490611d9f565b90915550506001600160a01b03831615610fb4576001600160a01b0383166000908152600260205260408120805460019290610f92908490611df7565b9091555050600081815260036020526040902080546001600160a01b03191690555b80826001600160a01b0316846001600160a01b03167fddf252ad1be2c89b69c2b068fc378daa952ba7f163c4a11628f55a4df523b3ef60405160405180910390a4505050565b611005848484610f0e565b6110118484848461167f565b61092057600080fd5b6040805160a08101825286815267ffffffffffffffff421660208083019190915263ffffffff80881693830193909352918516606082015261ffff84166080820152600580546001810182556000918252825180519294849360029093027f036b6384b5eca791c62761152d0c79bb0604c104a5fb6f4eb0703f3154bb3db001926110a892849201906117c2565b506020820151600191820180546040850151606086015160809096015167ffffffffffffffff9094166bffffffffffffffffffffffff1990921691909117600160401b63ffffffff928316021765ffffffffffff60601b1916600160601b919095160261ffff60801b191693909317600160801b61ffff909216919091021790915560055460009161113991611df7565b90507f57bdfedb3ab59e29d46157723e7f15e09b7b59531c13d298d3ed65c34db2b6aa8488888b6040516111709493929190611b8a565b60405180910390a1610c5e60008583610f0e565b60408051602080825281830190925260609184918491600091906020820181803683370190505090506111d66002426111bd9190611e64565b6001146111ca57826111cc565b835b8260006006611738565b905061120b60026111e8600342611e64565b6111f29190611e64565b6001146111ff5782611201565b835b826006600c611738565b9050611240600261121d600542611e64565b6112279190611e64565b6001146112345782611236565b835b82600c6012611738565b90506112756002611252600842611e64565b61125c9190611e64565b600114611269578261126b565b835b8260126018611738565b90506112aa6002611287600d42611e64565b6112919190611e64565b60011461129e57826112a0565b835b826018601e611738565b905060026112b9601542611e64565b6112c39190611e64565b6001146112ff5781601e815181106112eb57634e487b7160e01b600052603260045260246000fd5b01602001516001600160f81b031916611330565b82601e8151811061132057634e487b7160e01b600052603260045260246000fd5b01602001516001600160f81b0319165b81601e8151811061135157634e487b7160e01b600052603260045260246000fd5b60200101906001600160f81b031916908160001a9053506002611375602242611e64565b61137f9190611e64565b6001146113bb5781601f815181106113a757634e487b7160e01b600052603260045260246000fd5b01602001516001600160f81b0319166113ec565b82601f815181106113dc57634e487b7160e01b600052603260045260246000fd5b01602001516001600160f81b0319165b81601f8151811061140d57634e487b7160e01b600052603260045260246000fd5b60200101906001600160f81b031916908160001a9053506000611431600542611e64565b905061148f6002611443603742611e64565b61144d9190611e64565b60011461145a578361145c565b845b83611468846006611dd8565b6004611475866001611d9f565b611480906006611dd8565b61148a9190611df7565b611738565b91506114de60026114a1605942611e64565b6114ab9190611e64565b6001146114b857836114ba565b845b836114c6846006611dd8565b6114d1906002611d9f565b6002611475866001611d9f565b915061152c60026114f0609042611e64565b6114fa9190611e64565b6001146115075783611509565b845b83611515846006611dd8565b611520906004611d9f565b60016114758682611d9f565b9150611584600261153e60e942611e64565b6115489190611e64565b6001146115555783611557565b845b83611563846006611dd8565b61156e906005611d9f565b611579856001611d9f565b61148a906006611dd8565b915060006005611595609042611e64565b61159f9190611e64565b90506115d460026115b1603742611e64565b6115bb9190611e64565b156115c657846115c8565b855b84611468846006611dd8565b925061160960026115e6605942611e64565b6115f09190611e64565b156115fb57846115fd565b855b846114c6846006611dd8565b925061163e600261161b609042611e64565b6116259190611e64565b156116305784611632565b855b84611515846006611dd8565b9250611673600261165060e942611e64565b61165a9190611e64565b156116655784611667565b855b84611563846006611dd8565b98975050505050505050565b6000833b61168f57506001611730565b604051630a85bd0160e11b815284906000906001600160a01b0383169063150b7a02906116c69033908b908a908a90600401611b4d565b602060405180830381600087803b1580156116e057600080fd5b505af11580156116f4573d6000803e3d6000fd5b505050506040513d601f19601f820116820180604052508101906117189190611a67565b6001600160e01b031916630a85bd0160e11b14925050505b949350505050565b6060825b828110156117b85785818151811061176457634e487b7160e01b600052603260045260246000fd5b602001015160f81c60f81b85828151811061178f57634e487b7160e01b600052603260045260246000fd5b60200101906001600160f81b031916908160001a905350806117b081611e49565b91505061173c565b5092949350505050565b8280546117ce90611e0e565b90600052602060002090601f0160209004810192826117f05760008555611836565b82601f1061180957805160ff1916838001178555611836565b82800160010185558215611836579182015b8281111561183657825182559160200191906001019061181b565b50611842929150611846565b5090565b5b808211156118425760008155600101611847565b600067ffffffffffffffff8084111561187657611876611ea4565b604051601f8501601f19908116603f0116810190828211818310171561189e5761189e611ea4565b816040528093508581528686860111156118b757600080fd5b858560208301376000602087830101525050509392505050565b80356001600160a01b038116811461074b57600080fd5b6000602082840312156118f9578081fd5b610ee7826118d1565b60008060408385031215611914578081fd5b61191d836118d1565b915061192b602084016118d1565b90509250929050565b600080600060608486031215611948578081fd5b611951846118d1565b925061195f602085016118d1565b9150604084013590509250925092565b60008060008060808587031215611984578081fd5b61198d856118d1565b935061199b602086016118d1565b925060408501359150606085013567ffffffffffffffff8111156119bd578182fd5b8501601f810187136119cd578182fd5b6119dc8782356020840161185b565b91505092959194509250565b600080604083850312156119fa578182fd5b611a03836118d1565b915060208301358015158114611a17578182fd5b809150509250929050565b60008060408385031215611a34578182fd5b611a3d836118d1565b946020939093013593505050565b600060208284031215611a5c578081fd5b8135610ee781611eba565b600060208284031215611a78578081fd5b8151610ee781611eba565b600060208284031215611a94578081fd5b813567ffffffffffffffff811115611aaa578182fd5b8201601f81018413611aba578182fd5b6117308482356020840161185b565b600060208284031215611ada578081fd5b5035919050565b60008060408385031215611af3578182fd5b50508035926020909101359150565b60008151808452815b81811015611b2757602081850181015186830182015201611b0b565b81811115611b385782602083870101525b50601f01601f19169290920160200192915050565b6001600160a01b0385811682528416602082015260408101839052608060608201819052600090611b8090830184611b02565b9695505050505050565b60018060a01b0385168152836020820152826040820152608060608201526000611b806080830184611b02565b6020808252825182820181905260009190848201906040850190845b81811015611bef57835183529284019291840191600101611bd3565b50909695505050505050565b602081526000610ee76020830184611b02565b60c081526000611c2160c0830189611b02565b6020830197909752506040810194909452606084019290925260808301526001600160a01b031660a090910152919050565b602080825260139082015272151bdad95b88191bd95cdb89dd08195e1a5cdd606a1b604082015260600190565b6020808252602c908201527f596f7520617265206e6f7420617574686f72697a6520746f207472616e73666560408201526b39103a3434b9903a37b5b2b760a11b606082015260800190565b60208082526018908201527f5f746f2061646472657373206973203020616464726573730000000000000000604082015260600190565b6020808252818101527f4f776e61626c653a2063616c6c6572206973206e6f7420746865206f776e6572604082015260600190565b60208082526021908201527f5f66726f6d20616464726573732069736e27742063757272656e74206f776e656040820152603960f91b606082015260800190565b600061ffff808316818516808303821115611d9657611d96611e78565b01949350505050565b60008219821115611db257611db2611e78565b500190565b600061ffff80841680611dcc57611dcc611e8e565b92169190910492915050565b6000816000190483118215151615611df257611df2611e78565b500290565b600082821015611e0957611e09611e78565b500390565b600181811c90821680611e2257607f821691505b60208210811415611e4357634e487b7160e01b600052602260045260246000fd5b50919050565b6000600019821415611e5d57611e5d611e78565b5060010190565b600082611e7357611e73611e8e565b500690565b634e487b7160e01b600052601160045260246000fd5b634e487b7160e01b600052601260045260246000fd5b634e487b7160e01b600052604160045260246000fd5b6001600160e01b031981168114611ed057600080fd5b5056fea264697066735822122095a95664520676940a2f8f7b791e63b7390e3c42057a62876ec14bb22f7c30c564736f6c63430008040033",
  "immutableReferences": {},
  "source": "// SPDX-License-Identifier: MIT\npragma solidity ^0.8.0;\n\nimport \"./IERC721.sol\";\nimport \"./Ownable.sol\";\nimport \"./IERC721Receiver.sol\";\n\ncontract Kittycontract is IERC721, Ownable {\n\n    string public constant override name = \"MichalKitties\";\n    string public constant override symbol = \"MKIT\";\n\n    bytes4 internal constant _ERC721_INTERFACE_ID = 0x80ac58cd;\n    bytes4 internal constant _ERC165_INTERFACE_ID = 0x01ffc9a7;\n\n    event Birth(address owner, uint256 mumId, uint256 dadId, string dna);\n\n    struct Kitty {\n        string dna;\n        uint64 birthTime;\n        uint32 mumId;\n        uint32 dadId;\n        uint16 generation;\n    }\n\n    mapping(uint256 => address) public kittyOwner;\n    mapping(address => uint256) balances;\n    mapping(uint256 => address) approvals;\n    mapping(address => mapping(address => bool)) approvalsForAll;\n\n    Kitty[] kitties;\n\n    function supportsInterface(bytes4 _interfaceId) external pure returns(bool) {\n        return _interfaceId == _ERC721_INTERFACE_ID || _interfaceId == _ERC165_INTERFACE_ID;\n    }\n\n    function balanceOf(address owner) override external view returns (uint256 balance) {\n        balance = balances[owner];\n    }\n\n    function totalSupply() override external view returns (uint256 total) {\n        total = kitties.length;\n    }\n\n    function ownerOf(uint256 tokenId) override external view returns (address owner) {\n        require(tokenId < kitties.length, \"Token doesn't exist\");\n\n        owner = kittyOwner[tokenId];\n    }\n\n    function transfer(address to, uint256 tokenId) override external {\n        require(to != address(0));\n        require(to != address(this));\n        require(tokenId < kitties.length, \"Token doesn't exist\");\n        require(_owns(msg.sender, tokenId), \"You don't own this token\");\n\n        _transfer(msg.sender, to, tokenId);\n    }\n\n    function safeTransferFrom(address _from, address _to, uint256 _tokenId, bytes memory data) override external {\n        require(_tokenId < kitties.length, \"Token doesn't exist\");\n        require(_isApproved(msg.sender, _tokenId), \"You are not authorize to transfer this token\");\n        require(_owns(_from, _tokenId), \"_from address isn't current owner\");\n        require(_to != address(0), \"_to address is 0 address\");\n\n        _safeTransfer(_from, _to, _tokenId, data);\n    }\n\n    function safeTransferFrom(address _from, address _to, uint256 _tokenId) override external {\n        require(_tokenId < kitties.length, \"Token doesn't exist\");\n        require(_isApproved(msg.sender, _tokenId), \"You are not authorize to transfer this token\");\n        require(_owns(_from, _tokenId), \"_from address isn't current owner\");\n        require(_to != address(0), \"_to address is 0 address\");\n\n        _safeTransfer(_from, _to, _tokenId, \"\");\n    }\n\n    function transferFrom(address _from, address _to, uint256 _tokenId) override external {\n        require(_tokenId < kitties.length, \"Token doesn't exist\");\n        require(_isApproved(msg.sender, _tokenId), \"You are not authorize to transfer this token\");\n        require(_owns(_from, _tokenId), \"_from address isn't current owner\");\n        require(_to != address(0), \"_to address is 0 address\");\n\n        _transfer(_from, _to, _tokenId);\n    }\n\n    function approve(address _approved, uint256 _tokenId) override external {\n        require(_tokenId < kitties.length, \"Token doesn't exist\");\n        require(_isApproved(msg.sender, _tokenId), \"You are not authorize to manage this token\");\n\n        approvals[_tokenId] = _approved;\n\n        emit Approval(msg.sender, _approved, _tokenId);\n    }\n\n    function setApprovalForAll(address _operator, bool _approved) override external {\n        require(msg.sender != _operator);\n\n        approvalsForAll[msg.sender][_operator] = _approved;\n\n        emit ApprovalForAll(msg.sender, _operator, _approved);\n    }\n\n    function getApproved(uint256 _tokenId) override external view returns (address) {\n        require(_tokenId < kitties.length, \"Token doesn't exist\");\n\n        return approvals[_tokenId];\n    }\n\n    function isApprovedForAll(address _owner, address _operator) override external view returns (bool) {\n        return approvalsForAll[_owner][_operator];\n    }\n\n    function createKittyGen0(string memory dna) onlyOwner public returns(uint256) {\n        return _createKitty(dna, 0, 0, 0, msg.sender);\n    }\n\n    function getKitty(uint256 tokenId) view external returns (\n        string memory dna,\n        uint256 birthTime,\n        uint256 mumId,\n        uint256 dadId,\n        uint256 generation,\n        address owner) {\n\n        Kitty storage k = kitties[tokenId];\n\n        dna = k.dna;\n        birthTime = uint256(k.birthTime);\n        mumId = uint256(k.mumId);\n        dadId = uint256(k.dadId);\n        generation = uint256(k.generation);\n        owner = kittyOwner[tokenId];\n    }\n\n    function breed(uint256 dadId, uint256 mumId) external returns(uint256) {\n        require(_owns(msg.sender, dadId));\n        require(_owns(msg.sender, mumId));\n\n        string storage mumDna = kitties[mumId].dna;\n        string storage dadDna = kitties[dadId].dna;\n\n        string memory newDna = _mixDna(mumDna, dadDna);\n        uint256 generation = (kitties[mumId].generation + kitties[dadId].generation)/2 + 1;\n\n        return _createKitty(newDna, mumId, dadId, generation, msg.sender);\n    }\n\n    function getMyKittyIds() external view returns(uint[] memory) {\n        uint[] memory senderKitties = new uint[](kitties.length);\n        uint index = 0;\n\n        for (uint i = 0; i < kitties.length; i++) {\n            if (_owns(msg.sender, i)) {\n                senderKitties[index] = i;\n                index = index + 1;\n            }\n        }\n\n        return senderKitties;\n    }\n\n    function _mixDna(string memory mumDna, string memory dadDna) internal view returns(string memory) {\n        bytes memory mumDnaBytes = bytes(mumDna);\n        bytes memory dadDnaBytes = bytes(dadDna);\n        bytes memory result = new bytes(32);\n\n        result = _copy(_getRandomNumber() % 2 == 1 ? mumDnaBytes : dadDnaBytes, result, 0, 6);\n        result = _copy(_getRandomNumber() % 3 % 2 == 1 ? mumDnaBytes : dadDnaBytes, result, 6, 12);\n        result = _copy(_getRandomNumber() % 5 % 2 == 1 ? mumDnaBytes : dadDnaBytes, result, 12, 18);\n        result = _copy(_getRandomNumber() % 8 % 2 == 1 ? mumDnaBytes : dadDnaBytes, result, 18, 24);\n        result = _copy(_getRandomNumber() % 13 % 2 == 1 ? mumDnaBytes : dadDnaBytes, result, 24, 30);\n\n        result[30] = _getRandomNumber() % 21 % 2 == 1 ? mumDnaBytes[30] : dadDnaBytes[30];\n        result[31] = _getRandomNumber() % 34 % 2 == 1 ? mumDnaBytes[31] : dadDnaBytes[31];\n\n        uint randomColorAttributes1 = _getRandomNumber() % 5;\n        result = _copy(_getRandomNumber() % 55 % 2 == 1 ? mumDnaBytes : dadDnaBytes, result, randomColorAttributes1 * 6, (randomColorAttributes1 + 1) * 6 - 4);\n        result = _copy(_getRandomNumber() % 89 % 2 == 1 ? mumDnaBytes : dadDnaBytes, result, randomColorAttributes1 * 6 + 2, (randomColorAttributes1 + 1) * 6 - 2);\n        result = _copy(_getRandomNumber() % 144 % 2 == 1 ? mumDnaBytes : dadDnaBytes, result, randomColorAttributes1 * 6 + 4, (randomColorAttributes1 + 1) * 6 - 1);\n        result = _copy(_getRandomNumber() % 233 % 2 == 1 ? mumDnaBytes : dadDnaBytes, result, randomColorAttributes1 * 6 + 5, (randomColorAttributes1 + 1) * 6);\n\n        uint randomColorAttributes2 = _getRandomNumber() % 144 % 5;\n        result = _copy(_getRandomNumber() % 55 % 2 == 0 ? mumDnaBytes : dadDnaBytes, result, randomColorAttributes2 * 6, (randomColorAttributes2 + 1) * 6 - 4);\n        result = _copy(_getRandomNumber() % 89 % 2 == 0 ? mumDnaBytes : dadDnaBytes, result, randomColorAttributes2 * 6 + 2, (randomColorAttributes2 + 1) * 6 - 2);\n        result = _copy(_getRandomNumber() % 144 % 2 == 0 ? mumDnaBytes : dadDnaBytes, result, randomColorAttributes2 * 6 + 4, (randomColorAttributes2 + 1) * 6 - 1);\n        result = _copy(_getRandomNumber() % 233 % 2 == 0 ? mumDnaBytes : dadDnaBytes, result, randomColorAttributes2 * 6 + 5, (randomColorAttributes2 + 1) * 6);\n\n        return string(result);\n    }\n\n    function _copy(bytes memory source, bytes memory result, uint from, uint to) internal pure returns(bytes memory) {\n        for (uint i = from; i < to; i++) {\n            result[i] = source[i];\n        }\n\n        return result;\n    }\n\n    function _createKitty(\n        string memory _dna,\n        uint256 _mumId,\n        uint256 _dadId,\n        uint256 _generation,\n        address _owner) internal returns(uint256) {\n\n        Kitty memory kitty = Kitty({\n            dna: _dna,\n            birthTime: uint64(block.timestamp),\n            mumId: uint32(_mumId),\n            dadId: uint32(_dadId),\n            generation: uint16(_generation)\n        });\n\n        kitties.push(kitty);\n        uint256 kittyId = kitties.length - 1;\n\n        emit Birth(_owner, _mumId, _dadId, _dna);\n\n        _transfer(address(0), _owner, kittyId);\n\n        return kittyId;\n    }\n\n    function _safeTransfer(address _from, address _to, uint256 _tokenId, bytes memory data) internal {\n        _transfer(_from, _to, _tokenId);\n        require(_checkAddress(_from, _to, _tokenId, data));\n    }\n\n    function _transfer(address from, address to, uint256 tokenId) internal {\n        kittyOwner[tokenId] = to;\n        balances[to] += 1;\n        if (from != address(0)) {\n            balances[from] -= 1;\n            delete approvals[tokenId];\n        }\n\n        emit Transfer(from, to, tokenId);\n    }\n\n    function _checkAddress(address _from, address _to, uint256 _tokenId, bytes memory data) internal returns(bool) {\n        if (!_isSmartContract(_to)) {\n            return true;\n        }\n\n        IERC721Receiver receiver = IERC721Receiver(_to);\n        bytes4 result = receiver.onERC721Received(msg.sender, _from, _tokenId, data);\n\n        return bytes4(keccak256(\"onERC721Received(address,address,uint256,bytes)\")) == result;\n    }\n\n    function _getRandomNumber() internal view returns(uint) {\n        return block.timestamp;\n    }\n\n    function _isSmartContract(address _to) internal view returns(bool) {\n        uint code;\n        assembly {\n            code := extcodesize(_to)\n        }\n\n        return code > 0;\n    }\n\n    function _isApproved(address claimant, uint256 tokenId) internal view returns(bool) {\n        return _owns(claimant, tokenId) ||\n                approvals[tokenId] == claimant ||\n                approvalsForAll[kittyOwner[tokenId]][claimant];\n    }\n\n    function _owns(address claimant, uint256 tokenId) internal view returns(bool) {\n        return kittyOwner[tokenId] == claimant;\n    }\n}\n",
  "sourcePath": "/Users/michal/Documents/workspace/myCryptoKitties/smartcontract/contracts/Kittycontract.sol",
  "compiler": {
    "name": "solc",
    "version": "0.8.4+commit.c7e474f2.Emscripten.clang"
  },
  "schemaVersion": "3.3.4",
  "updatedAt": "2021-05-17T12:41:14.292Z",
  "networkType": "ethereum",
  "devdoc": {
    "kind": "dev",
    "methods": {
      "approve(address,uint256)": {
        "details": "The zero address indicates there is no approved address.  Throws unless `msg.sender` is the current NFT owner, or an authorized  operator of the current owner.",
        "params": {
          "_approved": "The new approved NFT controller",
          "_tokenId": "The NFT to approve"
        }
      },
      "balanceOf(address)": {
        "details": "Returns the number of tokens in ``owner``'s account."
      },
      "getApproved(uint256)": {
        "details": "Throws if `_tokenId` is not a valid NFT.",
        "params": {
          "_tokenId": "The NFT to find the approved address for"
        },
        "returns": {
          "_0": "The approved address for this NFT, or the zero address if there is none"
        }
      },
      "isApprovedForAll(address,address)": {
        "params": {
          "_operator": "The address that acts on behalf of the owner",
          "_owner": "The address that owns the NFTs"
        },
        "returns": {
          "_0": "True if `_operator` is an approved operator for `_owner`, false otherwise"
        }
      },
      "owner()": {
        "details": "Returns the address of the current owner."
      },
      "ownerOf(uint256)": {
        "details": "Returns the owner of the `tokenId` token. Requirements: - `tokenId` must exist."
      },
      "renounceOwnership()": {
        "details": "Leaves the contract without owner. It will not be possible to call `onlyOwner` functions anymore. Can only be called by the current owner. NOTE: Renouncing ownership will leave the contract without an owner, thereby removing any functionality that is only available to the owner."
      },
      "safeTransferFrom(address,address,uint256)": {
        "details": "This works identically to the other function with an extra data parameter,  except this function just sets data to \"\".",
        "params": {
          "_from": "The current owner of the NFT",
          "_to": "The new owner",
          "_tokenId": "The NFT to transfer"
        }
      },
      "safeTransferFrom(address,address,uint256,bytes)": {
        "details": "Throws unless `msg.sender` is the current owner, an authorized  operator, or the approved address for this NFT. Throws if `_from` is  not the current owner. Throws if `_to` is the zero address. Throws if  `_tokenId` is not a valid NFT. When transfer is complete, this function  checks if `_to` is a smart contract (code size > 0). If so, it calls  `onERC721Received` on `_to` and throws if the return value is not  `bytes4(keccak256(\"onERC721Received(address,address,uint256,bytes)\"))`.",
        "params": {
          "_from": "The current owner of the NFT",
          "_to": "The new owner",
          "_tokenId": "The NFT to transfer",
          "data": "Additional data with no specified format, sent in call to `_to`"
        }
      },
      "setApprovalForAll(address,bool)": {
        "details": "Emits the ApprovalForAll event. The contract MUST allow  multiple operators per owner.",
        "params": {
          "_approved": "True if the operator is approved, false to revoke approval",
          "_operator": "Address to add to the set of authorized operators"
        }
      },
      "transferFrom(address,address,uint256)": {
        "details": "Throws unless `msg.sender` is the current owner, an authorized  operator, or the approved address for this NFT. Throws if `_from` is  not the current owner. Throws if `_to` is the zero address. Throws if  `_tokenId` is not a valid NFT.",
        "params": {
          "_from": "The current owner of the NFT",
          "_to": "The new owner",
          "_tokenId": "The NFT to transfer"
        }
      },
      "transferOwnership(address)": {
        "details": "Transfers ownership of the contract to a new account (`newOwner`). Can only be called by the current owner."
      }
    },
    "version": 1
  },
  "userdoc": {
    "kind": "user",
    "methods": {
      "approve(address,uint256)": {
        "notice": "Change or reaffirm the approved address for an NFT"
      },
      "getApproved(uint256)": {
        "notice": "Get the approved address for a single NFT"
      },
      "isApprovedForAll(address,address)": {
        "notice": "Query if an address is an authorized operator for another address"
      },
      "safeTransferFrom(address,address,uint256)": {
        "notice": "Transfers the ownership of an NFT from one address to another address"
      },
      "safeTransferFrom(address,address,uint256,bytes)": {
        "notice": "Transfers the ownership of an NFT from one address to another address"
      },
      "setApprovalForAll(address,bool)": {
        "notice": "Enable or disable approval for a third party (\"operator\") to manage  all of `msg.sender`'s assets"
      },
      "transferFrom(address,address,uint256)": {
        "notice": "Transfer ownership of an NFT -- THE CALLER IS RESPONSIBLE  TO CONFIRM THAT `_to` IS CAPABLE OF RECEIVING NFTS OR ELSE  THEY MAY BE PERMANENTLY LOST"
      }
    },
    "version": 1
  }
}