{
  "contractName": "Kittycontract",
  "abi": [
    {
      "anonymous": false,
      "inputs": [
        {
          "indexed": true,
          "internalType": "address",
          "name": "owner",
          "type": "address"
        },
        {
          "indexed": true,
          "internalType": "address",
          "name": "approved",
          "type": "address"
        },
        {
          "indexed": true,
          "internalType": "uint256",
          "name": "tokenId",
          "type": "uint256"
        }
      ],
      "name": "Approval",
      "type": "event"
    },
    {
      "anonymous": false,
      "inputs": [
        {
          "indexed": true,
          "internalType": "address",
          "name": "owner",
          "type": "address"
        },
        {
          "indexed": true,
          "internalType": "address",
          "name": "operator",
          "type": "address"
        },
        {
          "indexed": false,
          "internalType": "bool",
          "name": "approved",
          "type": "bool"
        }
      ],
      "name": "ApprovalForAll",
      "type": "event"
    },
    {
      "anonymous": false,
      "inputs": [
        {
          "indexed": false,
          "internalType": "address",
          "name": "owner",
          "type": "address"
        },
        {
          "indexed": false,
          "internalType": "uint256",
          "name": "mumId",
          "type": "uint256"
        },
        {
          "indexed": false,
          "internalType": "uint256",
          "name": "dadId",
          "type": "uint256"
        },
        {
          "indexed": false,
          "internalType": "string",
          "name": "dna",
          "type": "string"
        }
      ],
      "name": "Birth",
      "type": "event"
    },
    {
      "anonymous": false,
      "inputs": [
        {
          "indexed": true,
          "internalType": "address",
          "name": "previousOwner",
          "type": "address"
        },
        {
          "indexed": true,
          "internalType": "address",
          "name": "newOwner",
          "type": "address"
        }
      ],
      "name": "OwnershipTransferred",
      "type": "event"
    },
    {
      "anonymous": false,
      "inputs": [
        {
          "indexed": true,
          "internalType": "address",
          "name": "from",
          "type": "address"
        },
        {
          "indexed": true,
          "internalType": "address",
          "name": "to",
          "type": "address"
        },
        {
          "indexed": true,
          "internalType": "uint256",
          "name": "tokenId",
          "type": "uint256"
        }
      ],
      "name": "Transfer",
      "type": "event"
    },
    {
      "inputs": [
        {
          "internalType": "uint256",
          "name": "",
          "type": "uint256"
        }
      ],
      "name": "kittyOwner",
      "outputs": [
        {
          "internalType": "address",
          "name": "",
          "type": "address"
        }
      ],
      "stateMutability": "view",
      "type": "function"
    },
    {
      "inputs": [],
      "name": "name",
      "outputs": [
        {
          "internalType": "string",
          "name": "",
          "type": "string"
        }
      ],
      "stateMutability": "view",
      "type": "function"
    },
    {
      "inputs": [],
      "name": "owner",
      "outputs": [
        {
          "internalType": "address",
          "name": "",
          "type": "address"
        }
      ],
      "stateMutability": "view",
      "type": "function"
    },
    {
      "inputs": [],
      "name": "renounceOwnership",
      "outputs": [],
      "stateMutability": "nonpayable",
      "type": "function"
    },
    {
      "inputs": [],
      "name": "symbol",
      "outputs": [
        {
          "internalType": "string",
          "name": "",
          "type": "string"
        }
      ],
      "stateMutability": "view",
      "type": "function"
    },
    {
      "inputs": [
        {
          "internalType": "address",
          "name": "newOwner",
          "type": "address"
        }
      ],
      "name": "transferOwnership",
      "outputs": [],
      "stateMutability": "nonpayable",
      "type": "function"
    },
    {
      "inputs": [
        {
          "internalType": "bytes4",
          "name": "_interfaceId",
          "type": "bytes4"
        }
      ],
      "name": "supportsInterface",
      "outputs": [
        {
          "internalType": "bool",
          "name": "",
          "type": "bool"
        }
      ],
      "stateMutability": "pure",
      "type": "function"
    },
    {
      "inputs": [
        {
          "internalType": "address",
          "name": "owner",
          "type": "address"
        }
      ],
      "name": "balanceOf",
      "outputs": [
        {
          "internalType": "uint256",
          "name": "balance",
          "type": "uint256"
        }
      ],
      "stateMutability": "view",
      "type": "function"
    },
    {
      "inputs": [],
      "name": "totalSupply",
      "outputs": [
        {
          "internalType": "uint256",
          "name": "total",
          "type": "uint256"
        }
      ],
      "stateMutability": "view",
      "type": "function"
    },
    {
      "inputs": [
        {
          "internalType": "uint256",
          "name": "tokenId",
          "type": "uint256"
        }
      ],
      "name": "ownerOf",
      "outputs": [
        {
          "internalType": "address",
          "name": "owner",
          "type": "address"
        }
      ],
      "stateMutability": "view",
      "type": "function"
    },
    {
      "inputs": [
        {
          "internalType": "address",
          "name": "to",
          "type": "address"
        },
        {
          "internalType": "uint256",
          "name": "tokenId",
          "type": "uint256"
        }
      ],
      "name": "transfer",
      "outputs": [],
      "stateMutability": "nonpayable",
      "type": "function"
    },
    {
      "inputs": [
        {
          "internalType": "address",
          "name": "_from",
          "type": "address"
        },
        {
          "internalType": "address",
          "name": "_to",
          "type": "address"
        },
        {
          "internalType": "uint256",
          "name": "_tokenId",
          "type": "uint256"
        }
      ],
      "name": "safeTransferFrom",
      "outputs": [],
      "stateMutability": "nonpayable",
      "type": "function"
    },
    {
      "inputs": [
        {
          "internalType": "address",
          "name": "_from",
          "type": "address"
        },
        {
          "internalType": "address",
          "name": "_to",
          "type": "address"
        },
        {
          "internalType": "uint256",
          "name": "_tokenId",
          "type": "uint256"
        },
        {
          "internalType": "bytes",
          "name": "data",
          "type": "bytes"
        }
      ],
      "name": "safeTransferFrom",
      "outputs": [],
      "stateMutability": "nonpayable",
      "type": "function"
    },
    {
      "inputs": [
        {
          "internalType": "address",
          "name": "_from",
          "type": "address"
        },
        {
          "internalType": "address",
          "name": "_to",
          "type": "address"
        },
        {
          "internalType": "uint256",
          "name": "_tokenId",
          "type": "uint256"
        }
      ],
      "name": "transferFrom",
      "outputs": [],
      "stateMutability": "nonpayable",
      "type": "function"
    },
    {
      "inputs": [
        {
          "internalType": "address",
          "name": "_approved",
          "type": "address"
        },
        {
          "internalType": "uint256",
          "name": "_tokenId",
          "type": "uint256"
        }
      ],
      "name": "approve",
      "outputs": [],
      "stateMutability": "nonpayable",
      "type": "function"
    },
    {
      "inputs": [
        {
          "internalType": "address",
          "name": "_operator",
          "type": "address"
        },
        {
          "internalType": "bool",
          "name": "_approved",
          "type": "bool"
        }
      ],
      "name": "setApprovalForAll",
      "outputs": [],
      "stateMutability": "nonpayable",
      "type": "function"
    },
    {
      "inputs": [
        {
          "internalType": "uint256",
          "name": "_tokenId",
          "type": "uint256"
        }
      ],
      "name": "getApproved",
      "outputs": [
        {
          "internalType": "address",
          "name": "",
          "type": "address"
        }
      ],
      "stateMutability": "view",
      "type": "function"
    },
    {
      "inputs": [
        {
          "internalType": "address",
          "name": "_owner",
          "type": "address"
        },
        {
          "internalType": "address",
          "name": "_operator",
          "type": "address"
        }
      ],
      "name": "isApprovedForAll",
      "outputs": [
        {
          "internalType": "bool",
          "name": "",
          "type": "bool"
        }
      ],
      "stateMutability": "view",
      "type": "function"
    },
    {
      "inputs": [
        {
          "internalType": "string",
          "name": "dna",
          "type": "string"
        }
      ],
      "name": "createKittyGen0",
      "outputs": [
        {
          "internalType": "uint256",
          "name": "",
          "type": "uint256"
        }
      ],
      "stateMutability": "nonpayable",
      "type": "function"
    },
    {
      "inputs": [
        {
          "internalType": "uint256",
          "name": "tokenId",
          "type": "uint256"
        }
      ],
      "name": "getKitty",
      "outputs": [
        {
          "internalType": "string",
          "name": "dna",
          "type": "string"
        },
        {
          "internalType": "uint256",
          "name": "birthTime",
          "type": "uint256"
        },
        {
          "internalType": "uint256",
          "name": "mumId",
          "type": "uint256"
        },
        {
          "internalType": "uint256",
          "name": "dadId",
          "type": "uint256"
        },
        {
          "internalType": "uint256",
          "name": "generation",
          "type": "uint256"
        },
        {
          "internalType": "address",
          "name": "owner",
          "type": "address"
        }
      ],
      "stateMutability": "view",
      "type": "function"
    }
  ],
  "bytecode": "0x608060405234801561001057600080fd5b5060006100216100c460201b60201c565b9050806000806101000a81548173ffffffffffffffffffffffffffffffffffffffff021916908373ffffffffffffffffffffffffffffffffffffffff1602179055508073ffffffffffffffffffffffffffffffffffffffff16600073ffffffffffffffffffffffffffffffffffffffff167f8be0079c531659141344cd1fd0a4f28419497f9722a3daafe3b4186f6b6457e060405160405180910390a3506100cc565b600033905090565b6127d5806100db6000396000f3fe608060405234801561001057600080fd5b506004361061012c5760003560e01c80638420f94b116100ad578063b88d4fde11610071578063b88d4fde1461032f578063cb854ae71461034b578063e985e9c51461037b578063e98b7f4d146103ab578063f2fde38b146103e05761012c565b80638420f94b1461028b5780638da5cb5b146102bb57806395d89b41146102d9578063a22cb465146102f7578063a9059cbb146103135761012c565b806323b872dd116100f457806323b872dd146101e957806342842e0e146102055780636352211e1461022157806370a0823114610251578063715018a6146102815761012c565b806301ffc9a71461013157806306fdde0314610161578063081812fc1461017f578063095ea7b3146101af57806318160ddd146101cb575b600080fd5b61014b60048036038101906101469190611e0f565b6103fc565b6040516101589190612112565b60405180910390f35b61016961049c565b604051610176919061212d565b60405180910390f35b61019960048036038101906101949190611ea2565b6104d5565b6040516101a6919061205f565b60405180910390f35b6101c960048036038101906101c49190611dd3565b610559565b005b6101d361069a565b6040516101e09190612297565b60405180910390f35b61020360048036038101906101fe9190611ccd565b6106a7565b005b61021f600480360381019061021a9190611ccd565b610800565b005b61023b60048036038101906102369190611ea2565b610969565b604051610248919061205f565b60405180910390f35b61026b60048036038101906102669190611c68565b6109ed565b6040516102789190612297565b60405180910390f35b610289610a36565b005b6102a560048036038101906102a09190611e61565b610b70565b6040516102b29190612297565b60405180910390f35b6102c3610c04565b6040516102d0919061205f565b60405180910390f35b6102e1610c2d565b6040516102ee919061212d565b60405180910390f35b610311600480360381019061030c9190611d97565b610c66565b005b61032d60048036038101906103289190611dd3565b610d9c565b005b61034960048036038101906103449190611d1c565b610eae565b005b61036560048036038101906103609190611ea2565b611009565b604051610372919061205f565b60405180910390f35b61039560048036038101906103909190611c91565b61103c565b6040516103a29190612112565b60405180910390f35b6103c560048036038101906103c09190611ea2565b6110d0565b6040516103d79695949392919061214f565b60405180910390f35b6103fa60048036038101906103f59190611c68565b61126c565b005b60006380ac58cd60e01b7bffffffffffffffffffffffffffffffffffffffffffffffffffffffff1916827bffffffffffffffffffffffffffffffffffffffffffffffffffffffff1916148061049557506301ffc9a760e01b7bffffffffffffffffffffffffffffffffffffffffffffffffffffffff1916827bffffffffffffffffffffffffffffffffffffffffffffffffffffffff1916145b9050919050565b6040518060400160405280600d81526020017f4d696368616c4b6974746965730000000000000000000000000000000000000081525081565b6000600580549050821061051e576040517f08c379a0000000000000000000000000000000000000000000000000000000008152600401610515906121b7565b60405180910390fd5b6003600083815260200190815260200160002060009054906101000a900473ffffffffffffffffffffffffffffffffffffffff169050919050565b60058054905081106105a0576040517f08c379a0000000000000000000000000000000000000000000000000000000008152600401610597906121b7565b60405180910390fd5b6105aa3382611415565b6105e9576040517f08c379a00000000000000000000000000000000000000000000000000000000081526004016105e090612237565b60405180910390fd5b816003600083815260200190815260200160002060006101000a81548173ffffffffffffffffffffffffffffffffffffffff021916908373ffffffffffffffffffffffffffffffffffffffff160217905550808273ffffffffffffffffffffffffffffffffffffffff163373ffffffffffffffffffffffffffffffffffffffff167f8c5be1e5ebec7d5bd14f71427d1e84f3dd0314c0f7b2291e5b200ac8c7c3b92560405160405180910390a45050565b6000600580549050905090565b60058054905081106106ee576040517f08c379a00000000000000000000000000000000000000000000000000000000081526004016106e5906121b7565b60405180910390fd5b6106f83382611481565b610737576040517f08c379a000000000000000000000000000000000000000000000000000000000815260040161072e906121d7565b60405180910390fd5b6107418382611415565b610780576040517f08c379a000000000000000000000000000000000000000000000000000000000815260040161077790612277565b60405180910390fd5b600073ffffffffffffffffffffffffffffffffffffffff168273ffffffffffffffffffffffffffffffffffffffff1614156107f0576040517f08c379a00000000000000000000000000000000000000000000000000000000081526004016107e790612217565b60405180910390fd5b6107fb8383836115c2565b505050565b6005805490508110610847576040517f08c379a000000000000000000000000000000000000000000000000000000000815260040161083e906121b7565b60405180910390fd5b6108513382611481565b610890576040517f08c379a0000000000000000000000000000000000000000000000000000000008152600401610887906121d7565b60405180910390fd5b61089a8382611415565b6108d9576040517f08c379a00000000000000000000000000000000000000000000000000000000081526004016108d090612277565b60405180910390fd5b600073ffffffffffffffffffffffffffffffffffffffff168273ffffffffffffffffffffffffffffffffffffffff161415610949576040517f08c379a000000000000000000000000000000000000000000000000000000000815260040161094090612217565b60405180910390fd5b6109648383836040518060200160405280600081525061178d565b505050565b600060058054905082106109b2576040517f08c379a00000000000000000000000000000000000000000000000000000000081526004016109a9906121b7565b60405180910390fd5b6001600083815260200190815260200160002060009054906101000a900473ffffffffffffffffffffffffffffffffffffffff169050919050565b6000600260008373ffffffffffffffffffffffffffffffffffffffff1673ffffffffffffffffffffffffffffffffffffffff168152602001908152602001600020549050919050565b610a3e6117b3565b73ffffffffffffffffffffffffffffffffffffffff16610a5c610c04565b73ffffffffffffffffffffffffffffffffffffffff1614610ab2576040517f08c379a0000000000000000000000000000000000000000000000000000000008152600401610aa990612257565b60405180910390fd5b600073ffffffffffffffffffffffffffffffffffffffff1660008054906101000a900473ffffffffffffffffffffffffffffffffffffffff1673ffffffffffffffffffffffffffffffffffffffff167f8be0079c531659141344cd1fd0a4f28419497f9722a3daafe3b4186f6b6457e060405160405180910390a360008060006101000a81548173ffffffffffffffffffffffffffffffffffffffff021916908373ffffffffffffffffffffffffffffffffffffffff160217905550565b6000610b7a6117b3565b73ffffffffffffffffffffffffffffffffffffffff16610b98610c04565b73ffffffffffffffffffffffffffffffffffffffff1614610bee576040517f08c379a0000000000000000000000000000000000000000000000000000000008152600401610be590612257565b60405180910390fd5b610bfd826000806000336117bb565b9050919050565b60008060009054906101000a900473ffffffffffffffffffffffffffffffffffffffff16905090565b6040518060400160405280600481526020017f4d4b49540000000000000000000000000000000000000000000000000000000081525081565b8173ffffffffffffffffffffffffffffffffffffffff163373ffffffffffffffffffffffffffffffffffffffff161415610c9f57600080fd5b80600460003373ffffffffffffffffffffffffffffffffffffffff1673ffffffffffffffffffffffffffffffffffffffff16815260200190815260200160002060008473ffffffffffffffffffffffffffffffffffffffff1673ffffffffffffffffffffffffffffffffffffffff16815260200190815260200160002060006101000a81548160ff0219169083151502179055508173ffffffffffffffffffffffffffffffffffffffff163373ffffffffffffffffffffffffffffffffffffffff167f17307eab39ab6107e8899845ad3d59bd9653f200f220920489ca2b5937696c3183604051610d909190612112565b60405180910390a35050565b600073ffffffffffffffffffffffffffffffffffffffff168273ffffffffffffffffffffffffffffffffffffffff161415610dd657600080fd5b3073ffffffffffffffffffffffffffffffffffffffff168273ffffffffffffffffffffffffffffffffffffffff161415610e0f57600080fd5b6005805490508110610e56576040517f08c379a0000000000000000000000000000000000000000000000000000000008152600401610e4d906121b7565b60405180910390fd5b610e603382611415565b610e9f576040517f08c379a0000000000000000000000000000000000000000000000000000000008152600401610e9690612237565b60405180910390fd5b610eaa3383836115c2565b5050565b6005805490508210610ef5576040517f08c379a0000000000000000000000000000000000000000000000000000000008152600401610eec906121b7565b60405180910390fd5b610eff3383611481565b610f3e576040517f08c379a0000000000000000000000000000000000000000000000000000000008152600401610f35906121d7565b60405180910390fd5b610f488483611415565b610f87576040517f08c379a0000000000000000000000000000000000000000000000000000000008152600401610f7e90612277565b60405180910390fd5b600073ffffffffffffffffffffffffffffffffffffffff168373ffffffffffffffffffffffffffffffffffffffff161415610ff7576040517f08c379a0000000000000000000000000000000000000000000000000000000008152600401610fee90612217565b60405180910390fd5b6110038484848461178d565b50505050565b60016020528060005260406000206000915054906101000a900473ffffffffffffffffffffffffffffffffffffffff1681565b6000600460008473ffffffffffffffffffffffffffffffffffffffff1673ffffffffffffffffffffffffffffffffffffffff16815260200190815260200160002060008373ffffffffffffffffffffffffffffffffffffffff1673ffffffffffffffffffffffffffffffffffffffff16815260200190815260200160002060009054906101000a900460ff16905092915050565b606060008060008060008060058881548110611115577f4e487b7100000000000000000000000000000000000000000000000000000000600052603260045260246000fd5b90600052602060002090600202019050806000018054611134906124b1565b80601f0160208091040260200160405190810160405280929190818152602001828054611160906124b1565b80156111ad5780601f10611182576101008083540402835291602001916111ad565b820191906000526020600020905b81548152906001019060200180831161119057829003601f168201915b505050505096508060010160009054906101000a900467ffffffffffffffff1667ffffffffffffffff1695508060010160089054906101000a900463ffffffff1663ffffffff16945080600101600c9054906101000a900463ffffffff1663ffffffff1693508060010160109054906101000a900461ffff1661ffff1692506001600089815260200190815260200160002060009054906101000a900473ffffffffffffffffffffffffffffffffffffffff1691505091939550919395565b6112746117b3565b73ffffffffffffffffffffffffffffffffffffffff16611292610c04565b73ffffffffffffffffffffffffffffffffffffffff16146112e8576040517f08c379a00000000000000000000000000000000000000000000000000000000081526004016112df90612257565b60405180910390fd5b600073ffffffffffffffffffffffffffffffffffffffff168173ffffffffffffffffffffffffffffffffffffffff161415611358576040517f08c379a000000000000000000000000000000000000000000000000000000000815260040161134f906121f7565b60405180910390fd5b8073ffffffffffffffffffffffffffffffffffffffff1660008054906101000a900473ffffffffffffffffffffffffffffffffffffffff1673ffffffffffffffffffffffffffffffffffffffff167f8be0079c531659141344cd1fd0a4f28419497f9722a3daafe3b4186f6b6457e060405160405180910390a3806000806101000a81548173ffffffffffffffffffffffffffffffffffffffff021916908373ffffffffffffffffffffffffffffffffffffffff16021790555050565b60008273ffffffffffffffffffffffffffffffffffffffff166001600084815260200190815260200160002060009054906101000a900473ffffffffffffffffffffffffffffffffffffffff1673ffffffffffffffffffffffffffffffffffffffff1614905092915050565b600061148d8383611415565b806114f657508273ffffffffffffffffffffffffffffffffffffffff166003600084815260200190815260200160002060009054906101000a900473ffffffffffffffffffffffffffffffffffffffff1673ffffffffffffffffffffffffffffffffffffffff16145b806115ba5750600460006001600085815260200190815260200160002060009054906101000a900473ffffffffffffffffffffffffffffffffffffffff1673ffffffffffffffffffffffffffffffffffffffff1673ffffffffffffffffffffffffffffffffffffffff16815260200190815260200160002060008473ffffffffffffffffffffffffffffffffffffffff1673ffffffffffffffffffffffffffffffffffffffff16815260200190815260200160002060009054906101000a900460ff165b905092915050565b816001600083815260200190815260200160002060006101000a81548173ffffffffffffffffffffffffffffffffffffffff021916908373ffffffffffffffffffffffffffffffffffffffff1602179055506001600260008473ffffffffffffffffffffffffffffffffffffffff1673ffffffffffffffffffffffffffffffffffffffff16815260200190815260200160002060008282546116649190612371565b92505081905550600073ffffffffffffffffffffffffffffffffffffffff168373ffffffffffffffffffffffffffffffffffffffff161461172d576001600260003373ffffffffffffffffffffffffffffffffffffffff1673ffffffffffffffffffffffffffffffffffffffff16815260200190815260200160002060008282546116ef91906123c7565b925050819055506003600082815260200190815260200160002060006101000a81549073ffffffffffffffffffffffffffffffffffffffff02191690555b808273ffffffffffffffffffffffffffffffffffffffff163373ffffffffffffffffffffffffffffffffffffffff167fddf252ad1be2c89b69c2b068fc378daa952ba7f163c4a11628f55a4df523b3ef60405160405180910390a4505050565b6117988484846115c2565b6117a484848484611959565b6117ad57600080fd5b50505050565b600033905090565b6000806040518060a001604052808881526020014267ffffffffffffffff1681526020018763ffffffff1681526020018663ffffffff1681526020018561ffff16815250905060058190806001815401808255809150506001900390600052602060002090600202016000909190919091506000820151816000019080519060200190611849929190611a8c565b5060208201518160010160006101000a81548167ffffffffffffffff021916908367ffffffffffffffff16021790555060408201518160010160086101000a81548163ffffffff021916908363ffffffff160217905550606082015181600101600c6101000a81548163ffffffff021916908363ffffffff16021790555060808201518160010160106101000a81548161ffff021916908361ffff16021790555050506000600160058054905061190091906123c7565b90507f57bdfedb3ab59e29d46157723e7f15e09b7b59531c13d298d3ed65c34db2b6aa8488888b60405161193794939291906120c6565b60405180910390a161194b600085836115c2565b809250505095945050505050565b600061196484611a79565b6119715760019050611a71565b600084905060008173ffffffffffffffffffffffffffffffffffffffff1663150b7a02338988886040518563ffffffff1660e01b81526004016119b7949392919061207a565b602060405180830381600087803b1580156119d157600080fd5b505af11580156119e5573d6000803e3d6000fd5b505050506040513d601f19601f82011682018060405250810190611a099190611e38565b9050807bffffffffffffffffffffffffffffffffffffffffffffffffffffffff19167f150b7a023d4804d13e8c85fb27262cb750cf6ba9f9dd3bb30d90f482ceeb4b1f7bffffffffffffffffffffffffffffffffffffffffffffffffffffffff191614925050505b949350505050565b600080823b905060008111915050919050565b828054611a98906124b1565b90600052602060002090601f016020900481019282611aba5760008555611b01565b82601f10611ad357805160ff1916838001178555611b01565b82800160010185558215611b01579182015b82811115611b00578251825591602001919060010190611ae5565b5b509050611b0e9190611b12565b5090565b5b80821115611b2b576000816000905550600101611b13565b5090565b6000611b42611b3d846122d7565b6122b2565b905082815260208101848484011115611b5a57600080fd5b611b6584828561246f565b509392505050565b6000611b80611b7b84612308565b6122b2565b905082815260208101848484011115611b9857600080fd5b611ba384828561246f565b509392505050565b600081359050611bba81612743565b92915050565b600081359050611bcf8161275a565b92915050565b600081359050611be481612771565b92915050565b600081519050611bf981612771565b92915050565b600082601f830112611c1057600080fd5b8135611c20848260208601611b2f565b91505092915050565b600082601f830112611c3a57600080fd5b8135611c4a848260208601611b6d565b91505092915050565b600081359050611c6281612788565b92915050565b600060208284031215611c7a57600080fd5b6000611c8884828501611bab565b91505092915050565b60008060408385031215611ca457600080fd5b6000611cb285828601611bab565b9250506020611cc385828601611bab565b9150509250929050565b600080600060608486031215611ce257600080fd5b6000611cf086828701611bab565b9350506020611d0186828701611bab565b9250506040611d1286828701611c53565b9150509250925092565b60008060008060808587031215611d3257600080fd5b6000611d4087828801611bab565b9450506020611d5187828801611bab565b9350506040611d6287828801611c53565b925050606085013567ffffffffffffffff811115611d7f57600080fd5b611d8b87828801611bff565b91505092959194509250565b60008060408385031215611daa57600080fd5b6000611db885828601611bab565b9250506020611dc985828601611bc0565b9150509250929050565b60008060408385031215611de657600080fd5b6000611df485828601611bab565b9250506020611e0585828601611c53565b9150509250929050565b600060208284031215611e2157600080fd5b6000611e2f84828501611bd5565b91505092915050565b600060208284031215611e4a57600080fd5b6000611e5884828501611bea565b91505092915050565b600060208284031215611e7357600080fd5b600082013567ffffffffffffffff811115611e8d57600080fd5b611e9984828501611c29565b91505092915050565b600060208284031215611eb457600080fd5b6000611ec284828501611c53565b91505092915050565b611ed4816123fb565b82525050565b611ee38161240d565b82525050565b6000611ef482612339565b611efe818561234f565b9350611f0e81856020860161247e565b611f17816125a1565b840191505092915050565b6000611f2d82612344565b611f378185612360565b9350611f4781856020860161247e565b611f50816125a1565b840191505092915050565b6000611f68601383612360565b9150611f73826125b2565b602082019050919050565b6000611f8b602c83612360565b9150611f96826125db565b604082019050919050565b6000611fae602683612360565b9150611fb98261262a565b604082019050919050565b6000611fd1601883612360565b9150611fdc82612679565b602082019050919050565b6000611ff4601883612360565b9150611fff826126a2565b602082019050919050565b6000612017602083612360565b9150612022826126cb565b602082019050919050565b600061203a602183612360565b9150612045826126f4565b604082019050919050565b61205981612465565b82525050565b60006020820190506120746000830184611ecb565b92915050565b600060808201905061208f6000830187611ecb565b61209c6020830186611ecb565b6120a96040830185612050565b81810360608301526120bb8184611ee9565b905095945050505050565b60006080820190506120db6000830187611ecb565b6120e86020830186612050565b6120f56040830185612050565b81810360608301526121078184611f22565b905095945050505050565b60006020820190506121276000830184611eda565b92915050565b600060208201905081810360008301526121478184611f22565b905092915050565b600060c08201905081810360008301526121698189611f22565b90506121786020830188612050565b6121856040830187612050565b6121926060830186612050565b61219f6080830185612050565b6121ac60a0830184611ecb565b979650505050505050565b600060208201905081810360008301526121d081611f5b565b9050919050565b600060208201905081810360008301526121f081611f7e565b9050919050565b6000602082019050818103600083015261221081611fa1565b9050919050565b6000602082019050818103600083015261223081611fc4565b9050919050565b6000602082019050818103600083015261225081611fe7565b9050919050565b600060208201905081810360008301526122708161200a565b9050919050565b600060208201905081810360008301526122908161202d565b9050919050565b60006020820190506122ac6000830184612050565b92915050565b60006122bc6122cd565b90506122c882826124e3565b919050565b6000604051905090565b600067ffffffffffffffff8211156122f2576122f1612572565b5b6122fb826125a1565b9050602081019050919050565b600067ffffffffffffffff82111561232357612322612572565b5b61232c826125a1565b9050602081019050919050565b600081519050919050565b600081519050919050565b600082825260208201905092915050565b600082825260208201905092915050565b600061237c82612465565b915061238783612465565b9250827fffffffffffffffffffffffffffffffffffffffffffffffffffffffffffffffff038211156123bc576123bb612514565b5b828201905092915050565b60006123d282612465565b91506123dd83612465565b9250828210156123f0576123ef612514565b5b828203905092915050565b600061240682612445565b9050919050565b60008115159050919050565b60007fffffffff0000000000000000000000000000000000000000000000000000000082169050919050565b600073ffffffffffffffffffffffffffffffffffffffff82169050919050565b6000819050919050565b82818337600083830152505050565b60005b8381101561249c578082015181840152602081019050612481565b838111156124ab576000848401525b50505050565b600060028204905060018216806124c957607f821691505b602082108114156124dd576124dc612543565b5b50919050565b6124ec826125a1565b810181811067ffffffffffffffff8211171561250b5761250a612572565b5b80604052505050565b7f4e487b7100000000000000000000000000000000000000000000000000000000600052601160045260246000fd5b7f4e487b7100000000000000000000000000000000000000000000000000000000600052602260045260246000fd5b7f4e487b7100000000000000000000000000000000000000000000000000000000600052604160045260246000fd5b6000601f19601f8301169050919050565b7f546f6b656e20646f65736e277420657869737400000000000000000000000000600082015250565b7f596f7520617265206e6f7420617574686f72697a6520746f207472616e73666560008201527f72207468697320746f6b656e0000000000000000000000000000000000000000602082015250565b7f4f776e61626c653a206e6577206f776e657220697320746865207a65726f206160008201527f6464726573730000000000000000000000000000000000000000000000000000602082015250565b7f5f746f2061646472657373206973203020616464726573730000000000000000600082015250565b7f596f7520646f6e2774206f776e207468697320746f6b656e0000000000000000600082015250565b7f4f776e61626c653a2063616c6c6572206973206e6f7420746865206f776e6572600082015250565b7f5f66726f6d20616464726573732069736e27742063757272656e74206f776e6560008201527f7200000000000000000000000000000000000000000000000000000000000000602082015250565b61274c816123fb565b811461275757600080fd5b50565b6127638161240d565b811461276e57600080fd5b50565b61277a81612419565b811461278557600080fd5b50565b61279181612465565b811461279c57600080fd5b5056fea26469706673582212208b00b764679879da601ee78558c42c049b8fa4823db692132712d30384b9677564736f6c63430008040033",
  "immutableReferences": {},
  "source": "// SPDX-License-Identifier: MIT\npragma solidity ^0.8.0;\n\nimport \"./IERC721.sol\";\nimport \"./Ownable.sol\";\nimport \"./IERC721Receiver.sol\";\n\ncontract Kittycontract is IERC721, Ownable {\n\n    string public constant override name = \"MichalKitties\";\n    string public constant override symbol = \"MKIT\";\n\n    bytes4 internal constant _ERC721_INTERFACE_ID = 0x80ac58cd;\n    bytes4 internal constant _ERC165_INTERFACE_ID = 0x01ffc9a7;\n\n    event Birth(address owner, uint256 mumId, uint256 dadId, string dna);\n\n    struct Kitty {\n        string dna;\n        uint64 birthTime;\n        uint32 mumId;\n        uint32 dadId;\n        uint16 generation;\n    }\n\n    mapping(uint256 => address) public kittyOwner;\n    mapping(address => uint256) balances;\n    mapping(uint256 => address) approvals;\n    mapping(address => mapping(address => bool)) approvalsForAll;\n\n    Kitty[] kitties;\n\n    function supportsInterface(bytes4 _interfaceId) external pure returns(bool) {\n        return _interfaceId == _ERC721_INTERFACE_ID || _interfaceId == _ERC165_INTERFACE_ID;\n    }\n\n    function balanceOf(address owner) override external view returns (uint256 balance) {\n        balance = balances[owner];\n    }\n\n    function totalSupply() override external view returns (uint256 total) {\n        total = kitties.length;\n    }\n\n    function ownerOf(uint256 tokenId) override external view returns (address owner) {\n        require(tokenId < kitties.length, \"Token doesn't exist\");\n\n        owner = kittyOwner[tokenId];\n    }\n\n    function transfer(address to, uint256 tokenId) override external {\n        require(to != address(0));\n        require(to != address(this));\n        require(tokenId < kitties.length, \"Token doesn't exist\");\n        require(_owns(msg.sender, tokenId), \"You don't own this token\");\n\n        _transfer(msg.sender, to, tokenId);\n    }\n\n    function safeTransferFrom(address _from, address _to, uint256 _tokenId, bytes memory data) override external {\n        require(_tokenId < kitties.length, \"Token doesn't exist\");\n        require(_isApproved(msg.sender, _tokenId), \"You are not authorize to transfer this token\");\n        require(_owns(_from, _tokenId), \"_from address isn't current owner\");\n        require(_to != address(0), \"_to address is 0 address\");\n\n        _safeTransfer(_from, _to, _tokenId, data);\n    }\n\n    function safeTransferFrom(address _from, address _to, uint256 _tokenId) override external {\n        require(_tokenId < kitties.length, \"Token doesn't exist\");\n        require(_isApproved(msg.sender, _tokenId), \"You are not authorize to transfer this token\");\n        require(_owns(_from, _tokenId), \"_from address isn't current owner\");\n        require(_to != address(0), \"_to address is 0 address\");\n\n        _safeTransfer(_from, _to, _tokenId, \"\");\n    }\n\n    function transferFrom(address _from, address _to, uint256 _tokenId) override external {\n        require(_tokenId < kitties.length, \"Token doesn't exist\");\n        require(_isApproved(msg.sender, _tokenId), \"You are not authorize to transfer this token\");\n        require(_owns(_from, _tokenId), \"_from address isn't current owner\");\n        require(_to != address(0), \"_to address is 0 address\");\n\n        _transfer(_from, _to, _tokenId);\n    }\n\n    function approve(address _approved, uint256 _tokenId) override external {\n        require(_tokenId < kitties.length, \"Token doesn't exist\");\n        require(_owns(msg.sender, _tokenId), \"You don't own this token\");\n\n        approvals[_tokenId] = _approved;\n\n        emit Approval(msg.sender, _approved, _tokenId);\n    }\n\n    function setApprovalForAll(address _operator, bool _approved) override external {\n        require(msg.sender != _operator);\n\n        approvalsForAll[msg.sender][_operator] = _approved;\n\n        emit ApprovalForAll(msg.sender, _operator, _approved);\n    }\n\n    function getApproved(uint256 _tokenId) override external view returns (address) {\n        require(_tokenId < kitties.length, \"Token doesn't exist\");\n\n        return approvals[_tokenId];\n    }\n\n    function isApprovedForAll(address _owner, address _operator) override external view returns (bool) {\n        return approvalsForAll[_owner][_operator];\n    }\n\n    function createKittyGen0(string memory dna) onlyOwner public returns(uint256) {\n        return _createKitty(dna, 0, 0, 0, msg.sender);\n    }\n\n    function getKitty(uint256 tokenId) view external returns (\n        string memory dna,\n        uint256 birthTime,\n        uint256 mumId,\n        uint256 dadId,\n        uint256 generation,\n        address owner) {\n\n        Kitty storage k = kitties[tokenId];\n\n        dna = k.dna;\n        birthTime = uint256(k.birthTime);\n        mumId = uint256(k.mumId);\n        dadId = uint256(k.dadId);\n        generation = uint256(k.generation);\n        owner = kittyOwner[tokenId];\n    }\n\n    function _createKitty(\n        string memory _dna,\n        uint256 _mumId,\n        uint256 _dadId,\n        uint256 _generation,\n        address _owner) internal returns(uint256) {\n\n        Kitty memory kitty = Kitty({\n            dna: _dna,\n            birthTime: uint64(block.timestamp),\n            mumId: uint32(_mumId),\n            dadId: uint32(_dadId),\n            generation: uint16(_generation)\n        });\n\n        kitties.push(kitty);\n        uint256 kittyId = kitties.length - 1;\n\n        emit Birth(_owner, _mumId, _dadId, _dna);\n\n        _transfer(address(0), _owner, kittyId);\n\n        return kittyId;\n    }\n\n    function _safeTransfer(address _from, address _to, uint256 _tokenId, bytes memory data) internal {\n        _transfer(_from, _to, _tokenId);\n        require(_checkAddress(_from, _to, _tokenId, data));\n    }\n\n    function _transfer(address from, address to, uint256 tokenId) internal {\n        kittyOwner[tokenId] = to;\n        balances[to] += 1;\n        if (from != address(0)) {\n            balances[msg.sender] -= 1;\n            delete approvals[tokenId];\n        }\n\n        emit Transfer(msg.sender, to, tokenId);\n    }\n\n    function _checkAddress(address _from, address _to, uint256 _tokenId, bytes memory data) internal returns(bool) {\n        if (!_isSmartContract(_to)) {\n            return true;\n        }\n\n        IERC721Receiver receiver = IERC721Receiver(_to);\n        bytes4 result = receiver.onERC721Received(msg.sender, _from, _tokenId, data);\n\n        return bytes4(keccak256(\"onERC721Received(address,address,uint256,bytes)\")) == result;\n    }\n\n    function _isSmartContract(address _to) internal view returns(bool) {\n        uint code;\n        assembly {\n            code := extcodesize(_to)\n        }\n\n        return code > 0;\n    }\n\n    function _isApproved(address claimant, uint256 tokenId) internal view returns(bool) {\n        return _owns(claimant, tokenId) ||\n                approvals[tokenId] == claimant ||\n                approvalsForAll[kittyOwner[tokenId]][claimant];\n    }\n\n    function _owns(address claimant, uint256 tokenId) internal view returns(bool) {\n        return kittyOwner[tokenId] == claimant;\n    }\n}\n",
  "sourcePath": "/Users/michal/Documents/workspace/myCryptoKitties/smartcontract/contracts/Kittycontract.sol",
  "compiler": {
    "name": "solc",
    "version": "0.8.4+commit.c7e474f2.Emscripten.clang"
  },
  "schemaVersion": "3.3.4",
  "updatedAt": "2021-05-04T05:34:45.469Z",
  "devdoc": {
    "kind": "dev",
    "methods": {
      "approve(address,uint256)": {
        "details": "The zero address indicates there is no approved address.  Throws unless `msg.sender` is the current NFT owner, or an authorized  operator of the current owner.",
        "params": {
          "_approved": "The new approved NFT controller",
          "_tokenId": "The NFT to approve"
        }
      },
      "balanceOf(address)": {
        "details": "Returns the number of tokens in ``owner``'s account."
      },
      "getApproved(uint256)": {
        "details": "Throws if `_tokenId` is not a valid NFT.",
        "params": {
          "_tokenId": "The NFT to find the approved address for"
        },
        "returns": {
          "_0": "The approved address for this NFT, or the zero address if there is none"
        }
      },
      "isApprovedForAll(address,address)": {
        "params": {
          "_operator": "The address that acts on behalf of the owner",
          "_owner": "The address that owns the NFTs"
        },
        "returns": {
          "_0": "True if `_operator` is an approved operator for `_owner`, false otherwise"
        }
      },
      "owner()": {
        "details": "Returns the address of the current owner."
      },
      "ownerOf(uint256)": {
        "details": "Returns the owner of the `tokenId` token. Requirements: - `tokenId` must exist."
      },
      "renounceOwnership()": {
        "details": "Leaves the contract without owner. It will not be possible to call `onlyOwner` functions anymore. Can only be called by the current owner. NOTE: Renouncing ownership will leave the contract without an owner, thereby removing any functionality that is only available to the owner."
      },
      "safeTransferFrom(address,address,uint256)": {
        "details": "This works identically to the other function with an extra data parameter,  except this function just sets data to \"\".",
        "params": {
          "_from": "The current owner of the NFT",
          "_to": "The new owner",
          "_tokenId": "The NFT to transfer"
        }
      },
      "safeTransferFrom(address,address,uint256,bytes)": {
        "details": "Throws unless `msg.sender` is the current owner, an authorized  operator, or the approved address for this NFT. Throws if `_from` is  not the current owner. Throws if `_to` is the zero address. Throws if  `_tokenId` is not a valid NFT. When transfer is complete, this function  checks if `_to` is a smart contract (code size > 0). If so, it calls  `onERC721Received` on `_to` and throws if the return value is not  `bytes4(keccak256(\"onERC721Received(address,address,uint256,bytes)\"))`.",
        "params": {
          "_from": "The current owner of the NFT",
          "_to": "The new owner",
          "_tokenId": "The NFT to transfer",
          "data": "Additional data with no specified format, sent in call to `_to`"
        }
      },
      "setApprovalForAll(address,bool)": {
        "details": "Emits the ApprovalForAll event. The contract MUST allow  multiple operators per owner.",
        "params": {
          "_approved": "True if the operator is approved, false to revoke approval",
          "_operator": "Address to add to the set of authorized operators"
        }
      },
      "transferFrom(address,address,uint256)": {
        "details": "Throws unless `msg.sender` is the current owner, an authorized  operator, or the approved address for this NFT. Throws if `_from` is  not the current owner. Throws if `_to` is the zero address. Throws if  `_tokenId` is not a valid NFT.",
        "params": {
          "_from": "The current owner of the NFT",
          "_to": "The new owner",
          "_tokenId": "The NFT to transfer"
        }
      },
      "transferOwnership(address)": {
        "details": "Transfers ownership of the contract to a new account (`newOwner`). Can only be called by the current owner."
      }
    },
    "version": 1
  },
  "userdoc": {
    "kind": "user",
    "methods": {
      "approve(address,uint256)": {
        "notice": "Change or reaffirm the approved address for an NFT"
      },
      "getApproved(uint256)": {
        "notice": "Get the approved address for a single NFT"
      },
      "isApprovedForAll(address,address)": {
        "notice": "Query if an address is an authorized operator for another address"
      },
      "safeTransferFrom(address,address,uint256)": {
        "notice": "Transfers the ownership of an NFT from one address to another address"
      },
      "safeTransferFrom(address,address,uint256,bytes)": {
        "notice": "Transfers the ownership of an NFT from one address to another address"
      },
      "setApprovalForAll(address,bool)": {
        "notice": "Enable or disable approval for a third party (\"operator\") to manage  all of `msg.sender`'s assets"
      },
      "transferFrom(address,address,uint256)": {
        "notice": "Transfer ownership of an NFT -- THE CALLER IS RESPONSIBLE  TO CONFIRM THAT `_to` IS CAPABLE OF RECEIVING NFTS OR ELSE  THEY MAY BE PERMANENTLY LOST"
      }
    },
    "version": 1
  }
}