{
  "contractName": "KittyMarketPlace",
  "abi": [
    {
      "inputs": [
        {
          "internalType": "address",
          "name": "_kittyContractAddress",
          "type": "address"
        }
      ],
      "stateMutability": "nonpayable",
      "type": "constructor"
    },
    {
      "anonymous": false,
      "inputs": [
        {
          "indexed": false,
          "internalType": "string",
          "name": "TxType",
          "type": "string"
        },
        {
          "indexed": false,
          "internalType": "address",
          "name": "owner",
          "type": "address"
        },
        {
          "indexed": false,
          "internalType": "uint256",
          "name": "tokenId",
          "type": "uint256"
        }
      ],
      "name": "MarketTransaction",
      "type": "event"
    },
    {
      "anonymous": false,
      "inputs": [
        {
          "indexed": true,
          "internalType": "address",
          "name": "previousOwner",
          "type": "address"
        },
        {
          "indexed": true,
          "internalType": "address",
          "name": "newOwner",
          "type": "address"
        }
      ],
      "name": "OwnershipTransferred",
      "type": "event"
    },
    {
      "inputs": [],
      "name": "owner",
      "outputs": [
        {
          "internalType": "address",
          "name": "",
          "type": "address"
        }
      ],
      "stateMutability": "view",
      "type": "function",
      "constant": true
    },
    {
      "inputs": [],
      "name": "renounceOwnership",
      "outputs": [],
      "stateMutability": "nonpayable",
      "type": "function"
    },
    {
      "inputs": [
        {
          "internalType": "address",
          "name": "newOwner",
          "type": "address"
        }
      ],
      "name": "transferOwnership",
      "outputs": [],
      "stateMutability": "nonpayable",
      "type": "function"
    },
    {
      "inputs": [
        {
          "internalType": "address",
          "name": "_kittyContractAddress",
          "type": "address"
        }
      ],
      "name": "setKittyContract",
      "outputs": [],
      "stateMutability": "nonpayable",
      "type": "function"
    },
    {
      "inputs": [
        {
          "internalType": "uint256",
          "name": "_tokenId",
          "type": "uint256"
        }
      ],
      "name": "getOffer",
      "outputs": [
        {
          "internalType": "address",
          "name": "seller",
          "type": "address"
        },
        {
          "internalType": "uint256",
          "name": "price",
          "type": "uint256"
        },
        {
          "internalType": "uint256",
          "name": "index",
          "type": "uint256"
        },
        {
          "internalType": "uint256",
          "name": "tokenId",
          "type": "uint256"
        },
        {
          "internalType": "bool",
          "name": "active",
          "type": "bool"
        }
      ],
      "stateMutability": "view",
      "type": "function",
      "constant": true
    },
    {
      "inputs": [],
      "name": "getAllTokenOnSale",
      "outputs": [
        {
          "internalType": "uint256[]",
          "name": "",
          "type": "uint256[]"
        }
      ],
      "stateMutability": "view",
      "type": "function",
      "constant": true
    },
    {
      "inputs": [
        {
          "internalType": "uint256",
          "name": "_price",
          "type": "uint256"
        },
        {
          "internalType": "uint256",
          "name": "_tokenId",
          "type": "uint256"
        }
      ],
      "name": "setOffer",
      "outputs": [],
      "stateMutability": "nonpayable",
      "type": "function"
    },
    {
      "inputs": [
        {
          "internalType": "uint256",
          "name": "_tokenId",
          "type": "uint256"
        }
      ],
      "name": "removeOffer",
      "outputs": [],
      "stateMutability": "nonpayable",
      "type": "function"
    },
    {
      "inputs": [
        {
          "internalType": "uint256",
          "name": "_tokenId",
          "type": "uint256"
        }
      ],
      "name": "buyKitty",
      "outputs": [],
      "stateMutability": "payable",
      "type": "function",
      "payable": true
    }
  ],
  "bytecode": "0x60806040523480156200001157600080fd5b5060405162001dde38038062001dde833981810160405281019062000037919062000238565b6000620000496200021960201b60201c565b9050806000806101000a81548173ffffffffffffffffffffffffffffffffffffffff021916908373ffffffffffffffffffffffffffffffffffffffff1602179055508073ffffffffffffffffffffffffffffffffffffffff16600073ffffffffffffffffffffffffffffffffffffffff167f8be0079c531659141344cd1fd0a4f28419497f9722a3daafe3b4186f6b6457e060405160405180910390a35080600160006101000a81548173ffffffffffffffffffffffffffffffffffffffff021916908373ffffffffffffffffffffffffffffffffffffffff1602179055506000604051806080016040528060008152602001600081526020013373ffffffffffffffffffffffffffffffffffffffff1681526020016000151581525090506002819080600181540180825580915050600190039060005260206000209060030201600090919091909150600082015181600001556020820151816001015560408201518160020160006101000a81548173ffffffffffffffffffffffffffffffffffffffff021916908373ffffffffffffffffffffffffffffffffffffffff16021790555060608201518160020160146101000a81548160ff02191690831515021790555050505050620002b2565b600033905090565b600081519050620002328162000298565b92915050565b6000602082840312156200024b57600080fd5b60006200025b8482850162000221565b91505092915050565b6000620002718262000278565b9050919050565b600073ffffffffffffffffffffffffffffffffffffffff82169050919050565b620002a38162000264565b8114620002af57600080fd5b50565b611b1c80620002c26000396000f3fe6080604052600436106100865760003560e01c80638da5cb5b116100595780638da5cb5b14610137578063941b055b1461016257806395a0f9c71461018b578063ae5310f6146101b4578063f2fde38b146101d057610086565b80634579268a1461008b57806349b3709f146100cc57806362b7f94e146100f7578063715018a614610120575b600080fd5b34801561009757600080fd5b506100b260048036038101906100ad9190611119565b6101f9565b6040516100c395949392919061145e565b60405180910390f35b3480156100d857600080fd5b506100e1610308565b6040516100ee91906114b1565b60405180910390f35b34801561010357600080fd5b5061011e600480360381019061011991906110c7565b610458565b005b34801561012c57600080fd5b50610135610518565b005b34801561014357600080fd5b5061014c610652565b604051610159919061140c565b60405180910390f35b34801561016e57600080fd5b5061018960048036038101906101849190611142565b61067b565b005b34801561019757600080fd5b506101b260048036038101906101ad9190611119565b610ab2565b005b6101ce60048036038101906101c99190611119565b610c1a565b005b3480156101dc57600080fd5b506101f760048036038101906101f291906110c7565b610ed7565b005b60008060008060008060036000888152602001908152602001600020549050600060028281548110610254577f4e487b7100000000000000000000000000000000000000000000000000000000600052603260045260246000fd5b906000526020600020906003020190508060020160149054906101000a900460ff166102b5576040517f08c379a00000000000000000000000000000000000000000000000000000000081526004016102ac90611533565b60405180910390fd5b8060020160009054906101000a900473ffffffffffffffffffffffffffffffffffffffff169650806001015495508194508793508060020160149054906101000a900460ff169250505091939590929450565b6060600060028054905067ffffffffffffffff811115610351577f4e487b7100000000000000000000000000000000000000000000000000000000600052604160045260246000fd5b60405190808252806020026020018201604052801561037f5781602001602082028036833780820191505090505b50905060005b600280549050811015610450576000600282815481106103ce577f4e487b7100000000000000000000000000000000000000000000000000000000600052603260045260246000fd5b906000526020600020906003020190508060020160149054906101000a900460ff161561043c578183838151811061042f577f4e487b7100000000000000000000000000000000000000000000000000000000600052603260045260246000fd5b6020026020010181815250505b50808061044890611793565b915050610385565b508091505090565b610460611080565b73ffffffffffffffffffffffffffffffffffffffff1661047e610652565b73ffffffffffffffffffffffffffffffffffffffff16146104d4576040517f08c379a00000000000000000000000000000000000000000000000000000000081526004016104cb9061160b565b60405180910390fd5b80600160006101000a81548173ffffffffffffffffffffffffffffffffffffffff021916908373ffffffffffffffffffffffffffffffffffffffff16021790555050565b610520611080565b73ffffffffffffffffffffffffffffffffffffffff1661053e610652565b73ffffffffffffffffffffffffffffffffffffffff1614610594576040517f08c379a000000000000000000000000000000000000000000000000000000000815260040161058b9061160b565b60405180910390fd5b600073ffffffffffffffffffffffffffffffffffffffff1660008054906101000a900473ffffffffffffffffffffffffffffffffffffffff1673ffffffffffffffffffffffffffffffffffffffff167f8be0079c531659141344cd1fd0a4f28419497f9722a3daafe3b4186f6b6457e060405160405180910390a360008060006101000a81548173ffffffffffffffffffffffffffffffffffffffff021916908373ffffffffffffffffffffffffffffffffffffffff160217905550565b60008060009054906101000a900473ffffffffffffffffffffffffffffffffffffffff16905090565b3373ffffffffffffffffffffffffffffffffffffffff16600160009054906101000a900473ffffffffffffffffffffffffffffffffffffffff1673ffffffffffffffffffffffffffffffffffffffff16636352211e836040518263ffffffff1660e01b81526004016106ed91906116a7565b60206040518083038186803b15801561070557600080fd5b505afa158015610719573d6000803e3d6000fd5b505050506040513d601f19601f8201168201806040525081019061073d91906110f0565b73ffffffffffffffffffffffffffffffffffffffff1614610793576040517f08c379a000000000000000000000000000000000000000000000000000000000815260040161078a90611553565b60405180910390fd5b6000151560026003600084815260200190815260200160002054815481106107e4577f4e487b7100000000000000000000000000000000000000000000000000000000600052603260045260246000fd5b906000526020600020906003020160020160149054906101000a900460ff16151514610845576040517f08c379a000000000000000000000000000000000000000000000000000000000815260040161083c906114d3565b60405180910390fd5b61084d610652565b73ffffffffffffffffffffffffffffffffffffffff16600160009054906101000a900473ffffffffffffffffffffffffffffffffffffffff1673ffffffffffffffffffffffffffffffffffffffff1663081812fc836040518263ffffffff1660e01b81526004016108be91906116a7565b60206040518083038186803b1580156108d657600080fd5b505afa1580156108ea573d6000803e3d6000fd5b505050506040513d601f19601f8201168201806040525081019061090e91906110f0565b73ffffffffffffffffffffffffffffffffffffffff1614610964576040517f08c379a000000000000000000000000000000000000000000000000000000000815260040161095b90611687565b60405180910390fd5b600060405180608001604052808381526020018481526020013373ffffffffffffffffffffffffffffffffffffffff1681526020016001151581525090506002819080600181540180825580915050600190039060005260206000209060030201600090919091909150600082015181600001556020820151816001015560408201518160020160006101000a81548173ffffffffffffffffffffffffffffffffffffffff021916908373ffffffffffffffffffffffffffffffffffffffff16021790555060608201518160020160146101000a81548160ff02191690831515021790555050506001600280549050610a5d9190611717565b60036000848152602001908152602001600020819055507fd99e4fad9ad6313b1feb588fa8e605e3a9873172f2024330c35dd2b4041a43863383604051610aa5929190611593565b60405180910390a1505050565b600060036000838152602001908152602001600020549050600060028281548110610b06577f4e487b7100000000000000000000000000000000000000000000000000000000600052603260045260246000fd5b906000526020600020906003020190508060020160009054906101000a900473ffffffffffffffffffffffffffffffffffffffff1673ffffffffffffffffffffffffffffffffffffffff163373ffffffffffffffffffffffffffffffffffffffff1614610ba8576040517f08c379a0000000000000000000000000000000000000000000000000000000008152600401610b9f90611513565b60405180910390fd5b60008160020160146101000a81548160ff02191690831515021790555060036000848152602001908152602001600020600090557fd99e4fad9ad6313b1feb588fa8e605e3a9873172f2024330c35dd2b4041a43863384604051610c0d92919061164b565b60405180910390a1505050565b600060036000838152602001908152602001600020549050600060028281548110610c6e577f4e487b7100000000000000000000000000000000000000000000000000000000600052603260045260246000fd5b9060005260206000209060030201905080600101543414610cc4576040517f08c379a0000000000000000000000000000000000000000000000000000000008152600401610cbb90611573565b60405180910390fd5b8060020160149054906101000a900460ff16610d15576040517f08c379a0000000000000000000000000000000000000000000000000000000008152600401610d0c9061162b565b60405180910390fd5b60008160020160009054906101000a900473ffffffffffffffffffffffffffffffffffffffff1673ffffffffffffffffffffffffffffffffffffffff1634604051610d5f906113f7565b60006040518083038185875af1925050503d8060008114610d9c576040519150601f19603f3d011682016040523d82523d6000602084013e610da1565b606091505b5050905080610daf57600080fd5b600160009054906101000a900473ffffffffffffffffffffffffffffffffffffffff1673ffffffffffffffffffffffffffffffffffffffff166323b872dd8360020160009054906101000a900473ffffffffffffffffffffffffffffffffffffffff1633876040518463ffffffff1660e01b8152600401610e3293929190611427565b600060405180830381600087803b158015610e4c57600080fd5b505af1158015610e60573d6000803e3d6000fd5b5050505060008260020160146101000a81548160ff02191690831515021790555060036000858152602001908152602001600020600090557fd99e4fad9ad6313b1feb588fa8e605e3a9873172f2024330c35dd2b4041a43863385604051610ec99291906115cf565b60405180910390a150505050565b610edf611080565b73ffffffffffffffffffffffffffffffffffffffff16610efd610652565b73ffffffffffffffffffffffffffffffffffffffff1614610f53576040517f08c379a0000000000000000000000000000000000000000000000000000000008152600401610f4a9061160b565b60405180910390fd5b600073ffffffffffffffffffffffffffffffffffffffff168173ffffffffffffffffffffffffffffffffffffffff161415610fc3576040517f08c379a0000000000000000000000000000000000000000000000000000000008152600401610fba906114f3565b60405180910390fd5b8073ffffffffffffffffffffffffffffffffffffffff1660008054906101000a900473ffffffffffffffffffffffffffffffffffffffff1673ffffffffffffffffffffffffffffffffffffffff167f8be0079c531659141344cd1fd0a4f28419497f9722a3daafe3b4186f6b6457e060405160405180910390a3806000806101000a81548173ffffffffffffffffffffffffffffffffffffffff021916908373ffffffffffffffffffffffffffffffffffffffff16021790555050565b600033905090565b60008135905061109781611ab8565b92915050565b6000815190506110ac81611ab8565b92915050565b6000813590506110c181611acf565b92915050565b6000602082840312156110d957600080fd5b60006110e784828501611088565b91505092915050565b60006020828403121561110257600080fd5b60006111108482850161109d565b91505092915050565b60006020828403121561112b57600080fd5b6000611139848285016110b2565b91505092915050565b6000806040838503121561115557600080fd5b6000611163858286016110b2565b9250506020611174858286016110b2565b9150509250929050565b600061118a83836113d9565b60208301905092915050565b61119f8161174b565b82525050565b60006111b0826116d2565b6111ba81856116ea565b93506111c5836116c2565b8060005b838110156111f65781516111dd888261117e565b97506111e8836116dd565b9250506001810190506111c9565b5085935050505092915050565b61120c8161175d565b82525050565b600061121f602183611706565b915061122a8261180b565b604082019050919050565b6000611242602683611706565b915061124d8261185a565b604082019050919050565b6000611265601f83611706565b9150611270826118a9565b602082019050919050565b6000611288601e83611706565b9150611293826118d2565b602082019050919050565b60006112ab601883611706565b91506112b6826118fb565b602082019050919050565b60006112ce602a83611706565b91506112d982611924565b604082019050919050565b60006112f1600c83611706565b91506112fc82611973565b602082019050919050565b6000611314600383611706565b915061131f8261199c565b602082019050919050565b6000611337602083611706565b9150611342826119c5565b602082019050919050565b600061135a602783611706565b9150611365826119ee565b604082019050919050565b600061137d600c83611706565b915061138882611a3d565b602082019050919050565b60006113a06000836116fb565b91506113ab82611a66565b600082019050919050565b60006113c3603183611706565b91506113ce82611a69565b604082019050919050565b6113e281611789565b82525050565b6113f181611789565b82525050565b600061140282611393565b9150819050919050565b60006020820190506114216000830184611196565b92915050565b600060608201905061143c6000830186611196565b6114496020830185611196565b61145660408301846113e8565b949350505050565b600060a0820190506114736000830188611196565b61148060208301876113e8565b61148d60408301866113e8565b61149a60608301856113e8565b6114a76080830184611203565b9695505050505050565b600060208201905081810360008301526114cb81846111a5565b905092915050565b600060208201905081810360008301526114ec81611212565b9050919050565b6000602082019050818103600083015261150c81611235565b9050919050565b6000602082019050818103600083015261152c81611258565b9050919050565b6000602082019050818103600083015261154c8161127b565b9050919050565b6000602082019050818103600083015261156c8161129e565b9050919050565b6000602082019050818103600083015261158c816112c1565b9050919050565b600060608201905081810360008301526115ac816112e4565b90506115bb6020830185611196565b6115c860408301846113e8565b9392505050565b600060608201905081810360008301526115e881611307565b90506115f76020830185611196565b61160460408301846113e8565b9392505050565b600060208201905081810360008301526116248161132a565b9050919050565b600060208201905081810360008301526116448161134d565b9050919050565b6000606082019050818103600083015261166481611370565b90506116736020830185611196565b61168060408301846113e8565b9392505050565b600060208201905081810360008301526116a0816113b6565b9050919050565b60006020820190506116bc60008301846113e8565b92915050565b6000819050602082019050919050565b600081519050919050565b6000602082019050919050565b600082825260208201905092915050565b600081905092915050565b600082825260208201905092915050565b600061172282611789565b915061172d83611789565b9250828210156117405761173f6117dc565b5b828203905092915050565b600061175682611769565b9050919050565b60008115159050919050565b600073ffffffffffffffffffffffffffffffffffffffff82169050919050565b6000819050919050565b600061179e82611789565b91507fffffffffffffffffffffffffffffffffffffffffffffffffffffffffffffffff8214156117d1576117d06117dc565b5b600182019050919050565b7f4e487b7100000000000000000000000000000000000000000000000000000000600052601160045260246000fd5b7f457869737420616374697665206f6666657220666f72207468697320746f6b6560008201527f6e00000000000000000000000000000000000000000000000000000000000000602082015250565b7f4f776e61626c653a206e6577206f776e657220697320746865207a65726f206160008201527f6464726573730000000000000000000000000000000000000000000000000000602082015250565b7f596f75206172656e27742073656c6c6572206f66207468697320746f6b656e00600082015250565b7f4e6f20616374697665206f6666657220666f72207468697320746f6b656e0000600082015250565b7f596f7520646f6e2774206f776e207468697320746f6b656e0000000000000000600082015250565b7f56616c7565206973206e6f7420657175616c20746f20707269636520666f722060008201527f7468697320746f6b656e00000000000000000000000000000000000000000000602082015250565b7f437265617465206f666665720000000000000000000000000000000000000000600082015250565b7f4275790000000000000000000000000000000000000000000000000000000000600082015250565b7f4f776e61626c653a2063616c6c6572206973206e6f7420746865206f776e6572600082015250565b7f54686572652069736e277420616374697665206f6666657220666f722074686960008201527f7320746f6b656e00000000000000000000000000000000000000000000000000602082015250565b7f52656d6f7665206f666665720000000000000000000000000000000000000000600082015250565b50565b7f4d61726b6574706c6163652069736e277420617070726f766564206f7065726160008201527f746f72206f66207468697320746f6b656e000000000000000000000000000000602082015250565b611ac18161174b565b8114611acc57600080fd5b50565b611ad881611789565b8114611ae357600080fd5b5056fea2646970667358221220ef01a0ae76ef4c0671e0c301f9f6c6d8ff3a0a95bc7996fe736e1b490675ebc364736f6c63430008040033",
  "immutableReferences": {},
  "source": "// SPDX-License-Identifier: MIT\npragma solidity ^0.8.0;\n\nimport \"./IKittyMarketplace.sol\";\nimport \"./Kittycontract.sol\";\nimport \"./Ownable.sol\";\n\ncontract KittyMarketPlace is IKittyMarketPlace, Ownable {\n\n    Kittycontract internal kittycontract;\n\n    struct Offer {\n        uint tokenId;\n        uint price;\n        address seller;\n        bool active;\n    }\n\n    Offer[] offers;\n\n    mapping(uint => uint) tokenIdToOfferId;\n\n    constructor(address _kittyContractAddress) {\n        kittycontract = Kittycontract(_kittyContractAddress);\n        Offer memory offer = Offer(0, 0, msg.sender, false);\n        offers.push(offer);\n    }\n    \n    function setKittyContract(address _kittyContractAddress) override external onlyOwner {\n        kittycontract = Kittycontract(_kittyContractAddress);\n    }\n\n    function getOffer(uint256 _tokenId) override external view returns ( address seller, uint256 price, uint256 index, uint256 tokenId, bool active) {\n        uint offerId = tokenIdToOfferId[_tokenId];\n        Offer storage offer = offers[offerId];\n        \n        require(offer.active, \"No active offer for this token\");\n\n        seller = offer.seller;\n        price = offer.price;\n        index = offerId;\n        tokenId = _tokenId;\n        active = offer.active;\n    }\n\n    function getAllTokenOnSale() override external view  returns(uint256[] memory) {\n        uint[] memory result = new uint[](offers.length);\n\n        for (uint i = 0; i < offers.length; i++) {\n            Offer storage offer = offers[i];\n\n            if (offer.active) {\n                result[i] = i;\n            }\n        }\n\n        return result;\n    }\n\n    function setOffer(uint256 _price, uint256 _tokenId) override external {\n        require(kittycontract.ownerOf(_tokenId) == msg.sender, \"You don't own this token\");\n        require(offers[tokenIdToOfferId[_tokenId]].active == false, \"Exist active offer for this token\");\n        require(kittycontract.getApproved(_tokenId) == owner(), \"Marketplace isn't approved operator of this token\");\n\n        Offer memory offer = Offer(_tokenId, _price, msg.sender, true);\n\n        offers.push(offer);\n        tokenIdToOfferId[_tokenId] = offers.length - 1;\n\n        emit MarketTransaction(\"Create offer\", msg.sender, _tokenId);\n    }\n\n    function removeOffer(uint256 _tokenId) override external {\n        uint offerId = tokenIdToOfferId[_tokenId];\n        Offer storage offer = offers[offerId];\n\n        require(msg.sender == offer.seller, \"You aren't seller of this token\");\n\n        offer.active = false;\n        delete tokenIdToOfferId[_tokenId];\n\n        emit MarketTransaction(\"Remove offer\", msg.sender, _tokenId);\n    }\n\n    function buyKitty(uint256 _tokenId) override external payable {\n        uint offerId = tokenIdToOfferId[_tokenId];\n        Offer storage offer = offers[offerId];\n\n        require(msg.value == offer.price, \"Value is not equal to price for this token\");\n        require(offer.active, \"There isn't active offer for this token\");\n\n        (bool sent, ) = offer.seller.call{value: msg.value}(\"\");\n        require(sent);\n\n        kittycontract.transferFrom(offer.seller, msg.sender, _tokenId);\n\n        offer.active = false;\n        delete tokenIdToOfferId[_tokenId];\n\n        emit MarketTransaction(\"Buy\", msg.sender, _tokenId);\n    }\n\n}\n",
  "sourcePath": "/Users/michal/Documents/workspace/myCryptoKitties/smartcontract/contracts/KittyMarketPlace.sol",
  "compiler": {
    "name": "solc",
    "version": "0.8.4+commit.c7e474f2.Emscripten.clang"
  },
  "schemaVersion": "3.3.4",
  "updatedAt": "2021-05-13T20:42:08.956Z",
  "networkType": "ethereum",
  "devdoc": {
    "kind": "dev",
    "methods": {
      "owner()": {
        "details": "Returns the address of the current owner."
      },
      "renounceOwnership()": {
        "details": "Leaves the contract without owner. It will not be possible to call `onlyOwner` functions anymore. Can only be called by the current owner. NOTE: Renouncing ownership will leave the contract without an owner, thereby removing any functionality that is only available to the owner."
      },
      "transferOwnership(address)": {
        "details": "Transfers ownership of the contract to a new account (`newOwner`). Can only be called by the current owner."
      }
    },
    "version": 1
  },
  "userdoc": {
    "kind": "user",
    "methods": {
      "buyKitty(uint256)": {
        "notice": "Executes the purchase of _tokenId. Sends the funds to the seller and transfers the token using transferFrom in Kittycontract. Emits the MarketTransaction event with txType \"Buy\". Requirement: The msg.value needs to equal the price of _tokenId Requirement: There must be an active offer for _tokenId"
      },
      "getAllTokenOnSale()": {
        "notice": "Get all tokenId's that are currently for sale. Returns an empty arror if none exist."
      },
      "getOffer(uint256)": {
        "notice": "Get the details about a offer for _tokenId. Throws an error if there is no active offer for _tokenId."
      },
      "removeOffer(uint256)": {
        "notice": "Removes an existing offer. Emits the MarketTransaction event with txType \"Remove offer\" Requirement: Only the seller of _tokenId can remove an offer."
      },
      "setKittyContract(address)": {
        "notice": "Set the current KittyContract address and initialize the instance of Kittycontract. Requirement: Only the contract owner can call."
      },
      "setOffer(uint256,uint256)": {
        "notice": "Creates a new offer for _tokenId for the price _price. Emits the MarketTransaction event with txType \"Create offer\" Requirement: Only the owner of _tokenId can create an offer. Requirement: There can only be one active offer for a token at a time. Requirement: Marketplace contract (this) needs to be an approved operator when the offer is created."
      }
    },
    "version": 1
  }
}