{
  "contractName": "Kittycontract",
  "abi": [
    {
      "anonymous": false,
      "inputs": [
        {
          "indexed": true,
          "internalType": "address",
          "name": "owner",
          "type": "address"
        },
        {
          "indexed": true,
          "internalType": "address",
          "name": "approved",
          "type": "address"
        },
        {
          "indexed": true,
          "internalType": "uint256",
          "name": "tokenId",
          "type": "uint256"
        }
      ],
      "name": "Approval",
      "type": "event"
    },
    {
      "anonymous": false,
      "inputs": [
        {
          "indexed": true,
          "internalType": "address",
          "name": "owner",
          "type": "address"
        },
        {
          "indexed": true,
          "internalType": "address",
          "name": "operator",
          "type": "address"
        },
        {
          "indexed": false,
          "internalType": "bool",
          "name": "approved",
          "type": "bool"
        }
      ],
      "name": "ApprovalForAll",
      "type": "event"
    },
    {
      "anonymous": false,
      "inputs": [
        {
          "indexed": false,
          "internalType": "address",
          "name": "owner",
          "type": "address"
        },
        {
          "indexed": false,
          "internalType": "uint256",
          "name": "mumId",
          "type": "uint256"
        },
        {
          "indexed": false,
          "internalType": "uint256",
          "name": "dadId",
          "type": "uint256"
        },
        {
          "indexed": false,
          "internalType": "string",
          "name": "dna",
          "type": "string"
        }
      ],
      "name": "Birth",
      "type": "event"
    },
    {
      "anonymous": false,
      "inputs": [
        {
          "indexed": true,
          "internalType": "address",
          "name": "previousOwner",
          "type": "address"
        },
        {
          "indexed": true,
          "internalType": "address",
          "name": "newOwner",
          "type": "address"
        }
      ],
      "name": "OwnershipTransferred",
      "type": "event"
    },
    {
      "anonymous": false,
      "inputs": [
        {
          "indexed": true,
          "internalType": "address",
          "name": "from",
          "type": "address"
        },
        {
          "indexed": true,
          "internalType": "address",
          "name": "to",
          "type": "address"
        },
        {
          "indexed": true,
          "internalType": "uint256",
          "name": "tokenId",
          "type": "uint256"
        }
      ],
      "name": "Transfer",
      "type": "event"
    },
    {
      "inputs": [
        {
          "internalType": "uint256",
          "name": "",
          "type": "uint256"
        }
      ],
      "name": "kittyOwner",
      "outputs": [
        {
          "internalType": "address",
          "name": "",
          "type": "address"
        }
      ],
      "stateMutability": "view",
      "type": "function"
    },
    {
      "inputs": [],
      "name": "name",
      "outputs": [
        {
          "internalType": "string",
          "name": "",
          "type": "string"
        }
      ],
      "stateMutability": "view",
      "type": "function"
    },
    {
      "inputs": [],
      "name": "owner",
      "outputs": [
        {
          "internalType": "address",
          "name": "",
          "type": "address"
        }
      ],
      "stateMutability": "view",
      "type": "function"
    },
    {
      "inputs": [],
      "name": "renounceOwnership",
      "outputs": [],
      "stateMutability": "nonpayable",
      "type": "function"
    },
    {
      "inputs": [],
      "name": "symbol",
      "outputs": [
        {
          "internalType": "string",
          "name": "",
          "type": "string"
        }
      ],
      "stateMutability": "view",
      "type": "function"
    },
    {
      "inputs": [
        {
          "internalType": "address",
          "name": "newOwner",
          "type": "address"
        }
      ],
      "name": "transferOwnership",
      "outputs": [],
      "stateMutability": "nonpayable",
      "type": "function"
    },
    {
      "inputs": [
        {
          "internalType": "address",
          "name": "owner",
          "type": "address"
        }
      ],
      "name": "balanceOf",
      "outputs": [
        {
          "internalType": "uint256",
          "name": "balance",
          "type": "uint256"
        }
      ],
      "stateMutability": "view",
      "type": "function"
    },
    {
      "inputs": [],
      "name": "totalSupply",
      "outputs": [
        {
          "internalType": "uint256",
          "name": "total",
          "type": "uint256"
        }
      ],
      "stateMutability": "view",
      "type": "function"
    },
    {
      "inputs": [
        {
          "internalType": "uint256",
          "name": "tokenId",
          "type": "uint256"
        }
      ],
      "name": "ownerOf",
      "outputs": [
        {
          "internalType": "address",
          "name": "owner",
          "type": "address"
        }
      ],
      "stateMutability": "view",
      "type": "function"
    },
    {
      "inputs": [
        {
          "internalType": "address",
          "name": "to",
          "type": "address"
        },
        {
          "internalType": "uint256",
          "name": "tokenId",
          "type": "uint256"
        }
      ],
      "name": "transfer",
      "outputs": [],
      "stateMutability": "nonpayable",
      "type": "function"
    },
    {
      "inputs": [
        {
          "internalType": "address",
          "name": "_approved",
          "type": "address"
        },
        {
          "internalType": "uint256",
          "name": "_tokenId",
          "type": "uint256"
        }
      ],
      "name": "approve",
      "outputs": [],
      "stateMutability": "nonpayable",
      "type": "function"
    },
    {
      "inputs": [
        {
          "internalType": "address",
          "name": "_operator",
          "type": "address"
        },
        {
          "internalType": "bool",
          "name": "_approved",
          "type": "bool"
        }
      ],
      "name": "setApprovalForAll",
      "outputs": [],
      "stateMutability": "nonpayable",
      "type": "function"
    },
    {
      "inputs": [
        {
          "internalType": "uint256",
          "name": "_tokenId",
          "type": "uint256"
        }
      ],
      "name": "getApproved",
      "outputs": [
        {
          "internalType": "address",
          "name": "",
          "type": "address"
        }
      ],
      "stateMutability": "view",
      "type": "function"
    },
    {
      "inputs": [
        {
          "internalType": "address",
          "name": "_owner",
          "type": "address"
        },
        {
          "internalType": "address",
          "name": "_operator",
          "type": "address"
        }
      ],
      "name": "isApprovedForAll",
      "outputs": [
        {
          "internalType": "bool",
          "name": "",
          "type": "bool"
        }
      ],
      "stateMutability": "view",
      "type": "function"
    },
    {
      "inputs": [
        {
          "internalType": "string",
          "name": "dna",
          "type": "string"
        }
      ],
      "name": "createKittyGen0",
      "outputs": [
        {
          "internalType": "uint256",
          "name": "",
          "type": "uint256"
        }
      ],
      "stateMutability": "nonpayable",
      "type": "function"
    },
    {
      "inputs": [
        {
          "internalType": "uint256",
          "name": "tokenId",
          "type": "uint256"
        }
      ],
      "name": "getKitty",
      "outputs": [
        {
          "internalType": "string",
          "name": "dna",
          "type": "string"
        },
        {
          "internalType": "uint256",
          "name": "birthTime",
          "type": "uint256"
        },
        {
          "internalType": "uint256",
          "name": "mumId",
          "type": "uint256"
        },
        {
          "internalType": "uint256",
          "name": "dadId",
          "type": "uint256"
        },
        {
          "internalType": "uint256",
          "name": "generation",
          "type": "uint256"
        },
        {
          "internalType": "address",
          "name": "owner",
          "type": "address"
        }
      ],
      "stateMutability": "view",
      "type": "function"
    }
  ],
  "bytecode": "0x608060405234801561001057600080fd5b5060006100216100c460201b60201c565b9050806000806101000a81548173ffffffffffffffffffffffffffffffffffffffff021916908373ffffffffffffffffffffffffffffffffffffffff1602179055508073ffffffffffffffffffffffffffffffffffffffff16600073ffffffffffffffffffffffffffffffffffffffff167f8be0079c531659141344cd1fd0a4f28419497f9722a3daafe3b4186f6b6457e060405160405180910390a3506100cc565b600033905090565b611bd0806100db6000396000f3fe608060405234801561001057600080fd5b50600436106101005760003560e01c80638da5cb5b11610097578063cb854ae711610066578063cb854ae71461029b578063e985e9c5146102cb578063e98b7f4d146102fb578063f2fde38b1461033057610100565b80638da5cb5b1461022757806395d89b4114610245578063a22cb46514610263578063a9059cbb1461027f57610100565b80636352211e116100d35780636352211e1461018d57806370a08231146101bd578063715018a6146101ed5780638420f94b146101f757610100565b806306fdde0314610105578063081812fc14610123578063095ea7b31461015357806318160ddd1461016f575b600080fd5b61010d61034c565b60405161011a91906116df565b60405180910390f35b61013d60048036038101906101389190611542565b610385565b60405161014a919061165d565b60405180910390f35b61016d600480360381019061016891906114c5565b610409565b005b61017761060e565b60405161018491906117e9565b60405180910390f35b6101a760048036038101906101a29190611542565b61061b565b6040516101b4919061165d565b60405180910390f35b6101d760048036038101906101d29190611424565b61069f565b6040516101e491906117e9565b60405180910390f35b6101f56106e8565b005b610211600480360381019061020c9190611501565b610822565b60405161021e91906117e9565b60405180910390f35b61022f6108b6565b60405161023c919061165d565b60405180910390f35b61024d6108df565b60405161025a91906116df565b60405180910390f35b61027d60048036038101906102789190611489565b610918565b005b610299600480360381019061029491906114c5565b610a15565b005b6102b560048036038101906102b09190611542565b610b27565b6040516102c2919061165d565b60405180910390f35b6102e560048036038101906102e0919061144d565b610b5a565b6040516102f291906116c4565b60405180910390f35b61031560048036038101906103109190611542565b610bee565b60405161032796959493929190611701565b60405180910390f35b61034a60048036038101906103459190611424565b610d8a565b005b6040518060400160405280600d81526020017f4d696368616c4b6974746965730000000000000000000000000000000000000081525081565b600060058054905082106103ce576040517f08c379a00000000000000000000000000000000000000000000000000000000081526004016103c590611769565b60405180910390fd5b6003600083815260200190815260200160002060009054906101000a900473ffffffffffffffffffffffffffffffffffffffff169050919050565b6005805490508110610450576040517f08c379a000000000000000000000000000000000000000000000000000000000815260040161044790611769565b60405180910390fd5b61045a3382610f33565b8061051e5750600460006001600084815260200190815260200160002060009054906101000a900473ffffffffffffffffffffffffffffffffffffffff1673ffffffffffffffffffffffffffffffffffffffff1673ffffffffffffffffffffffffffffffffffffffff16815260200190815260200160002060003373ffffffffffffffffffffffffffffffffffffffff1673ffffffffffffffffffffffffffffffffffffffff16815260200190815260200160002060009054906101000a900460ff165b61055d576040517f08c379a0000000000000000000000000000000000000000000000000000000008152600401610554906117a9565b60405180910390fd5b816003600083815260200190815260200160002060006101000a81548173ffffffffffffffffffffffffffffffffffffffff021916908373ffffffffffffffffffffffffffffffffffffffff160217905550808273ffffffffffffffffffffffffffffffffffffffff163373ffffffffffffffffffffffffffffffffffffffff167f8c5be1e5ebec7d5bd14f71427d1e84f3dd0314c0f7b2291e5b200ac8c7c3b92560405160405180910390a45050565b6000600580549050905090565b60006005805490508210610664576040517f08c379a000000000000000000000000000000000000000000000000000000000815260040161065b90611769565b60405180910390fd5b6001600083815260200190815260200160002060009054906101000a900473ffffffffffffffffffffffffffffffffffffffff169050919050565b6000600260008373ffffffffffffffffffffffffffffffffffffffff1673ffffffffffffffffffffffffffffffffffffffff168152602001908152602001600020549050919050565b6106f0610f9f565b73ffffffffffffffffffffffffffffffffffffffff1661070e6108b6565b73ffffffffffffffffffffffffffffffffffffffff1614610764576040517f08c379a000000000000000000000000000000000000000000000000000000000815260040161075b906117c9565b60405180910390fd5b600073ffffffffffffffffffffffffffffffffffffffff1660008054906101000a900473ffffffffffffffffffffffffffffffffffffffff1673ffffffffffffffffffffffffffffffffffffffff167f8be0079c531659141344cd1fd0a4f28419497f9722a3daafe3b4186f6b6457e060405160405180910390a360008060006101000a81548173ffffffffffffffffffffffffffffffffffffffff021916908373ffffffffffffffffffffffffffffffffffffffff160217905550565b600061082c610f9f565b73ffffffffffffffffffffffffffffffffffffffff1661084a6108b6565b73ffffffffffffffffffffffffffffffffffffffff16146108a0576040517f08c379a0000000000000000000000000000000000000000000000000000000008152600401610897906117c9565b60405180910390fd5b6108af82600080600033610fa7565b9050919050565b60008060009054906101000a900473ffffffffffffffffffffffffffffffffffffffff16905090565b6040518060400160405280600481526020017f4d4b49540000000000000000000000000000000000000000000000000000000081525081565b80600460003373ffffffffffffffffffffffffffffffffffffffff1673ffffffffffffffffffffffffffffffffffffffff16815260200190815260200160002060008473ffffffffffffffffffffffffffffffffffffffff1673ffffffffffffffffffffffffffffffffffffffff16815260200190815260200160002060006101000a81548160ff0219169083151502179055508173ffffffffffffffffffffffffffffffffffffffff163373ffffffffffffffffffffffffffffffffffffffff167f17307eab39ab6107e8899845ad3d59bd9653f200f220920489ca2b5937696c3183604051610a0991906116c4565b60405180910390a35050565b600073ffffffffffffffffffffffffffffffffffffffff168273ffffffffffffffffffffffffffffffffffffffff161415610a4f57600080fd5b3073ffffffffffffffffffffffffffffffffffffffff168273ffffffffffffffffffffffffffffffffffffffff161415610a8857600080fd5b6005805490508110610acf576040517f08c379a0000000000000000000000000000000000000000000000000000000008152600401610ac690611769565b60405180910390fd5b610ad93382610f33565b610b18576040517f08c379a0000000000000000000000000000000000000000000000000000000008152600401610b0f906117a9565b60405180910390fd5b610b23338383611145565b5050565b60016020528060005260406000206000915054906101000a900473ffffffffffffffffffffffffffffffffffffffff1681565b6000600460008473ffffffffffffffffffffffffffffffffffffffff1673ffffffffffffffffffffffffffffffffffffffff16815260200190815260200160002060008373ffffffffffffffffffffffffffffffffffffffff1673ffffffffffffffffffffffffffffffffffffffff16815260200190815260200160002060009054906101000a900460ff16905092915050565b606060008060008060008060058881548110610c33577f4e487b7100000000000000000000000000000000000000000000000000000000600052603260045260246000fd5b90600052602060002090600202019050806000018054610c529061198a565b80601f0160208091040260200160405190810160405280929190818152602001828054610c7e9061198a565b8015610ccb5780601f10610ca057610100808354040283529160200191610ccb565b820191906000526020600020905b815481529060010190602001808311610cae57829003601f168201915b505050505096508060010160009054906101000a900467ffffffffffffffff1667ffffffffffffffff1695508060010160089054906101000a900463ffffffff1663ffffffff16945080600101600c9054906101000a900463ffffffff1663ffffffff1693508060010160109054906101000a900461ffff1661ffff1692506001600089815260200190815260200160002060009054906101000a900473ffffffffffffffffffffffffffffffffffffffff1691505091939550919395565b610d92610f9f565b73ffffffffffffffffffffffffffffffffffffffff16610db06108b6565b73ffffffffffffffffffffffffffffffffffffffff1614610e06576040517f08c379a0000000000000000000000000000000000000000000000000000000008152600401610dfd906117c9565b60405180910390fd5b600073ffffffffffffffffffffffffffffffffffffffff168173ffffffffffffffffffffffffffffffffffffffff161415610e76576040517f08c379a0000000000000000000000000000000000000000000000000000000008152600401610e6d90611789565b60405180910390fd5b8073ffffffffffffffffffffffffffffffffffffffff1660008054906101000a900473ffffffffffffffffffffffffffffffffffffffff1673ffffffffffffffffffffffffffffffffffffffff167f8be0079c531659141344cd1fd0a4f28419497f9722a3daafe3b4186f6b6457e060405160405180910390a3806000806101000a81548173ffffffffffffffffffffffffffffffffffffffff021916908373ffffffffffffffffffffffffffffffffffffffff16021790555050565b60008273ffffffffffffffffffffffffffffffffffffffff166001600084815260200190815260200160002060009054906101000a900473ffffffffffffffffffffffffffffffffffffffff1673ffffffffffffffffffffffffffffffffffffffff1614905092915050565b600033905090565b6000806040518060a001604052808881526020014267ffffffffffffffff1681526020018763ffffffff1681526020018663ffffffff1681526020018561ffff168152509050600581908060018154018082558091505060019003906000526020600020906002020160009091909190915060008201518160000190805190602001906110359291906112da565b5060208201518160010160006101000a81548167ffffffffffffffff021916908367ffffffffffffffff16021790555060408201518160010160086101000a81548163ffffffff021916908363ffffffff160217905550606082015181600101600c6101000a81548163ffffffff021916908363ffffffff16021790555060808201518160010160106101000a81548161ffff021916908361ffff1602179055505050600060016005805490506110ec91906118cc565b90507f57bdfedb3ab59e29d46157723e7f15e09b7b59531c13d298d3ed65c34db2b6aa8488888b6040516111239493929190611678565b60405180910390a161113760008583611145565b809250505095945050505050565b816001600083815260200190815260200160002060006101000a81548173ffffffffffffffffffffffffffffffffffffffff021916908373ffffffffffffffffffffffffffffffffffffffff1602179055506001600260008473ffffffffffffffffffffffffffffffffffffffff1673ffffffffffffffffffffffffffffffffffffffff16815260200190815260200160002060008282546111e79190611876565b92505081905550600073ffffffffffffffffffffffffffffffffffffffff168373ffffffffffffffffffffffffffffffffffffffff161461127a576001600260003373ffffffffffffffffffffffffffffffffffffffff1673ffffffffffffffffffffffffffffffffffffffff168152602001908152602001600020600082825461127291906118cc565b925050819055505b808273ffffffffffffffffffffffffffffffffffffffff163373ffffffffffffffffffffffffffffffffffffffff167fddf252ad1be2c89b69c2b068fc378daa952ba7f163c4a11628f55a4df523b3ef60405160405180910390a4505050565b8280546112e69061198a565b90600052602060002090601f016020900481019282611308576000855561134f565b82601f1061132157805160ff191683800117855561134f565b8280016001018555821561134f579182015b8281111561134e578251825591602001919060010190611333565b5b50905061135c9190611360565b5090565b5b80821115611379576000816000905550600101611361565b5090565b600061139061138b84611829565b611804565b9050828152602081018484840111156113a857600080fd5b6113b3848285611948565b509392505050565b6000813590506113ca81611b55565b92915050565b6000813590506113df81611b6c565b92915050565b600082601f8301126113f657600080fd5b813561140684826020860161137d565b91505092915050565b60008135905061141e81611b83565b92915050565b60006020828403121561143657600080fd5b6000611444848285016113bb565b91505092915050565b6000806040838503121561146057600080fd5b600061146e858286016113bb565b925050602061147f858286016113bb565b9150509250929050565b6000806040838503121561149c57600080fd5b60006114aa858286016113bb565b92505060206114bb858286016113d0565b9150509250929050565b600080604083850312156114d857600080fd5b60006114e6858286016113bb565b92505060206114f78582860161140f565b9150509250929050565b60006020828403121561151357600080fd5b600082013567ffffffffffffffff81111561152d57600080fd5b611539848285016113e5565b91505092915050565b60006020828403121561155457600080fd5b60006115628482850161140f565b91505092915050565b61157481611900565b82525050565b61158381611912565b82525050565b60006115948261185a565b61159e8185611865565b93506115ae818560208601611957565b6115b781611a7a565b840191505092915050565b60006115cf601383611865565b91506115da82611a8b565b602082019050919050565b60006115f2602683611865565b91506115fd82611ab4565b604082019050919050565b6000611615601883611865565b915061162082611b03565b602082019050919050565b6000611638602083611865565b915061164382611b2c565b602082019050919050565b6116578161193e565b82525050565b6000602082019050611672600083018461156b565b92915050565b600060808201905061168d600083018761156b565b61169a602083018661164e565b6116a7604083018561164e565b81810360608301526116b98184611589565b905095945050505050565b60006020820190506116d9600083018461157a565b92915050565b600060208201905081810360008301526116f98184611589565b905092915050565b600060c082019050818103600083015261171b8189611589565b905061172a602083018861164e565b611737604083018761164e565b611744606083018661164e565b611751608083018561164e565b61175e60a083018461156b565b979650505050505050565b60006020820190508181036000830152611782816115c2565b9050919050565b600060208201905081810360008301526117a2816115e5565b9050919050565b600060208201905081810360008301526117c281611608565b9050919050565b600060208201905081810360008301526117e28161162b565b9050919050565b60006020820190506117fe600083018461164e565b92915050565b600061180e61181f565b905061181a82826119bc565b919050565b6000604051905090565b600067ffffffffffffffff82111561184457611843611a4b565b5b61184d82611a7a565b9050602081019050919050565b600081519050919050565b600082825260208201905092915050565b60006118818261193e565b915061188c8361193e565b9250827fffffffffffffffffffffffffffffffffffffffffffffffffffffffffffffffff038211156118c1576118c06119ed565b5b828201905092915050565b60006118d78261193e565b91506118e28361193e565b9250828210156118f5576118f46119ed565b5b828203905092915050565b600061190b8261191e565b9050919050565b60008115159050919050565b600073ffffffffffffffffffffffffffffffffffffffff82169050919050565b6000819050919050565b82818337600083830152505050565b60005b8381101561197557808201518184015260208101905061195a565b83811115611984576000848401525b50505050565b600060028204905060018216806119a257607f821691505b602082108114156119b6576119b5611a1c565b5b50919050565b6119c582611a7a565b810181811067ffffffffffffffff821117156119e4576119e3611a4b565b5b80604052505050565b7f4e487b7100000000000000000000000000000000000000000000000000000000600052601160045260246000fd5b7f4e487b7100000000000000000000000000000000000000000000000000000000600052602260045260246000fd5b7f4e487b7100000000000000000000000000000000000000000000000000000000600052604160045260246000fd5b6000601f19601f8301169050919050565b7f546f6b656e20646f65736e277420657869737400000000000000000000000000600082015250565b7f4f776e61626c653a206e6577206f776e657220697320746865207a65726f206160008201527f6464726573730000000000000000000000000000000000000000000000000000602082015250565b7f596f7520646f6e2774206f776e207468697320746f6b656e0000000000000000600082015250565b7f4f776e61626c653a2063616c6c6572206973206e6f7420746865206f776e6572600082015250565b611b5e81611900565b8114611b6957600080fd5b50565b611b7581611912565b8114611b8057600080fd5b50565b611b8c8161193e565b8114611b9757600080fd5b5056fea26469706673582212209ad4d582b4cfc6d5c68797e948d7f0079e6af01648fcc262f32195dccffb70e364736f6c63430008040033",
  "immutableReferences": {},
  "source": "// SPDX-License-Identifier: MIT\npragma solidity ^0.8.0;\n\nimport \"./IERC721.sol\";\nimport \"./Ownable.sol\";\n\ncontract Kittycontract is IERC721, Ownable {\n\n    string public constant override name = \"MichalKitties\";\n    string public constant override symbol = \"MKIT\";\n\n    event Birth(address owner, uint256 mumId, uint256 dadId, string dna);\n\n    struct Kitty {\n        string dna;\n        uint64 birthTime;\n        uint32 mumId;\n        uint32 dadId;\n        uint16 generation;\n    }\n\n    mapping(uint256 => address) public kittyOwner;\n    mapping(address => uint256) balances;\n    mapping(uint256 => address) approvals;\n    mapping(address => mapping(address => bool)) approvalsForAll;\n\n    Kitty[] kitties;\n\n    function balanceOf(address owner) override external view returns (uint256 balance) {\n        balance = balances[owner];\n    }\n\n    function totalSupply() override external view returns (uint256 total) {\n        total = kitties.length;\n    }\n\n    function ownerOf(uint256 tokenId) override external view returns (address owner) {\n        require(tokenId < kitties.length, \"Token doesn't exist\");\n\n        owner = kittyOwner[tokenId];\n    }\n\n    function transfer(address to, uint256 tokenId) override external {\n        require(to != address(0));\n        require(to != address(this));\n        require(tokenId < kitties.length, \"Token doesn't exist\");\n        require(_owns(msg.sender, tokenId), \"You don't own this token\");\n\n        _transfer(msg.sender, to, tokenId);\n    }\n\n    function approve(address _approved, uint256 _tokenId) override external {\n        require(_tokenId < kitties.length, \"Token doesn't exist\");\n        require(_owns(msg.sender, _tokenId) || approvalsForAll[kittyOwner[_tokenId]][msg.sender], \"You don't own this token\");\n\n        approvals[_tokenId] = _approved;\n\n        emit Approval(msg.sender, _approved, _tokenId);\n    }\n\n    function setApprovalForAll(address _operator, bool _approved) override external {\n        approvalsForAll[msg.sender][_operator] = _approved;\n\n        emit ApprovalForAll(msg.sender, _operator, _approved);\n    }\n\n    function getApproved(uint256 _tokenId) override external view returns (address) {\n        require(_tokenId < kitties.length, \"Token doesn't exist\");\n\n        return approvals[_tokenId];\n    }\n\n    function isApprovedForAll(address _owner, address _operator) override external view returns (bool) {\n        return approvalsForAll[_owner][_operator];\n    }\n\n    function createKittyGen0(string memory dna) onlyOwner public returns(uint256) {\n        return _createKitty(dna, 0, 0, 0, msg.sender);\n    }\n\n    function getKitty(uint256 tokenId) view external returns (\n        string memory dna,\n        uint256 birthTime,\n        uint256 mumId,\n        uint256 dadId,\n        uint256 generation,\n        address owner) {\n\n        Kitty storage k = kitties[tokenId];\n\n        dna = k.dna;\n        birthTime = uint256(k.birthTime);\n        mumId = uint256(k.mumId);\n        dadId = uint256(k.dadId);\n        generation = uint256(k.generation);\n        owner = kittyOwner[tokenId];\n    }\n\n    function _createKitty(\n        string memory _dna,\n        uint256 _mumId,\n        uint256 _dadId,\n        uint256 _generation,\n        address _owner) internal returns(uint256) {\n\n        Kitty memory kitty = Kitty({\n            dna: _dna,\n            birthTime: uint64(block.timestamp),\n            mumId: uint32(_mumId),\n            dadId: uint32(_dadId),\n            generation: uint16(_generation)\n        });\n\n        kitties.push(kitty);\n        uint256 kittyId = kitties.length - 1;\n\n        emit Birth(_owner, _mumId, _dadId, _dna);\n\n        _transfer(address(0), _owner, kittyId);\n\n        return kittyId;\n    }\n\n    function _transfer(address from, address to, uint256 tokenId) internal {\n        kittyOwner[tokenId] = to;\n        balances[to] += 1;\n        if (from != address(0)) {\n            balances[msg.sender] -= 1;\n        }\n\n        emit Transfer(msg.sender, to, tokenId);\n    }\n\n    function _owns(address claimant, uint256 tokenId) internal view returns(bool) {\n        return kittyOwner[tokenId] == claimant;\n    }\n}\n",
  "sourcePath": "/Users/michal/Documents/workspace/myCryptoKitties/smartcontract/contracts/Kittycontract.sol",
  "compiler": {
    "name": "solc",
    "version": "0.8.4+commit.c7e474f2.Emscripten.clang"
  },
  "schemaVersion": "3.3.4",
  "updatedAt": "2021-04-29T17:28:41.785Z",
  "devdoc": {
    "kind": "dev",
    "methods": {
      "approve(address,uint256)": {
        "details": "The zero address indicates there is no approved address.  Throws unless `msg.sender` is the current NFT owner, or an authorized  operator of the current owner.",
        "params": {
          "_approved": "The new approved NFT controller",
          "_tokenId": "The NFT to approve"
        }
      },
      "balanceOf(address)": {
        "details": "Returns the number of tokens in ``owner``'s account."
      },
      "getApproved(uint256)": {
        "details": "Throws if `_tokenId` is not a valid NFT.",
        "params": {
          "_tokenId": "The NFT to find the approved address for"
        },
        "returns": {
          "_0": "The approved address for this NFT, or the zero address if there is none"
        }
      },
      "isApprovedForAll(address,address)": {
        "params": {
          "_operator": "The address that acts on behalf of the owner",
          "_owner": "The address that owns the NFTs"
        },
        "returns": {
          "_0": "True if `_operator` is an approved operator for `_owner`, false otherwise"
        }
      },
      "owner()": {
        "details": "Returns the address of the current owner."
      },
      "ownerOf(uint256)": {
        "details": "Returns the owner of the `tokenId` token. Requirements: - `tokenId` must exist."
      },
      "renounceOwnership()": {
        "details": "Leaves the contract without owner. It will not be possible to call `onlyOwner` functions anymore. Can only be called by the current owner. NOTE: Renouncing ownership will leave the contract without an owner, thereby removing any functionality that is only available to the owner."
      },
      "setApprovalForAll(address,bool)": {
        "details": "Emits the ApprovalForAll event. The contract MUST allow  multiple operators per owner.",
        "params": {
          "_approved": "True if the operator is approved, false to revoke approval",
          "_operator": "Address to add to the set of authorized operators"
        }
      },
      "transferOwnership(address)": {
        "details": "Transfers ownership of the contract to a new account (`newOwner`). Can only be called by the current owner."
      }
    },
    "version": 1
  },
  "userdoc": {
    "kind": "user",
    "methods": {
      "approve(address,uint256)": {
        "notice": "Change or reaffirm the approved address for an NFT"
      },
      "getApproved(uint256)": {
        "notice": "Get the approved address for a single NFT"
      },
      "isApprovedForAll(address,address)": {
        "notice": "Query if an address is an authorized operator for another address"
      },
      "setApprovalForAll(address,bool)": {
        "notice": "Enable or disable approval for a third party (\"operator\") to manage  all of `msg.sender`'s assets"
      }
    },
    "version": 1
  }
}