{
  "contractName": "KittyMarketPlace",
  "abi": [
    {
      "inputs": [
        {
          "internalType": "address",
          "name": "_kittyContractAddress",
          "type": "address"
        }
      ],
      "stateMutability": "nonpayable",
      "type": "constructor"
    },
    {
      "anonymous": false,
      "inputs": [
        {
          "indexed": false,
          "internalType": "string",
          "name": "TxType",
          "type": "string"
        },
        {
          "indexed": false,
          "internalType": "address",
          "name": "owner",
          "type": "address"
        },
        {
          "indexed": false,
          "internalType": "uint256",
          "name": "tokenId",
          "type": "uint256"
        }
      ],
      "name": "MarketTransaction",
      "type": "event"
    },
    {
      "anonymous": false,
      "inputs": [
        {
          "indexed": true,
          "internalType": "address",
          "name": "previousOwner",
          "type": "address"
        },
        {
          "indexed": true,
          "internalType": "address",
          "name": "newOwner",
          "type": "address"
        }
      ],
      "name": "OwnershipTransferred",
      "type": "event"
    },
    {
      "inputs": [],
      "name": "owner",
      "outputs": [
        {
          "internalType": "address",
          "name": "",
          "type": "address"
        }
      ],
      "stateMutability": "view",
      "type": "function",
      "constant": true
    },
    {
      "inputs": [],
      "name": "renounceOwnership",
      "outputs": [],
      "stateMutability": "nonpayable",
      "type": "function"
    },
    {
      "inputs": [
        {
          "internalType": "address",
          "name": "newOwner",
          "type": "address"
        }
      ],
      "name": "transferOwnership",
      "outputs": [],
      "stateMutability": "nonpayable",
      "type": "function"
    },
    {
      "inputs": [
        {
          "internalType": "address",
          "name": "_kittyContractAddress",
          "type": "address"
        }
      ],
      "name": "setKittyContract",
      "outputs": [],
      "stateMutability": "nonpayable",
      "type": "function"
    },
    {
      "inputs": [
        {
          "internalType": "uint256",
          "name": "_tokenId",
          "type": "uint256"
        }
      ],
      "name": "getOffer",
      "outputs": [
        {
          "internalType": "address",
          "name": "seller",
          "type": "address"
        },
        {
          "internalType": "uint256",
          "name": "price",
          "type": "uint256"
        },
        {
          "internalType": "uint256",
          "name": "index",
          "type": "uint256"
        },
        {
          "internalType": "uint256",
          "name": "tokenId",
          "type": "uint256"
        },
        {
          "internalType": "bool",
          "name": "active",
          "type": "bool"
        }
      ],
      "stateMutability": "view",
      "type": "function",
      "constant": true
    },
    {
      "inputs": [],
      "name": "getAllTokenOnSale",
      "outputs": [
        {
          "internalType": "uint256[]",
          "name": "",
          "type": "uint256[]"
        }
      ],
      "stateMutability": "view",
      "type": "function",
      "constant": true
    },
    {
      "inputs": [
        {
          "internalType": "uint256",
          "name": "_price",
          "type": "uint256"
        },
        {
          "internalType": "uint256",
          "name": "_tokenId",
          "type": "uint256"
        }
      ],
      "name": "setOffer",
      "outputs": [],
      "stateMutability": "nonpayable",
      "type": "function"
    },
    {
      "inputs": [
        {
          "internalType": "uint256",
          "name": "_tokenId",
          "type": "uint256"
        }
      ],
      "name": "removeOffer",
      "outputs": [],
      "stateMutability": "nonpayable",
      "type": "function"
    },
    {
      "inputs": [
        {
          "internalType": "uint256",
          "name": "_tokenId",
          "type": "uint256"
        }
      ],
      "name": "buyKitty",
      "outputs": [],
      "stateMutability": "payable",
      "type": "function",
      "payable": true
    }
  ],
  "bytecode": "0x608060405234801561001057600080fd5b5060405161102538038061102583398101604081905261002f9161015d565b600080546001600160a01b031916339081178255604051909182917f8be0079c531659141344cd1fd0a4f28419497f9722a3daafe3b4186f6b6457e0908290a350600180546001600160a01b0319166001600160a01b0392831617815560408051608081018252600080825260208201818152339383019384526060830182815260028054968701815590925291517f405787fa12a823e0f2b7631cc41b3ba8828b3321ca811111fa75cd3aa3bb5ace60039095029485015590517f405787fa12a823e0f2b7631cc41b3ba8828b3321ca811111fa75cd3aa3bb5acf84015590517f405787fa12a823e0f2b7631cc41b3ba8828b3321ca811111fa75cd3aa3bb5ad090920180549151929093166001600160a81b031990911617600160a01b9115159190910217905561018b565b60006020828403121561016e578081fd5b81516001600160a01b0381168114610184578182fd5b9392505050565b610e8b8061019a6000396000f3fe6080604052600436106100865760003560e01c80638da5cb5b116100595780638da5cb5b1461013d578063941b055b1461016557806395a0f9c714610185578063ae5310f6146101a5578063f2fde38b146101b857600080fd5b80634579268a1461008b57806349b3709f146100e457806362b7f94e14610106578063715018a614610128575b600080fd5b34801561009757600080fd5b506100ab6100a6366004610d04565b6101d8565b604080516001600160a01b03909616865260208601949094529284019190915260608301521515608082015260a0015b60405180910390f35b3480156100f057600080fd5b506100f96102cf565b6040516100db9190610d3d565b34801561011257600080fd5b50610126610121366004610cc5565b6103cc565b005b34801561013457600080fd5b50610126610418565b34801561014957600080fd5b506000546040516001600160a01b0390911681526020016100db565b34801561017157600080fd5b50610126610180366004610d1c565b61048c565b34801561019157600080fd5b506101266101a0366004610d04565b61086c565b6101266101b3366004610d04565b61098d565b3480156101c457600080fd5b506101266101d3366004610cc5565b610bdb565b6000818152600360205260408120546002805483928392839283929183918390811061021457634e487b7160e01b600052603260045260246000fd5b906000526020600020906003020190508060020160149054906101000a900460ff166102875760405162461bcd60e51b815260206004820152601e60248201527f4e6f20616374697665206f6666657220666f72207468697320746f6b656e000060448201526064015b60405180910390fd5b600281015460018201546001600160a01b0390911697506102ad90633b9aca0090610db6565b60029190910154969890979196919550600160a01b90910460ff169350915050565b60025460609060009067ffffffffffffffff8111156102fe57634e487b7160e01b600052604160045260246000fd5b604051908082528060200260200182016040528015610327578160200160208202803683370190505b50905060005b6002548110156103c65760006002828154811061035a57634e487b7160e01b600052603260045260246000fd5b906000526020600020906003020190508060020160149054906101000a900460ff16156103b35780600001548383815181106103a657634e487b7160e01b600052603260045260246000fd5b6020026020010181815250505b50806103be81610e0c565b91505061032d565b50919050565b6000546001600160a01b031633146103f65760405162461bcd60e51b815260040161027e90610d81565b600180546001600160a01b0319166001600160a01b0392909216919091179055565b6000546001600160a01b031633146104425760405162461bcd60e51b815260040161027e90610d81565b600080546040516001600160a01b03909116907f8be0079c531659141344cd1fd0a4f28419497f9722a3daafe3b4186f6b6457e0908390a3600080546001600160a01b0319169055565b6001546040516331a9108f60e11b81526004810183905233916001600160a01b031690636352211e9060240160206040518083038186803b1580156104d057600080fd5b505afa1580156104e4573d6000803e3d6000fd5b505050506040513d601f19601f820116820180604052508101906105089190610ce8565b6001600160a01b03161461055e5760405162461bcd60e51b815260206004820152601860248201527f596f7520646f6e2774206f776e207468697320746f6b656e0000000000000000604482015260640161027e565b60008181526003602052604090205460028054909190811061059057634e487b7160e01b600052603260045260246000fd5b6000918252602090912060039091020160020154600160a01b900460ff16156106055760405162461bcd60e51b815260206004820152602160248201527f457869737420616374697665206f6666657220666f72207468697320746f6b656044820152603760f91b606482015260840161027e565b60015460405163020604bf60e21b81526004810183905230916001600160a01b03169063081812fc9060240160206040518083038186803b15801561064957600080fd5b505afa15801561065d573d6000803e3d6000fd5b505050506040513d601f19601f820116820180604052508101906106819190610ce8565b6001600160a01b0316146106f15760405162461bcd60e51b815260206004820152603160248201527f4d61726b6574706c6163652069736e277420617070726f766564206f706572616044820152703a37b91037b3103a3434b9903a37b5b2b760791b606482015260840161027e565b6000604051806080016040528083815260200184633b9aca006107149190610dd6565b81523360208083019190915260016040928301819052600280548083018255600082905285517f405787fa12a823e0f2b7631cc41b3ba8828b3321ca811111fa75cd3aa3bb5ace600390920291820155928501517f405787fa12a823e0f2b7631cc41b3ba8828b3321ca811111fa75cd3aa3bb5acf840155928401517f405787fa12a823e0f2b7631cc41b3ba8828b3321ca811111fa75cd3aa3bb5ad0909201805460608601516001600160a01b039094166001600160a81b031990911617600160a01b931515939093029290921790915590549192506107f491610df5565b6000838152600360209081526040918290209290925580516060808252600c908201526b21b932b0ba329037b33332b960a11b6080820152339281019290925281018390527fd99e4fad9ad6313b1feb588fa8e605e3a9873172f2024330c35dd2b4041a43869060a0015b60405180910390a1505050565b60008181526003602052604081205460028054919291839081106108a057634e487b7160e01b600052603260045260246000fd5b6000918252602090912060039091020160028101549091506001600160a01b0316331461090f5760405162461bcd60e51b815260206004820152601f60248201527f596f75206172656e27742073656c6c6572206f66207468697320746f6b656e00604482015260640161027e565b60028101805460ff60a01b1916905560008381526003602090815260408083209290925581516060808252600c908201526b2932b6b7bb329037b33332b960a11b608082015233918101919091529081018490527fd99e4fad9ad6313b1feb588fa8e605e3a9873172f2024330c35dd2b4041a43869060a00161085f565b60008181526003602052604081205460028054919291839081106109c157634e487b7160e01b600052603260045260246000fd5b9060005260206000209060030201905080600101543414610a375760405162461bcd60e51b815260206004820152602a60248201527f56616c7565206973206e6f7420657175616c20746f20707269636520666f72206044820152693a3434b9903a37b5b2b760b11b606482015260840161027e565b6002810154600160a01b900460ff16610aa25760405162461bcd60e51b815260206004820152602760248201527f54686572652069736e277420616374697665206f6666657220666f722074686960448201526639903a37b5b2b760c91b606482015260840161027e565b60028101546040516001600160a01b03909116903490600081818185875af1925050503d8060008114610af1576040519150601f19603f3d011682016040523d82523d6000602084013e610af6565b606091505b505060015460028301546040516323b872dd60e01b81526001600160a01b03918216600482015233602482015260448101879052911691506323b872dd90606401600060405180830381600087803b158015610b5157600080fd5b505af1158015610b65573d6000803e3d6000fd5b5050505060028101805460ff60a01b19169055600083815260036020818152604080842093909355825160608082528101929092526242757960e81b608083015233908201529081018490527fd99e4fad9ad6313b1feb588fa8e605e3a9873172f2024330c35dd2b4041a43869060a00161085f565b6000546001600160a01b03163314610c055760405162461bcd60e51b815260040161027e90610d81565b6001600160a01b038116610c6a5760405162461bcd60e51b815260206004820152602660248201527f4f776e61626c653a206e6577206f776e657220697320746865207a65726f206160448201526564647265737360d01b606482015260840161027e565b600080546040516001600160a01b03808516939216917f8be0079c531659141344cd1fd0a4f28419497f9722a3daafe3b4186f6b6457e091a3600080546001600160a01b0319166001600160a01b0392909216919091179055565b600060208284031215610cd6578081fd5b8135610ce181610e3d565b9392505050565b600060208284031215610cf9578081fd5b8151610ce181610e3d565b600060208284031215610d15578081fd5b5035919050565b60008060408385031215610d2e578081fd5b50508035926020909101359150565b6020808252825182820181905260009190848201906040850190845b81811015610d7557835183529284019291840191600101610d59565b50909695505050505050565b6020808252818101527f4f776e61626c653a2063616c6c6572206973206e6f7420746865206f776e6572604082015260600190565b600082610dd157634e487b7160e01b81526012600452602481fd5b500490565b6000816000190483118215151615610df057610df0610e27565b500290565b600082821015610e0757610e07610e27565b500390565b6000600019821415610e2057610e20610e27565b5060010190565b634e487b7160e01b600052601160045260246000fd5b6001600160a01b0381168114610e5257600080fd5b5056fea26469706673582212201e6039300c1bf39340d532ba17bf560bbf9d6a2fdf4d589e657680fdba6bcdb364736f6c63430008040033",
  "immutableReferences": {},
  "source": "// SPDX-License-Identifier: MIT\npragma solidity ^0.8.0;\n\nimport \"./IKittyMarketplace.sol\";\nimport \"./Kittycontract.sol\";\nimport \"./Ownable.sol\";\n\ncontract KittyMarketPlace is IKittyMarketPlace, Ownable {\n\n    Kittycontract internal kittycontract;\n\n    struct Offer {\n        uint tokenId;\n        uint price;\n        address seller;\n        bool active;\n    }\n\n    Offer[] offers;\n\n    mapping(uint => uint) tokenIdToOfferId;\n\n    constructor(address _kittyContractAddress) {\n        kittycontract = Kittycontract(_kittyContractAddress);\n        Offer memory offer = Offer(0, 0, msg.sender, false);\n        offers.push(offer);\n    }\n    \n    function setKittyContract(address _kittyContractAddress) override external onlyOwner {\n        kittycontract = Kittycontract(_kittyContractAddress);\n    }\n\n    function getOffer(uint256 _tokenId) override external view returns ( address seller, uint256 price, uint256 index, uint256 tokenId, bool active) {\n        uint offerId = tokenIdToOfferId[_tokenId];\n        Offer storage offer = offers[offerId];\n        \n        require(offer.active, \"No active offer for this token\");\n\n        seller = offer.seller;\n        price = offer.price/1000000000;\n        index = offerId;\n        tokenId = _tokenId;\n        active = offer.active;\n    }\n\n    function getAllTokenOnSale() override external view returns(uint256[] memory) {\n        uint[] memory result = new uint[](offers.length);\n\n        for (uint i = 0; i < offers.length; i++) {\n            Offer storage offer = offers[i];\n\n            if (offer.active) {\n                result[i] = offer.tokenId;\n            }\n        }\n\n        return result;\n    }\n\n    function setOffer(uint256 _price, uint256 _tokenId) override external {\n        require(kittycontract.ownerOf(_tokenId) == msg.sender, \"You don't own this token\");\n        require(offers[tokenIdToOfferId[_tokenId]].active == false, \"Exist active offer for this token\");\n        require(kittycontract.getApproved(_tokenId) == address(this), \"Marketplace isn't approved operator of this token\");\n\n        Offer memory offer = Offer(_tokenId, _price * 1000000000, msg.sender, true);\n\n        offers.push(offer);\n        tokenIdToOfferId[_tokenId] = offers.length - 1;\n\n        emit MarketTransaction(\"Create offer\", msg.sender, _tokenId);\n    }\n\n    function removeOffer(uint256 _tokenId) override external {\n        uint offerId = tokenIdToOfferId[_tokenId];\n        Offer storage offer = offers[offerId];\n\n        require(msg.sender == offer.seller, \"You aren't seller of this token\");\n\n        offer.active = false;\n        delete tokenIdToOfferId[_tokenId];\n\n        emit MarketTransaction(\"Remove offer\", msg.sender, _tokenId);\n    }\n\n    function buyKitty(uint256 _tokenId) override external payable {\n        uint offerId = tokenIdToOfferId[_tokenId];\n        Offer storage offer = offers[offerId];\n\n        require(msg.value == offer.price, \"Value is not equal to price for this token\");\n        require(offer.active, \"There isn't active offer for this token\");\n\n        payable(offer.seller).call{value: msg.value}(\"\");\n        kittycontract.transferFrom(offer.seller, msg.sender, _tokenId);\n\n        offer.active = false;\n        delete tokenIdToOfferId[_tokenId];\n\n        emit MarketTransaction(\"Buy\", msg.sender, _tokenId);\n    }\n}\n",
  "sourcePath": "/Users/michal/Documents/workspace/myCryptoKitties/smartcontract/contracts/KittyMarketPlace.sol",
  "compiler": {
    "name": "solc",
    "version": "0.8.4+commit.c7e474f2.Emscripten.clang"
  },
  "schemaVersion": "3.3.4",
  "updatedAt": "2021-05-14T20:46:12.338Z",
  "networkType": "ethereum",
  "devdoc": {
    "kind": "dev",
    "methods": {
      "owner()": {
        "details": "Returns the address of the current owner."
      },
      "renounceOwnership()": {
        "details": "Leaves the contract without owner. It will not be possible to call `onlyOwner` functions anymore. Can only be called by the current owner. NOTE: Renouncing ownership will leave the contract without an owner, thereby removing any functionality that is only available to the owner."
      },
      "transferOwnership(address)": {
        "details": "Transfers ownership of the contract to a new account (`newOwner`). Can only be called by the current owner."
      }
    },
    "version": 1
  },
  "userdoc": {
    "kind": "user",
    "methods": {
      "buyKitty(uint256)": {
        "notice": "Executes the purchase of _tokenId. Sends the funds to the seller and transfers the token using transferFrom in Kittycontract. Emits the MarketTransaction event with txType \"Buy\". Requirement: The msg.value needs to equal the price of _tokenId Requirement: There must be an active offer for _tokenId"
      },
      "getAllTokenOnSale()": {
        "notice": "Get all tokenId's that are currently for sale. Returns an empty arror if none exist."
      },
      "getOffer(uint256)": {
        "notice": "Get the details about a offer for _tokenId. Throws an error if there is no active offer for _tokenId."
      },
      "removeOffer(uint256)": {
        "notice": "Removes an existing offer. Emits the MarketTransaction event with txType \"Remove offer\" Requirement: Only the seller of _tokenId can remove an offer."
      },
      "setKittyContract(address)": {
        "notice": "Set the current KittyContract address and initialize the instance of Kittycontract. Requirement: Only the contract owner can call."
      },
      "setOffer(uint256,uint256)": {
        "notice": "Creates a new offer for _tokenId for the price _price. Emits the MarketTransaction event with txType \"Create offer\" Requirement: Only the owner of _tokenId can create an offer. Requirement: There can only be one active offer for a token at a time. Requirement: Marketplace contract (this) needs to be an approved operator when the offer is created."
      }
    },
    "version": 1
  }
}